:020000024000BC
:10800000884B0120518D0400E5C804003D8D04001B
:108010003D8D04003D8D04003D8D04003D8D040028
:10802000000000000000000000000000BD8E040001
:108030003D8D0400000000004D8E04003D8D0400C5
:10804000359004003590040035900400359004000C
:1080500035900400359004003590040035900400FC
:1080600035900400359004003590040035900400EC
:1080700035900400359004003590040035900400DC
:10847C0053B94AB9002908BF00281CBF4FF0FF317F
:10848C004FF0FF3000F00CB8ADF1080C6DE904CEE4
:10849C0000F008F8DDF804E0DDE9022304B07047D1
:1084AC00704700BF2DE9F04786468C460846089E6B
:1084BC00154674461946002B40F0C1808542B2FA2D
:1084CC0082F245D94AB1C2F1200300FA02FC954070
:1084DC0094402EFA03F343EA0C0C4FEA154EA8B263
:1084EC00230CBCFBFEF80EFB18CC08FB00F943EA8E
:1084FC000C43994528D9EB1808F1FF3704D299455C
:10850C0002D9A8F102072B44A3EB0903A4B2B3FBD5
:10851C00FEFC0EFB1C330CFB00F044EA0344A042AF
:10852C0014D92C190CF1FF3304D2A04202D9ACF1AE
:10853C0002032C44241A43EA07401EB1D440002302
:10854C0034607360BDE8F0874746DDE76346F1E7CA
:10855C0092BB431B01214FEA154EAFB2200CB3FB6B
:10856C00FEFC0EFB1C330CFB07F840EA034398455A
:10857C0061D9EB180CF1FF3004D2984502D9ACF15B
:10858C0002002B44A3EB0803A4B2B3FBFEFC0EFBCE
:10859C001C330CFB07F744EA0344A7424DD92C19B2
:1085AC000CF1FF3304D2A74202D9ACF102032C44E4
:1085BC00E41B43EA0040C0E7C2F12003954094401D
:1085CC0020FA03F12EFA03F34FEA154E9040AFB2A6
:1085DC000343B1FBFEFC0EFB1C10190C0CFB07F843
:1085EC0041EA0041884522D969180CF1FF3004D2C8
:1085FC00884502D9ACF102002944A1EB08019BB2D9
:10860C00B1FBFEFC0EFB1C110CFB07F743EA01430C
:10861C009F420ED9EB180CF1FF3104D29F4202D9C4
:10862C00ACF102012B44DB1B41EA004193E76046AD
:10863C00E3E76146F7E76046A4E76346B8E78342A1
:10864C0006D916B9002108467CE7C6E900E0F9E72F
:10865C00B3FA83F78FB9834201D3724508D8BEEBC6
:10866C00020460EB030301209C461EB9002169E75C
:10867C003846FAE7C6E9004CF8E7C7F1200CBB40D6
:10868C000EFA07F522FA0CF42EFA0CF1BA401C4340
:10869C0020FA0CF3B8404FEA144901431FFA84FE48
:1086AC00B3FBF9F809FB18300B0C08FB0EFA43EA84
:1086BC0000439A4540D9E31808F1FF3004D29A459B
:1086CC0002D9A8F102002344A3EB0A0389B2B3FB3D
:1086DC00F9F809FB183308FB0EFE41EA03418E45FD
:1086EC002CD9611808F1FF3304D28E4502D9A8F1B8
:1086FC000203214443EA0040A1EB0E01A0FB0298C7
:10870C004145CE46434602D306D14D4504D20138ED
:10871C00B9EB020E68EB0403002EA7D0B5EB0E02EA
:10872C0061EB030101FA0CFC22FA07F3F9404CEA65
:10873C000303C6E9003199E74046C5E74346D9E74C
:10874C0008B5044D044C284603F0D7FF204604F02E
:10875C00A4FBF8E750DD040040420F0008B5044DBF
:10876C00044C284603F0C9FF204604F096FBF8E7BA
:10877C0065DD040040420F00014B1B68184700BF29
:10878C0090300120014B1860704700BF90300120E1
:10879C0030B585B004460D4610220021684604F021
:1087AC008EFC02238DF80230044B2A462146684683
:1087BC00019303F065FC05B030BD00BF8587040054
:1087CC0080B505460E461746984603F0DFF903467A
:1087DC0004F0E0FC0446DFF81890424649F80030FB
:1087EC0039463046A84754F8090000F013FB00BF87
:1087FC00080000002DE9F047058B04462807904639
:10880C0011D4022905F0070540F0CC80204603F076
:10881C0081FF78B10138218B042811D8DFE800F0F2
:10882C00C2106D85950001290CBF45F0100545F06F
:10883C002005258388F31188BFF36F8FBDE8F0877F
:10884C0001F0070AAA4500F0A5800027B9463E466C
:10885C00A368002B00F0BC8041F00801218388F351
:10886C001188BFF36F8FA168002900F0BA800D68E2
:10887C00002900F0B680334652462046D1F80480D9
:10888C00C047002D76D02B6829461D46F0E701F035
:10889C0007035A1F012A1BD8002221F00701062BBF
:1088AC00276889B2C4E9002209D13B4603E0628BF8
:1088BC00013262831B68002BF9D141F00201204682
:1088CC00218303F027FF00287AD041F0200176E0C5
:1088DC00042B0AD121F0070189B22046218303F031
:1088EC0019FF10B141F020012183218B01F0070AFF
:1088FC00AA454FD00027B946AAE7236921F0070102
:10890C0041F00601062DD3F8009021832DD1B9F149
:10891C00000F3FD041F00801218388F31188BFF389
:10892C006F8F20463949C84729E021F00701236998
:10893C0041F0040189B2042DD3F804902183E6D0D0
:10894C0000274FF0040A3E4682E721F00701236915
:10895C0041F0050189B2052DD3F808902183D6D0BA
:10896C0000274FF0050A3E4672E700274FF0060A33
:10897C003E466DE72B4687E7B9F1000FD1D1EFF3F7
:10898C001188202383F31288BFF36F8F238B23F07E
:10899C0008032383258BEA062ED525F010032383A9
:1089AC0005F007056669218B002EBFF670AF00231A
:1089BC002768C4E9003321F0070141F0010121834C
:1089CC00218B4FF0000901F0070AAA457FF440AF54
:1089DC00002F9CD041F00801218388F31188BFF34C
:1089EC006F8F002FC8D03D6839463346524620461B
:1089FC0003F0BCFE2F46F4E7AB067FF51BAF25F06A
:108A0C002003238305F0070500E700BFA5C704007A
:108A1C00014B03600020704718DC040008B50448C3
:108A2C0003F06BFEBDE80840024803F066BE00BFD1
:108A3C0090DD0400C5DD040030BFFFF7FDBF00BFB3
:108A4C002DE9F04105460B4EDFF82C80324606EB43
:108A5C000807CC1B2046094904F024FBA019424608
:108A6C000021083C04F02BFBC5F8804007F10800FE
:108A7C00BDE8F0810000000004000000DCDB040015
:108A8C00054B5A699B689A421FBF044A536843F0CE
:108A9C0080535360704700BF1436012000ED00E096
:108AAC00154B9A6A12F0007F9A6A14BF1E201D2083
:108ABC0012F0807F9A6A18BF1F2012F4801F9A6AE6
:108ACC0018BF022012F4002F9A6A18BF212012F44A
:108ADC00802F9A6A18BF222012F4003F9A6A18BF9E
:108AEC00232012F4803F9A6A18BF24206FEA0242B6
:108AFC006FEA12429A62704700ED00E010B5194B14
:108B0C000246986A9C6A10F4805F14BF17201620E6
:108B1C0014F4006F9C6A18BF1820A40509D5986B33
:108B2C00986A000404D51AB19A6A22F400429A6237
:108B3C0019200C4B9A6A12F4806F9A6A18BF1A208B
:108B4C00D2050CD49B6A13F4005F18BF1C20054A95
:108B5C00936A43F47F43936200230B7010BD1B2078
:108B6C00F5E700BF00ED00E010B51C4B0246986A1B
:108B7C009C6A10F0100F14BF1120102014F0080F75
:108B8C009C6A18BF1220A40709D5586B986A000676
:108B9C0004D51AB19A6A22F080029A6213200F4B04
:108BAC009A6A12F0010F9A6A18BF142012F0200F63
:108BBC009A6A18BF1520D40658BF9B6A074B9A6A4D
:108BCC00920642BF5A6A22F400525A629A6A42F0E2
:108BDC00FF029A6200230B7010BD00BF00ED00E095
:108BEC00F0B54A4B04465B6800258BB0C3F3080311
:108BFC0085F31188BFF36F8F02F07F40B0F17F4F88
:108C0C0016D1D60714D4550603D4100704D4012565
:108C1C0004E012F0040200D00C4600250022033BB5
:108C2C008DF80720032B05D8DFE803F02462665F7C
:108C3C002C46F3E700239DF80720CAB902AE04F1D5
:108C4C002007324620686168083403C2BC421646CD
:108C5C00F7D1099A002D53D0C2F3080121B96FEA5C
:108C6C0052226FEA42220992184602A903F02AFE08
:108C7C000BB0F0BD254BDA6A9107DBD4DA6A002A17
:108C8C00D8DBDA6A5200D5D55A69A16942F48072F0
:108C9C005A61BFF34F8FBFF36F8F5A6931F8021CC3
:108CAC0022F480725A61BFF34F8FBFF36F8F4DF672
:108CBC000272914201D12368BDE79A6AD2B232B1F5
:108CCC0001200DF10701FFF74FFF0346B3E79A6A46
:108CDC0012F47F4F05D001200DF10701FFF70EFFB5
:108CEC00F3E79B6AB3F5803FA4D3FFF7D9FEECE71B
:108CFC0000200DF10701E6E700200DF10701EDE77B
:108D0C0022F4FF7222F00102ADE700BF00ED00E09B
:108D1C00064B5A6942F010025A615A6942F4806259
:108D2C005A615A6922F008025A61704700ED00E05E
:108D3C00EFF30880EFF3098101B57246FFF750FF9E
:108D4C0001BD00BF002080F31488BFF36F8F00209B
:108D5C0080F30A8880F30B880F4880F3088801F0B1
:108D6C00B5F900200D490860BFF34F8F00F02CF8C7
:108D7C00202080F311880A484FF40061401880F3DA
:108D8C000988EFF314800221084380F31488BFF3A1
:108D9C006F8F00F0DFF80000884B012094ED00E0AD
:108DAC00483E0120002318460649D1F89020C2F312
:108DBC000722934200DB7047C1F89830C1F8A0003D
:108DCC000133F6E700ED00E010B572B6002484F331
:108DDC001388FFF7E7FF23464FF0FF300C4A03F1EF
:108DEC0020010133102B42F82100F8D100234FF061
:108DFC00FF30074A03F160010133102B42F82100C8
:108E0C00F8D162B6BFF34F8FBFF36F8F10BD00BFA9
:108E1C0000E100E0084B9B6883420BD1EFF3058324
:108E2C0043B1064B5A6842F080525A605A6A22F497
:108E3C0000425A6202F0B0BE1436012000ED00E090
:108E4C0018498A6882F88DE04FF030001044EFF337
:108E5C00098C80E8F01F202080F31288BFF36F8FFD
:108E6C00114F4FF000664A698A603E60D2F880006C
:108E7C000E4C206092F98DE0D2F884000023C2F8E9
:108E8C00843080F3118802F1300090E8F01F8CF3ED
:108E9C00098802F1000004B503F02BFDBDE8044085
:108EAC00704700001436012004ED00E0E833012087
:108EBC001EF0040F0CBFEFF30880EFF309808169FB
:108ECC0011F8021C0229FFD001B5724603F000FD17
:108EDC0001BD00BF00B2002807DB01234109034A92
:108EEC0000F01F00834042F82130704700E100E0A1
:108EFC00054B420953F82220012300F01F0003FA0E
:108F0C0000F01040704700BF00E100E000B2002804
:108F1C0001F10101ACBF00F16040064B4FEA411179
:108F2C00C9B2ABBF00F5614000F00F0080F8001330
:108F3C001954704714ED00E0044B054A23F07F03ED
:108F4C009360BFF34F8FBFF36F8F704700800400A7
:108F5C0000ED00E008B5FFF7EFFF074AD2F88830C4
:108F6C0023F47003C2F8883002F042F902F036FFA5
:108F7C0000F04AF802F07CF900ED00E042F8203CE9
:108F8C00009B0D4942F81C3C019B21F0010142F869
:108F9C00183C029B42F8081C42F8143C4FF08073BA
:108FAC0042F8043C0023C0F884304FF43C43203A90
:108FBC000265C0F88C307047CD87040000B50B4BB0
:108FCC0015469860D0F88020094B0E461A60036F46
:108FDC0083F30B882C4686F309880020054B9847B1
:108FEC002046002100220023034C20471436012088
:108FFC00E833012007C90400CD8704001022014B7F
:10900C001A61704700ED00E00023202040F20F129F
:10901C0010B5044CE1180133934281F80003F9D1E7
:10902C0010BD00BF00E100E008B5EFF30583064A70
:10903C00103B02EBC30152F8330049688847BDE886
:10904C000840FFF71DBD00BFB4D204001FB5094C8A
:10905C00094A23460121094800F0FAF8002303933A
:10906C00074B0121E41A01A80193029400F0FAF8CD
:10907C0004B010BD00F002200030012018DC040008
:10908C00E830012010B50C7A0B6804F01F0223F0B5
:10909C001F031A43CB68640923F01F03054943EAF5
:1090AC00440343F00103C1F89800C1F89C20C1F8B7
:1090BC00A03010BD00ED00E010B5074BD3F8903098
:1090CC00C3F30723013B984202D8FFF7DBFF10BD27
:1090DC006FF01500FBE700BF00ED00E02DE9F04F4D
:1090EC000F46144606464FF000084D4D85B0B84566
:1090FC0080F29280D6F80490B9F1000F36D0B9F115
:10910C001F0F40F2878019F01F0F40F08380D6F8B4
:10911C0000A01AF01F0F7DD1504603F011FC8346BE
:10912C0009EB0A00013803F00BFC834572D11BF1EB
:10913C00160F6FD05C456DDDC5F898B0D5F89C1056
:10914C00C5F898B0D5F8A03021F01F0143F01F0AE4
:10915C00D6E900321A44994202F1FF391ED1CA45B0
:10916C0008D131465FFA8BF003F0F3FB08F10108EC
:10917C000C36BCE73146C5F898B0D5F89C3022F0D7
:10918C001F0203F01F031343C5F89C30E0B203F039
:10919C00E0FB10F1160F3DD0441CE7E7C5F898B082
:1091AC00D5F8A020013B23F01F0302F01F0213434C
:1091BC00CA453146E0B2C5F8A030E8D003F0C9FB8F
:1091CC0010F1160F26D0C5F898B0D5F89C209DF854
:1091DC0008300AF1FF3A62F304038DF80830D5F831
:1091EC00A0309DF808205B0863F347128DF8082027
:1091FC00D6E900321344009323F01F035344A3EB2E
:10920C000903013023F01F036946C0B20393FFF733
:10921C0053FFBEE76FF01504204605B0BDE8F08F94
:10922C0000ED00E00522044BC3F89420BFF34F8FF0
:10923C00BFF36F8F704700BF00ED00E0BFF35F8F8F
:10924C000022024BC3F89420704700BF00ED00E0F1
:10925C0010B5034C2278FFF741FF207010BD00BF02
:10926C00403601202DE9F74F294D8A4606464FF02E
:10927C000008AB46274FD0451BDAD6F80490B9F15D
:10928C00000F3FD031680846019103F059FB01995A
:10929C00044609EB0100013803F052FB84424FF005
:1092AC0014021D4B08D002FB08F36FF015024BF8AB
:1092BC00032003B0BDE8F08F14F1160F2C60F8D02A
:1092CC001978A142F5DD02FB08B0C7F89840C7F841
:1092DC009840D7F89C4000F10801007B64F304002F
:1092EC000871D7F8A0000C79400860F347140C7192
:1092FC00D7F89C1021F01F016960D7F8A01021F05D
:10930C001F01296108F1010814350C36B3E700BFC1
:10931C00EC33012000ED00E040360120F0B541496E
:10932C00414CD1F890302568C3F307239D4287B098
:10933C0075D80020FFF782FF3C4BC1F8C030854246
:10934C0016D13B4C01A82570FFF762FB00250646A1
:10935C00384FAE4213D1002023783249D1F89020F7
:10936C00C2F30722934254DBFFF75CFF00202FE08F
:10937C00616801EB0011FFF785FE0130DFE7019911
:10938C00280101EB0513DA683A40B2F5001F21D031
:10939C00B2F5800F2BD0B2F5801F38D15A689B687C
:1093AC000958013B22F01F0003440120844623F09E
:1093BC001F0340EA4C10CDE902218DF8100002A9E0
:1093CC0020780593FFF778FE00281DDA6FF0150062
:1093DC0007B0F0BD5A689B680958013B22F01F008A
:1093EC0003444FF0020C012023F01F03E1E75A68FD
:1093FC009B680958013B22F01F0003444FF0000CFE
:10940C00062023F01F03D4E72378013323700135A2
:10941C009FE7C1F89830C1F8A00001339EE74FF0E8
:10942C00FF30D5E700ED00E024DC0400AAFF440087
:10943C00403601200000F0FF08B5024B1B6898472E
:10944C00002008BD00340120034B044A18609378B7
:10945C0043F00203937070470034012094300120D4
:10946C0008B50649064821F00701C1F1005202F582
:10947C003C3203F0E8F8002008BD00BF8F4B012000
:10948C0004340120024B034A00201A60704700BFCD
:10949C00B03001200020A10748B1054B054A1B68DC
:1094AC00B3FBF2F35843044B43F0010318477047E6
:1094BC00B030012040420F0000DC0400084B70B5B6
:1094CC00C31A0D4607499B100446594340220648CF
:1094DC0003F066FA2B4601462046BDE8704018475B
:1094EC0024340120B76DDBB614D20400402373B5CD
:1094FC000B4C0093041B0B460D460A49A410614308
:10950C000646094A094803F077FA011E05DA304687
:10951C002B4602B0BDE87040184702B070BD00BFCA
:10952C0024340120B76DDBB66FCA040014D20400DA
:10953C0010B5EFF31184202383F31288BFF36F8FE0
:10954C00074A136823F00201DB07116002D40120E3
:10955C0003F0DAFB84F31188BFF36F8F10BD00BFEB
:10956C007434012070B500220121044640F205102C
:10957C00FFF7CCFC0F4800F063FE0F4B984215D15F
:10958C0000F06EFE26690D49304603F012F90028F2
:10959C000BDB012535642469084904F11C0003F038
:1095AC0008F9002801DB0020E56470BD6FF00400B1
:1095BC00FBE700BF93CA04000000AD0B4CDC0400B9
:1095CC001FB500220123CDE902236B46084ACDF8D2
:1095DC0000D0CDF804D003F03DFA002805DB43F6AB
:1095EC0009520023684601F0A7FF05B05DF804FBA3
:1095FC008DCA04000C22104B014602FB00330020E4
:10960C0030B4D3E90E529863EFF31180202484F325
:10961C001288BFF36F8F1C6C04F0C00444F002047A
:10962C001C6480F31188BFF36F8F1DB12B4630BCC7
:10963C000248184730BC70472434012014D204006F
:10964C0010B4EFF31182202383F31288BFF36F8FD2
:10965C001648016841F002040460C80707D482F37D
:10966C001188BFF36F8F012010BC00F00FBE1049A2
:10967C00D1F80C14C903F2D5EFF3118083F31288DF
:10968C00BFF36F8F0B490B6C03F0C00343F0020365
:10969C000B6480F31188BFF36F8F82F31188BFF3D3
:1096AC006F8F002010BCFFF7A5BF00BF74340120E2
:1096BC0000E01040243401202DE9F041012207463E
:1096CC003449D1E8EF3FC1E8E02F0028F9D133B994
:1096DC00314932484B60CB608A6003F07DF87B1EC9
:1096EC00012B28D8012F06D12D4BD3F8503403F081
:1096FC000303012B1FD003F019FC0546E8B9294BD5
:10970C001B78D3B104220646254BC3F80823244CFE
:10971C00DFF89480D4F84C24D4F84C34D20315D50B
:10972C0003F00303012B01D0012F0FD165B386F396
:10973C001188BFF36F8FBDE8F081EFF31186202302
:10974C0083F31288BFF36F8F0125E0E7BDB130467C
:10975C0003F0E7F8D4F8403413F0FF03DAD1D4F86F
:10976C000821002AD6D0C4F80831D4F808312022B8
:10977C000123C4F84034C8F8A0212361CAE70021B2
:10978C00202002F0B1F9E5E70422054BC3F80423CD
:10979C00D1E700BF203401201034012040340120D7
:1097AC0000E010404336012000E100E008B5074816
:1097BC0003F078FB38B10648FFF746FE0448FEF785
:1097CC00E1FF002008BD6FF01200FBE794D204000B
:1097DC00E19704000A2838B50446074D04D1AB685C
:1097EC000D2128465B689847AB6803485B68E1B27B
:1097FC009847204638BD00BF94D204002DE9F043B1
:10980C0040F206354668D00648BF0320337B02EA97
:10981C00050558BFC2F3401087B001F01F07B5F51E
:10982C00837F144647EA43178DF8030045D00FD8C1
:10983C00062D44D007D8B5B1022D14D06FF0150009
:10984C0007B0BDE8F083B5F5807FF7D101250AE0BC
:10985C0040F20222954234D0B5F5407F33D0B5F5B5
:10986C00007FEBD1042522032FD5012372688B4096
:10987C005360326982BB5F2F07F01F034FEA571109
:10988C0077D83E4A52F8212084F4803102EB8302CF
:10989C00D2F88030C1F30041C4F3404423F4706328
:1098AC0044EA410423F00F031C4344EA800444EAD5
:1098BC000524C2F880400020C2E70925D3E708251B
:1098CC00D1E70625CFE70525CDE7630341BF01238B
:1098DC0072688B409360CCE71036394630460DF1F8
:1098EC00020201F005F914F4403F80460CD13946D0
:1098FC00304603F0CEFA224B9845DCD130469DF829
:10990C00021001F05FF9D6E74FF0000901AB3946C0
:10991C00304603AACDE90439CDE90199CDF80C9074
:10992C0000F058FF164B984288D114F4003315D030
:10993C009DF8033084F48034C4F300448DF80E3069
:10994C0039464B46304603AA8DF80C508DF80D4025
:10995C0001F02CF80A4B9842CDD06FE7CDE90433D7
:10996C0039460DF10303304603AA039300F032FF8E
:10997C00F0E7203352F82330FFDE00BF68DC040030
:10998C000000AD0B4209022A034670B503D0012A30
:10999C0018D0CAB170BD0E4E326951680029F9D089
:1099AC00012503F01F030C689D400029F2D08A6842
:1099BC002A4002D030464B6898473CB12368214678
:1099CC001C46F2E7034EE7E7034EE5E72346F6E7CE
:1099DC0074D2040054D2040034D2040038B5456863
:1099EC002B69E3B11035284601F0DEF80446B0B916
:1099FC000146284601F09AF80B4B984211D12246A9
:109A0C0028460A4901F066F822460121DA20FFF7C0
:109A1C007DFA224601214FF48670FFF777FA002079
:109A2C0038BD6FF00400FBE70000AD0B919904000A
:109A3C00F0B51646426801F01F04107B87B044EA6B
:109A4C0040141069002871D0B6F5001F02F1100502
:109A5C0006D12146284603F01EFA002007B0F0BDBF
:109A6C000027B6F5800F01A8019747603BD1B3F1F1
:109A7C00007F14BF052304238DF804300023CDE9A7
:109A8C000403039393680DF1030723FA01F111F01A
:109A9C0001013DD1B6F1A07F3AD104F01F035F2C38
:109AAC004FEA541003F1200346D8254A52F82020DF
:109ABC0052F82330DB072BD43A462146284601F0D6
:109ACC0017F8204B984219D002972146284603AA32
:109ADC0000F080FE1C4B98422BD1012221462846D7
:109AEC0001F080F8B9E7B3F1C06F05D0B3F1007F96
:109AFC0014BF01230223BFE70323BDE739462846E1
:109B0C0001F068F8104B9842DED06FF00B00A5E71F
:109B1C003A462146284600F0EBFF0B4B9842D4D135
:109B2C0028469DF8031001F04DF8CEE76FF0850044
:109B3C0094E76FF0150091E751F82330FFDE00BF7A
:109B4C0068DC04000400AD0B0000AD0B036803F0EF
:109B5C001F025F2B02604FEA53129ABF024B53F85D
:109B6C0022000020704700BFBCDC04002DE9F04F40
:109B7C001546074640F2FF19DFF864A1DFF864B11F
:109B8C0085B000EB8101B94203D1002005B0BDE8DE
:109B9C00F08F3B68C3F3C322082AC3F3080400F216
:109BAC009B804C4508BF4FF0FF34B3F1D05F1AF8DF
:109BBC0002804FEA136210D2192A10D8DFE802F0A3
:109BCC0012181F5A22285A0F0F0F0F0F0F0F0F0FBB
:109BDC000F0F0F0F0F0F5D707376382A69D06FF06F
:109BEC008500D3E7C5F80446631C4FD10437CAE798
:109BFC00C5F80C46621CF9D00026324616E0C5F8B2
:109C0C001046F1E7661CC5F80046EFD0002604E0CC
:109C1C00601CC5F80446E9D0012603A80394FFF79D
:109C2C0095FF0122039B02FA03F383603B680394C4
:109C3C0003F40040002818BF002203A818BF012617
:109C4C0001930092FFF782FF039C019B00EB8400C1
:109C5C00D0F88040C3F3412C009A4FEA082343EA22
:109C6C008C03134304EA0B04234343EA4603C0F872
:109C7C008030BBE7C5F80846BCE7C5F86045621CF8
:109C8C003B68B3D0C3F30043002BC5D0012603A817
:109C9C000394FFF75BFF039B06FA03F34360ACE707
:109CAC00C5F86445EBE7C5F86845E8E7C5F86C45C9
:109CBC00E5E703A80394FFF749FF039B00EB830040
:109CCC00D0F8803023F0E04343F08043C0F880307C
:109CDC00631C8BD0012690E76FF0150056E700BF90
:109CEC0031DE0400F0F0FCFF2DE9F04104460D4696
:109CFC00476803F01BF9A0B9274B1B788BB14FF0C9
:109D0C002008642663681B68D3F830318BBB0120B4
:109D1C0002F0F8FF013EF5D10021202001F0E4FE15
:109D2C00EFE72021EFF311831A4681F31288BFF37A
:109D3C006F8F60680068D0F8300120B983F3118808
:109D4C00BFF36F8FEEE77B6A00201D706368796A42
:109D5C001B68C3F83C170121C3F84017C3F8300146
:109D6C00D3F83001196582F31188BFF36F8FBDE80A
:109D7C00F081EFF311831A4688F31288BFF36F8FCB
:109D8C0061680968D1F830110029DCD183F311889E
:109D9C00BFF36F8FC0E700BF4336012070B5144688
:109DAC001D4602F06BFFA042A94113D30A4AD2E927
:109DBC000061A41B24F01F0365EB01009B1941EB10
:109DCC000001C2E90031640944EAC060BDE870409A
:109DDC0002F0E0B870BD00BF1032012010B50022B7
:109DEC000121E320FFF792F8174A0020D2F8183728
:109DFC0023F44033C2F8183700F0D2FF134B04465B
:109E0C00984208D10120124901F05AF8A04205D01D
:109E1C00104B984214D04FF0FF3010BD02F02EFFC3
:109E2C0067220D4B20F01F00C3E900010B4BC3E967
:109E3C0000010B4B02201A60FFF73EFC0020ECE700
:109E4C006FF00B00E9E700BF00200E400000AD0BE7
:109E5C00AC3001200200AD0B103201200832012081
:109E6C00A434012008B502F009FF054AD2E90032FA
:109E7C00C01A61EB0201400940EAC16008BD00BF95
:109E8C001032012037B5431C0CBF6FF0004420EAA0
:109E9C00E07402F0F3FE0D4BD3E90025801A61EB60
:109EAC0005032021C4FB0103402873F100042CBFDF
:109EBC0020F01F01002352184FF0010145EB030362
:109ECC000091034801F060F803B030BD103201205E
:109EDC00A43001200149024802F0E8BEAD9F040005
:109EEC00A83401202C4A00F00800136F072B2BD04C
:109EFC00132B1CD0052B3AD1526D12F4805F14BF7A
:109F0C001723162312F4006F18BF182312F4007FC6
:109F1C001EBF224B9B6B192312F4806F18BF1A23A0
:109F2C0012F4807F25D112F4005F18BF1C23CA697C
:109F3C0068BBC2F3080020B96FEA52226FEA4222D2
:109F4C00CA61184602F0BEBCD36DDA0713D49A0767
:109F5C0013D45A0713D41A0713D4DA0613D49A0657
:109F6C0013D413F0800F14BF2C232523DFE7002319
:109F7C00DDE71B23DBE72623D9E72723D7E72823B5
:109F8C00D5E72923D3E72A23D1E72B23CFE722F4E4
:109F9C00FF7222F00102D3E7A834012000ED00E0AB
:109FAC0000B5104B89B05A6AD86C00929A6A20F0AE
:109FBC0005000192DA6A694602921A6B03925A6B97
:109FCC0004929A6B0592DA6B06921A6C1B6D0792CF
:109FDC009B0748BF40F00400FFF784FF09B05DF811
:109FEC0004FB00BFA83401202DE9F041A2B00546C6
:109FFC000E461746984602F099FF70B9114B1B7824
:10A00C005BB14FF0FF324FF0FF330F4801F098F97E
:10A01C00044618B16FF0830510E00124684602F085
:10A02C0062FC424639463046289BA847054668469E
:10A03C0002F05AFC14B9044801F0FAF9284622B08F
:10A04C00BDE8F08143360120D4300120002300B557
:10A05C0089B0CDE9063303AB049304230390059335
:10A06C00A9B10B6806934B6807930223111E18BF06
:10A07C0001210848CDE9002140F2F53104AA00F095
:10A08C000BF80028B8BF012009B05DF804FB0123D0
:10A09C00ECE700BF0501004010B4B1F5004F029C85
:10A0AC000ED2042B0CD8042C0AD8240444EA0364E2
:10A0BC00134644EA0102014610BC0348FFF794BF63
:10A0CC006FF0800010BC7047A1040000034AD2F866
:10A0DC008C3043F44063C2F88C30704700ED00E0E4
:10A0EC0030B50468ACB1B4FA84F30122C3F11F0398
:10A0FC00DBB29A4024EA0202D0E8EF5FA54204D119
:10A10C00C0E8EC2FBCF1000FF6D1EAD102480B707D
:10A11C0030BD0248FCE700BF0000AD0B0200AD0BE8
:10A12C0010B50368CB40DB0710D401238B400268C9
:10A13C0043EA0201D0E8EF4F944204D1C0E8EC1F8F
:10A14C00BCF1000FF6D1F2D1014810BD0148FCE77B
:10A15C000000AD0B0400AD0BF7B5054648B3012864
:10A16C0025D104224FF48073712032490024C1F8A8
:10A17C000803012002F1804203F1804303F58713A9
:10A18C0002F5871210601C601B682B4BD3F8403310
:10A19C001C2B13D0854201D10DF10704002342F290
:10A1AC001076244F8DF8073065B1012D2ED003B0F9
:10A1BC00F0BD14224FF484730420D6E7012DEDD1A9
:10A1CC00CD60E9E7D7F84C3403F480336CB9002B3D
:10A1DC00EDD0012002F096FD013EF3D1E7E701201E
:10A1EC0002F090FD013EDFD1E1E7D7F84C2402F0FC
:10A1FC0003022270002BDAD09DF80730002BEED032
:10A20C00012DD4D100220D4B5A71D0E7D7F80C3464
:10A21C0003F480333CB9002BF4D0012002F072FD22
:10A22C00013EF3D1C3E7002B0CBF012300232370A5
:10A23C00E2D1E7E700E0104000C0FF001C35012030
:10A24C00044B1A7922B9012218601A71024870471E
:10A25C00024870471C3501200000AD0B0C00AD0B03
:10A26C0008B5084B1B6843B140F20510FEF740FEE1
:10A27C0018B940F20510FEF72DFE0022024BC3F870
:10A28C00402408BD1C35012000E0104010B510B171
:10A29C00012845D010BD324BD3F84C14D3F84C24C4
:10A2AC00C80324D502F00303012B04D013B1002002
:10A2BC00FFF752FF00232A4A0420C2F84034102230
:10A2CC004FF48473002103F1804303F58713196065
:10A2DC001C68012402F1804202F587121460214AA5
:10A2EC001268002A36D01E4BC3F80403D2E7D3F809
:10A2FC004824D107DED5D3F850249207D7D4194A75
:10A30C0012681AB10422C3F80423C3E7D3F8082156
:10A31C00002AFBD00022C3F80821D3F80831B9E792
:10A32C0000220F4BC3F81021D3F81011C3F81821D9
:10A33C00D3F81811C3F81421D3F814210A4AD2F80F
:10A34C0040231C2A04D000224FF480737120B9E7FB
:10A35C009860F8E71A68002AFCD019601B6899E726
:10A36C0000E010401C35012000C0FF0070B5002536
:10A37C001E4C1F4ED4F80C3303B970BDB3FA83F3E3
:10A38C00C3F11F039A0002F5807292B202F180426F
:10A39C0002F58712156012680122D8B202FA03F393
:10A3AC00DBB2102BC4F8083311D0402B1BD0042B7C
:10A3BC0016D1D4F84C14D4F84C14890710D1C4F825
:10A3CC004024C4F804332261D4F80C33D4E70223BC
:10A3DC007371C4F81451D4F814312023C4F8043325
:10A3EC0033689847F0E77571FAE700BF00E010405A
:10A3FC001C350120036803F01F025F2B02604FEA3B
:10A40C0053129ABF024B53F822000020704700BF32
:10A41C001CDD0400034A4309D35C00F01F00184400
:10A42C00C0B2704745DE040070B505460846FFF71C
:10A43C00F1FF3C212A79184B01FB0202083233F858
:10A44C001200C10526D578240026C0F3432120F440
:10A45C00F85023F812002A7904FB02340E3434F835
:10A46C00020F10F4807F03D0C0F34320814211D03F
:10A47C000136232EF3D10020C2EB02120A4443F81A
:10A48C00320078202A79BDE8704000FB0230603041
:10A49C00FFF746BE70BD00BF24350120F0B506465F
:10A4AC00002487B0114F019117F8012B06AB03EB79
:10A4BC00D20313F8143C02F00702D34013F001034B
:10A4CC0006D10134032CEFD10023184607B0F0BDA0
:10A4DC00074A03AD07CA85E8070055F824100A6A35
:10A4EC0046F824200A62002AEBD0EEE755DE040081
:10A4FC00E0DB040010B504460846FFF78BFF3C2355
:10A50C0003FB0400024B083033F81000400B10BD65
:10A51C002435012010B504460846FFF77BFF3C2389
:10A52C0003FB0400034B083033F81000C0F3400069
:10A53C0010BD00BF2435012010B504460846FFF7B6
:10A54C0069FF3C2303FB0400034B083033F8100075
:10A55C00C0F3401010BD00BF2435012078232DE935
:10A56C00F04F6F4C0E460C1BB4FBF3F4D0F80413F5
:10A57C00DFF8B0B1C9B28BB041F480315BF8342054
:10A58C00009002F03AFCC103054638D50023E700E1
:10A59C000BEBC404CDE907330993636807A819468C
:10A5AC000193FFF77BFF3B1D03934FF0000A5E4BBB
:10A5BC000DF11C090293029A12F8013B0292039AC4
:10A5CC0002EBD3021BF8022003F0070322FA03F379
:10A5DC00DA071AD40AF1010ABAF1030F09F10409D6
:10A5EC00E9D14FF480310022009802F006FC019969
:10A5FC0007A8FFF753FF0028D7D125F48035012495
:10A60C00002D76D10BB0BDE8F08F484B534404932A
:10A61C00D9F800100029DDD091FAA1F1B1FA81F13D
:10A62C00049B1C7841EA44142046FFF7F3FE0830E3
:10A63C0036F81080C8084FEA98030593012319F8DF
:10A64C00002001F0070103FA01F122EA010209F8E6
:10A65C00002006A80694FFF7CDFE069A059B203233
:10A66C0050F82220C8F382075B07B846C2F30142B8
:10A67C0023D53046D7B22146424602F09FFB06A8AE
:10A68C000694FFF7B7FE069B203350F82330C3F334
:10A69C0001439F4207D10021204602F080FB39463E
:10A6AC00204602F07CFB06A80694FFF7A3FE0122CD
:10A6BC00069B02FA03F30362AAE7022A0DD10321D7
:10A6CC00204602F06CFB07F00503012BEBD1424650
:10A6DC002146304602F072FBE5E702212046059246
:10A6EC0002F05DFB032FF2D0059A032ADBD1022F77
:10A6FC00ECE795FAA5F3B3FA83F3009904FA03F2A5
:10A70C0025EA020503F5A27251F8222006EB430359
:10A71C003046B3F86410C2F3014202F04FFB6FE70E
:10A72C002435012028DD040055DE040055DE04002C
:10A73C002DE9F74305460846FFF76CFE3C222B79C2
:10A74C00204F02FB0303083337F813300E46DB07A8
:10A75C00044635D5284602F077FB95F8049031462F
:10A76C004846FFF7E9FE60B14846FFF7C3FE0022FA
:10A77C00D5F8008000B208EB8003C3F81025C3F8AD
:10A78C00102528463146FFF74FFE3C222B7901A8B5
:10A79C0002FB03440023083427F814300196FFF71A
:10A7AC0029FE019B00EB8300D0F88020064B134060
:10A7BC0043F00203C0F88030044803B0BDE8F083D6
:10A7CC000348FAE724350120F0F0FCFF0000AD0B44
:10A7DC000400AD0B2DE9F04F9046044685B00846B9
:10A7EC00FFF718FED8F800900F4606462579B9F108
:10A7FC00000F23D02846FFF78DFE18B12846FFF72F
:10A80C009BFE58BB00230DF10F02CDE900338DF8F0
:10A81C000E308DF80F300DF10E014B46384602F01C
:10A82C0075FA3C2303FB05635D49083331F81320AB
:10A83C0022F0020242F0010221F81320D8F8043071
:10A84C00002B3FD03946207993F80090D3F804A020
:10A85C00FFF760FE20B1BAF1000F26D0514835E069
:10A86C003C226A43DFF838E102EB060C0CF1080CD1
:10A87C003EF81C3023F02003DB04DB0C2EF81C30DC
:10A88C00BAF1000F11D0B9F1030FE7D8D8F80410C2
:10A89C002068496891F800A000EB8A00B9F1000F1C
:10A8AC0017D1C0F81095C0F810953C2303FB056533
:10A8BC003B4A083532F8153023F01C0343EA890370
:10A8CC0022F81530D8F8083063BB374805B0BDE81E
:10A8DC00F08FD0F810B552442BF0030BC0F810B524
:10A8EC00206843EA4A3300EB8A01D1F810050EEBDD
:10A8FC00420220F4473020F47C70C1F8100541F678
:10A90C00F070D1F810B500EA071040EA094040EAAF
:10A91C000B0043F02003C1F81005A2F864702EF868
:10A92C001C30C2E73946D3E900852046FFF77CFD91
:10A93C00B8F1000FC9D078232079194F4343FA1886
:10A94C00FB58984504D153689D4201D100220CE07C
:10A95C00782303FB00700DF10F016030FFF7C0FB93
:10A96C00114B9842B2D19DF80F203C212379C3EBB7
:10A97C000313134447F833802379C3EB03131344B5
:10A98C0007EBC3035D60237901FB0363083337F8DE
:10A99C00131041EA422242F4807227F8132094E704
:10A9AC00243501200400AD0B0000AD0B2DE9FF4751
:10A9BC000546084617461E46FFF72CFD89460446F9
:10A9CC0087B395F804804046FFF7A4FD18B94046BC
:10A9DC00FFF7B2FD68BB3C2303FB0848DFF8E4A09B
:10A9EC0008F108083AF8183013F01C0F02D07B78E5
:10A9FC00012B1ED001238DF80F3000237A1CCDE9DA
:10AA0C0000734846BB1C0DF10F0102F07FF93C228C
:10AA1C002B7902FB034308333AF8132042F003026C
:10AA2C002AF81320002E4BD049462879FFF772FDE7
:10AA3C0018B9254804B0BDE8F08700214FF03C0C54
:10AA4C0030782B68820003EB8003C3F81015C3F831
:10AA5C0010152B791B490CFB0343083331F8137089
:10AA6C0027F4604727F0200721F8137077783FB35D
:10AA7C002B68B6781A44D2F810E5144B3F040EEA52
:10AA8C000303C2F8103541F6F07307F4403703EABC
:10AA9C0009133605D2F810E53B4306F48016334310
:10AAAC0043EA0E03C2F810352B790CFB034408342F
:10AABC0031F8143043EA403343F0200321F81430CA
:10AACC000348B7E7243501200400AD0B0FE0ECFF81
:10AADC000000AD0B30B578250479044B05FB04342C
:10AAEC00A160017905FB0133DA6030BD243501200A
:10AAFC0070B5067914463046FFF71EFD68B108465E
:10AB0C00FFF788FC3C2303FB0600054B083033F8A9
:10AB1C00103004485B0B237070BD0348FCE700BF8A
:10AB2C00243501200000AD0B0400AD0BF8B5064632
:10AB3C0007797820184D00FB075393F874404CBBF1
:10AB4C00184646222146103002F0B9FA3179134AE0
:10AB5C00336852F8316021468E4211D10022C3F382
:10AB6C000830C3F84021D3F84021FEF7B3F978231D
:10AB7C0003FB075501230A4885F874302B66F8BD92
:10AB8C00CAB2920002F58070402A04BF1C501A58B9
:10AB9C000131E1E70348F2E72435012028DD040008
:10ABAC000000AD0B0C00AD0B78210279044B01FBBE
:10ABBC00023393F87400003818BF0120704700BFAF
:10ABCC00243501200079024B03EB8000FFF7A8BA73
:10ABDC00B43001200079024B03EB8000FFF780BA00
:10ABEC00B43001202DE9F74390F804900446484610
:10ABFC001746FFF7A1FC0D46266800B34846FFF741
:10AC0C0089FC8046D8B94846FFF774FC05B2AD0004
:10AC1C0005F5807246F802802168B2582944D1F8B3
:10AC2C00102542F00102C1F810252FB10122216834
:10AC3C0002FA00F3C1F8043303B0BDE8F083D6F890
:10AC4C0004332846DB035CBF4FF48033C6F804336F
:10AC5C00FFF7E0FB3C22237902FB03000E4B08308C
:10AC6C0033F81030C3F38203042B11D0052B11D011
:10AC7C0001A80195FFF7BEFB019BC168D94001F00B
:10AC8C0001010231284603B0BDE8F04302F087B859
:10AC9C000321F7E70221F5E7243501200149024899
:10ACAC00FFF75CBC2435012000A00D40014902488F
:10ACBC00FFF754BC9C35012000C0104010B5002497
:10ACCC00037A0D49CA181B0103F1804303F5622373
:10ACDC0092F85420C3F82C450C2303FB0213046890
:10ACEC00DC6042681A610122007A18758B68824018
:10ACFC0013438B6010BD00BF00300120074B027A5C
:10AD0C00D3F8101521F001010A43C3F8102502688D
:10AD1C00C3F8A4264268C3F8AC26704700200E4046
:10AD2C00012303FA00F010F0670F0AD0064B5B68A2
:10AD3C00DB4303F067030342044B054818BF184676
:10AD4C0070470448704700BF003001200000AD0B75
:10AD5C000400AD0B0800AD0B2DE9F048EFF31181A9
:10AD6C00202383F31288BFF36F8F4FF0FF356FF002
:10AD7C004044094ED6E900BC5D4574EB0C07F9D391
:10AD8C00CCF31303C0E900B381F31188BFF36F8FC9
:10AD9C000248BDE8F08800BF30270E400000AD0B24
:10ADAC00F0B53C4D85B02C78002C6FD13A4A01ABF4
:10ADBC0007CA83E8070039491846D1F8102522F054
:10ADCC000202C1F81025FFF799FF0723672202F052
:10ADDC0001012144013BCCB24FEA5202F7D1052CC0
:10ADEC0056D119464FF0010C2A4E00246720CFB2E1
:10ADFC0004E00CFA02F220EA0200013490FAA0F20C
:10AE0C005FFA84FEBE45B2FA82F2F2D3013132759A
:10AE1C0005292A4482F8547006F10C06E5D101216B
:10AE2C0000241F489A0801FA02F212F0670F18BFAB
:10AE3C001C500433302BF5D1E320FEF74BF8174BA5
:10AE4C001849D3F8102503F5C07322F00202C3F899
:10AE5C00902340F6FF72C3F8982100221A60A3F5E4
:10AE6C00807004338B420260F8D101240B4B0E4AE4
:10AE7C001C660E4B5D201B68B3FBF2F358430C4B66
:10AE8C00234398470B482C7005B0F0BD0A48FBE7EC
:10AE9C000A48F9E700300120ECDB040000200E40EA
:10AEAC0000210E40B0210E4040420F00B030012076
:10AEBC0010DC04000000AD0B0C00AD0B0100AD0B61
:10AECC0073B52A4C054663680E4603F0010304F182
:10AEDC00140101A80193FFF703F9254B98423DD1CA
:10AEEC0000233370636823F001036360A36843F0AD
:10AEFC000103A3601F4BD3F81025960732D4D3F867
:10AF0C00102542F00202C3F81025C5B1D3F838273A
:10AF1C0012F0010202BFD3F8381741F00101C3F857
:10AF2C003817144BD3F83017D3F834174C00F9D426
:10AF3C002AB9D3F8382722F00102C3F838270E4B70
:10AF4C000E4A1B68B3FBF2F30A4A03EB43135BB1E3
:10AF5C00D2F83017D2F83417490001D402B070BDC2
:10AF6C00013BF4E70648F9E70648F7E70030012013
:10AF7C000000AD0B00200E40B030012040420F000D
:10AF8C000C00AD0B0700AD0B2DE9F0410446007A27
:10AF9C001D46FFF7C5FE1E4B9046984206469DF88F
:10AFAC00187031D12046FFF789FEEFF31180202372
:10AFBC0083F31288BFF36F8F227A164B92001344DF
:10AFCC0000221A60217AC5F31305090101F18041B1
:10AFDC0001F56221C1F82085C1F8245580F3118850
:10AFEC00BFF36F8F87B10123227A0B4903FA02F268
:10AFFC00D1E8EF5F1543C1E8E05F0028F8D1227A71
:10B00C009340064AC2F814333046BDE8F08100BFC5
:10B01C000000AD0B00210E408830012000200E40B6
:10B02C00F7B5284B284CD3F81C6304F188070EB9EC
:10B03C0003B0F0BD96FAA6F00123B0FA80F083407D
:10B04C00DA43224926EA0306231893F85450830066
:10B05C0019440C2303FB0543DB6873B3D7E8EF3FBC
:10B06C0003EA020CC7E8EECFBEF1000FF6D1C340E5
:10B07C00DB0719D5020102F1804202F56222D2F8F7
:10B08C002435D2F82025D1F800C0BCF1000FCED069
:10B09C004FF0000CC1F800C00C2101FB05452969DB
:10B0AC000091E9688847C2E705F10C0304EBC30C77
:10B0BC0054F83320DCF80430E5E70A68002AB6D0EF
:10B0CC000B60B4E700200E400030012000210E4040
:10B0DC0038B5EFF31185202383F31288BFF36F8FFC
:10B0EC00064B9C6801F0F1FE85F31188BFF36F8F5E
:10B0FC002046BDE83840FDF78DBE00BF1436012058
:10B10C0038B50A4B53F82040013053F82050A54273
:10B11C0000D838BD606830B1037FDB0701D401F083
:10B12C00D7FE0834F3E723689847FAE738DD0400C4
:10B13C00012270B5294B032086B01A70FFF7E0FF8F
:10B14C00FDF76CFC0420FFF7DBFF254C254D264654
:10B15C00AE4204F1300410D300F0F6FB204C224E2A
:10B16C00AC4226D300F004FC01F099FF1F4A137B7C
:10B17C0023F00103137306B070BD54F80C3C059317
:10B18C0054F8103C049354F8143C039354F8183CB2
:10B19C00029354F81C3C019354F8203C009354E95E
:10B1AC000A2354E90C0100F0EDF954F8303C5E65CB
:10B1BC00CDE7D4E90A23B3F1FF3F08BFB2F1FF3F5B
:10B1CC0005D052EA0301206803D100F0BBFC3034F7
:10B1DC00C6E73146183000F04BFEF8E74336012045
:10B1EC0030DB040090DB04001DD00400A8320120E9
:10B1FC0008B50348034A0021121A01F080FE08BD6D
:10B20C00E830012048360120902370B5134E0122FE
:10B21C0003FB0066002386B0CDE904230F220193C3
:10B22C00CDE9023214234FF4A0720D4D0D4903FBEE
:10B23C000055044602FB00110B4B3046009500F004
:10B24C00A1F9737B2C7423F004037373074B013443
:10B25C0003EBC423EE606B6006B070BD18320120A6
:10B26C00143601204846012013CF0400483E01202B
:10B27C00BFB50020FFF744FF294B03F5006282F3B2
:10B28C00088883F30A880024E023264D264F85F88E
:10B29C002230EC772C766C76AC7685F820406B6A95
:10B2AC0043F4E0236B6285F82340FDF731FDFDF795
:10B2BC00A5FE4FF0FF33AB62EB62FEF72FF8FDF704
:10B2CC00C5FE1A4800F09EF901F0EBFD0120FFF7D6
:10B2DC0017FF0220164DFFF713FF00F07DFB154BF7
:10B2EC0015495D61154B4FF4806205930123284687
:10B2FC00CDE90343CDE901443B46009400F042F90B
:10B30C0006466A7B284622F004026A7301F04EFE60
:10B31C002046FFF779FF3A4631462846FDF74EFEA8
:10B32C00483E012000ED00E03DB10400383301201F
:10B33C00A8320120143601208847012058DE040071
:10B34C002DE9F341044617461E46EFF311882023DE
:10B35C0083F31288BFF36F8FC368334A7BB1806865
:10B36C009168884219D057EA060318D188F31188DE
:10B37C00BFF36F8F6FF00F0002B0BDE8F0819168E2
:10B38C0091F90E100133E36093682161A36088F397
:10B39C001188BFF36F8F0020EEE72169F2E791F976
:10B3AC000E1090F90E306FF07E029942A8BF19462C
:10B3BC009142B8BF11468B422DDD01F0AFFD054621
:10B3CC0022464146CDE90076184800F003FA0028E1
:10B3DC00E1D0EFF31186202383F31288BFF36F8F34
:10B3EC00A068D0B1236821699C420AD04BB193F973
:10B3FC000E309942A8BF19466FF07E039942B8BF30
:10B40C00194601F08BFD40B13146084800F076FA40
:10B41C006FF00A00B0E70025D2E7002DF4D186F3D7
:10B42C001188BFF36F8FF3E71436012044360120E7
:10B43C00F8B583680546002B40D0234A92689342A6
:10B44C003FD1C368012B03D9013BC3600020F8BD79
:10B45C00EFF31187202383F31288BFF36F8F0169F9
:10B46C00806801F05BFD2C68A54207D10023C5E97B
:10B47C00023387F31188BFF36F8FE7E7002CF5D009
:10B48C00D4E90032002613605A60637BC4E900667D
:10B49C0023F002036373A66004F1180001F0D3FDDE
:10B4AC00AC6094F90E3020462B61C4F8886001F032
:10B4BC007DFD3946054800F021FAC7E76FF015000D
:10B4CC00C5E74FF0FF30C2E71436012044360120A7
:10B4DC0070B5EFF31186202383F31288BFF36F8FBF
:10B4EC000468A0421BD0D4B1D4E90032002513600B
:10B4FC005A60637BC4E9005523F002036373A560B3
:10B50C0004F1180001F09FFD2046C4F8885001F0AA
:10B51C004DFD3146BDE87040064800F0EFB9D0E96A
:10B52C0002329A4218BF0133836086F31188BFF34D
:10B53C006F8F70BD4436012013B5EFF311812024B9
:10B54C0084F31288BFF36F8F846844B1013C84602C
:10B55C0081F31188BFF36F8F002002B010BD52EA47
:10B56C00030406D181F31188BFF36F8F6FF00F00C6
:10B57C00F3E7CDE900230246014800F02BF9ECE794
:10B58C00443601202DE9F043984685B000F158036C
:10B59C00C0E91633109B002503730423073222F0F5
:10B5AC00070643730F9B01EB06090F46837349464D
:10B5BC00C0E906558560C5730446FDF741FA0E9B3C
:10B5CC00073020F00700A067C4E91C7602930D9B9E
:10B5DC00A9EB000901930C9B4A460093394643465C
:10B5EC002046FDF7CBFC064B65659B6884F86C50D8
:10B5FC0003B1DB6F4846E36705B0BDE8F08300BFDD
:10B60C001436012040F2011383810023C0E91C335E
:10B61C00C367014B98607047143601206FF00A0124
:10B62C00094A9368C3F888100849C3F884004B682A
:10B63C0043F080534B60002383F31188BFF36F8F6B
:10B64C009368D3F8880070471436012000ED00E0B1
:10B65C0070B590F90D20437B002A36DBD90634D126
:10B66C001B4C63F07F032246437352F8183FE16989
:10B67C00934207D1C0E900210860E06111E09942D2
:10B68C00F8D01B68002BF5D090F90E5093F90E6092
:10B69C00B542F4D0AE42F2DD5968C0E90031086021
:10B6AC005860A569954200D005B9E568A3685A7B36
:10B6BC00D20604D1DA897F2A01D9AA6932B1AB4208
:10B6CC0002D0284600F032FB656170BD6361FCE777
:10B6DC001436012038B590F90D200146002A437B21
:10B6EC0004DA03F07F03437301F026FC0D4D2A4668
:10B6FC0052F8184FAB68944200D004B9EC688B42F6
:10B70C0007D05A7BD20604D1DA897F2A01D9A269E3
:10B71C002AB1A34202D0204600F008FB23466B61FD
:10B72C0038BD00BF14360120B3F1FF3F08BFB2F1A2
:10B73C00FF3F03D00249183000F09ABB704700BF9E
:10B74C001DD0040070B590F90D200146002A437BF2
:10B75C0004DA03F07F03437301F0EEFB1C4C4B7BCC
:10B76C00224663F07F034B7352F8183FE069934213
:10B77C0007D1C1E900200160E16111E09842F8D0E5
:10B78C001B68002BF5D091F90E5093F90E60B54261
:10B79C00F4D0AE42F2DD5868C1E900300160596066
:10B7AC00A569A368954200D005B9E5688B4207D01E
:10B7BC005A7BD20604D1DA897F2A01D9AA692AB127
:10B7CC00AB4202D0284600F0B1FA2B46636170BD43
:10B7DC0014360120F8B5DDE906670D4B0C46986868
:10B7EC0011460C4A1060EFF31182202282F312886A
:10B7FC00BFF36F8F9D68284601F0B0FB2846324698
:10B80C003B46FFF791FF2046BDE8F840FFF706BF27
:10B81C001436012034360120F8B50446EFF31187B5
:10B82C00202383F31288BFF36F8F437B49B203F05D
:10B83C001F02002A0CBF0126002639D103F07F031A
:10B84C002D4D437301F078FB2A46437B817363F0E3
:10B85C007F03437352F8183F934227D1E869C4E938
:10B86C0000200460EC610FE09842F8D01B68002BBC
:10B87C00F5D093F90EC06145F6D08C45F4DD5968CE
:10B88C00C4E900310C605C60AC69944200D004B92E
:10B89C00EC68AB689C4202D0204600F047FA6C6121
:10B8AC0087F31188BFF36F8F3046F8BDE869DEE788
:10B8BC009B071ED5856801F03FFB81732B689D4269
:10B8CC0009D16B68C4E900531C606C60E8E76A68D6
:10B8DC009342F6D01B68002BF3D093F90E209142C3
:10B8EC00F5D08A42F3DD5A68C4E9003214605C601A
:10B8FC00D6E78173D4E700BF1436012049B9EFF3C2
:10B90C00058030B9054B5A699B689A4201D0FFF704
:10B91C0085BE81F31188BFF36F8F704714360120F9
:10B92C00034648B9EFF3058232B9064A5169926869
:10B93C00914201D0FFF772BE83F31188BFF36F8F72
:10B94C00704700BF14360120EFF31181202383F3DD
:10B95C001288BFF36F8F054B9A68D37B013BD3736F
:10B96C0081F31188BFF36F8F704700BF143601202D
:10B97C0070B5EFF31186202383F31288BFF36F8F1A
:10B98C00144DAB68DA7B0132DA732A4652F8184F41
:10B99C00944200D004B9EC685A7BD20604D1DA89FF
:10B9AC007F2A01D9A2692AB1A34202D0204600F015
:10B9BC00BDF923466B6186F31188BFF36F8FEFF3EC
:10B9CC001180202383F31288BFF36F8FBDE8704082
:10B9DC00FFF7A6BF14360120024B03F11802C3E98E
:10B9EC00062270471436012070B5EFF31186202320
:10B9FC0083F31288BFF36F8F1B4CA168E0690B684F
:10BA0C00814214BF1A46002249680B605960A36832
:10BA1C00E1692AB9154AC3E900210B60E3610CE026
:10BA2C0093F90E0092F90E50A84218D0854216DDFB
:10BA3C005168C3E900210B605360A5690B4B9D4213
:10BA4C0000D005B9E568A3689D4202D0284600F0F5
:10BA5C006DF965613046BDE87040FFF7DFBD8A4285
:10BA6C00D8D01268D5E700BF143601202C3601203F
:10BA7C00F8B550EA010306460C4603D1FFF7B4FFB4
:10BA8C000020F8BDEFF31187202383F31288BFF356
:10BA9C006F8F124D124BA8681860FFF71BFEA86839
:10BAAC00234632460F49183000F0E2F9AA680446E2
:10BABC00537B384643F004035373FFF7AFFDAB6879
:10BACC00D3E90A23B3F1004F08BF002AD8D101F003
:10BADC00E2FA201A20EAE070D3E700BF1436012006
:10BAEC00343601201DD0040038B504460D46FFF74E
:10BAFC00BFFFB5F1FF3F08BFB4F1FF3F0246204640
:10BB0C0018D000234FF47A7447F611201946C2FB63
:10BB1C00040147F61222904271F100020BD3084B3C
:10BB2C00834243F608538B4107D347F61222002376
:10BB3C00FCF79EFC38BD1846FCE76FF00040F9E7B7
:10BB4C00ED85FFFF38B50446EFF31185202383F311
:10BB5C001288BFF36F8F437B5B070FD5183001F052
:10BB6C0072FA637B204623F004036373FFF770FDC6
:10BB7C002946BDE838400448FFF7C0BE85F311885C
:10BB8C00BFF36F8F38BD00BF44360120014B98685E
:10BB9C00704700BF143601202DE9F8430446077B9B
:10BBAC00EFF31185202383F31288BFF36F8F437B50
:10BBBC00190705D585F31188BFF36F8FBDE8F8839E
:10BBCC00D90943F008025AD14273A36813B1204635
:10BBDC0001F0BAF904F1180001F035FAA66D04F180
:10BBEC005808B04511D04FF0000976B1304601F03D
:10BBFC00ABF906F1180001F026FA3046C6F8889029
:10BC0C00FFF726FDA66DB045EFD1DFF8B880D8F868
:10BC1C0008309C423BD1EFF30589B9F1000918BFFC
:10BC2C004FF00109D8F81860274A964200D00EB997
:10BC3C00D8F80C60B34202D0304600F077F8C8F860
:10BC4C001460B9F1000F02D02048FFF7DBFCD8F8E4
:10BC5C0008309C4231D1EFF3058373BB227BD207B2
:10BC6C0018D42846FFF7DAFCFB07A7D5002383F38B
:10BC7C001188BFF36F8F0423184602DF9EE703F091
:10BC8C007F0343F00803437301F056F99DE74FF02F
:10BC9C000009C7E785F31188BFF36F8F83F3118811
:10BCAC00BFF36F8F0423184602DFEFF311802023BC
:10BCBC0083F31288BFF36F8FD4E785F31188BFF33A
:10BCCC006F8FD1E7143601202C3601203833012038
:10BCDC000122044BC01A044BC0105843034B1A5496
:10BCEC00704700BFC8330120ABAAAAAA4436012072
:10BCFC00C3897F2B12D80A4B1B6863B1094B90F98F
:10BD0C000E201B689A4209DB437BDB0606D1064BEF
:10BD1C00C31A18BF012303F0010070470023FAE790
:10BD2C00BC300120383601201832012070B50E4B82
:10BD3C000E4C1E7C054606EB460304EBC304204662
:10BD4C0001F081F900220A4B28469A55FFF7D0FFE3
:10BD5C0048B1084B2046BDE870401A680649013AC4
:10BD6C00D31700F085B870BD14360120C8330120FC
:10BD7C0044360120BC300120DDBC040038B5EFF3A3
:10BD8C001185202383F31288BFF36F8F104B114A58
:10BD9C009C681068A04206D1FFF7C8FF85F3118894
:10BDAC00BFF36F8F38BD00211B7C11600A4AD35C36
:10BDBC00002BF3D02046FFF79BFF0028EED0637BCF
:10BDCC00DB0602D12046FFF7BDFC2046E4E700BFAE
:10BDDC00143601203436012044360120074808B5BA
:10BDEC00074A0849121A01F08CF8BDE808400648C9
:10BDFC00064A0749121A01F084B800BF003001202E
:10BE0C00E83001206CDE04000030012000300120FD
:10BE1C006CDE0400024B1868984208BF0020704783
:10BE2C00C0300120034B1B680BB9FEF71BB8002078
:10BE3C00704700BF3C36012030B570B10B4B5B68CE
:10BE4C0098420AD0036843B1D3E90421D0E90445F0
:10BE5C00121941EB0501C3E90421D0E9003213604A
:10BE6C005A600023C0E9003330BD00BFC030012050
:10BE7C00B3F1FF3F08BFB2F1FF3F2DE9F84F044685
:10BE8C00994615461F467BD08160EFF3118820231D
:10BE9C0083F31288BFF36F8F013279F1FF33DFF830
:10BEAC00E8A020DBFFF7BEFFDAE90027013549F1F6
:10BEBC0000092D1849EBE07306464FF00109C4E95F
:10BECC000453AD1843EB0707FFF7A4FF0346DFF855
:10BEDC00BCE0DEF804A0EBB9C4E900EACAF8004003
:10BEEC00CEF8044028E06FF00103DAE900125B1A87
:10BEFC004FF0FF3161EB02025B1B62EB0902012B7D
:10BF0C0072F10001BCBF012300224FF00009C0E90F
:10BF1C000432D9E7D3E9041CD4E904208A4270EB3B
:10BF2C000C0B24DA891A5A686CEB0000C3E9041074
:10BF3C00C4E9003214605C60FFF76CFF84420ED1E0
:10BF4C00134B1B685BB9B9F1000F02D1FFF76AFF05
:10BF5C000646304601F060F80021FDF793FF88F3A8
:10BF6C001188BFF36F8F28463946BDE8F88F521AF7
:10BF7C0060EB0C009A45C4E90420ADD01B68AAE71D
:10BF8C0000252F46EFE700BFE0330120C030012031
:10BF9C003C3601202DE9F047EFF31185202383F384
:10BFAC001288BFF36F8FDFF8A0900026C9F800004D
:10BFBC000027FFF72FFFDFF89480D9F80030D8E97D
:10BFCC0000ECD91750B1D0E90442A34271EB020A3C
:10BFDC001BDAE41A62EB0102C0E90442002413EB01
:10BFEC000E034CEB01012046C8E90031C9F80040B2
:10BFFC0001F012F82146FDF745FF85F31188BFF3D8
:10C00C006F8FBDE8F047FFF7B9BE14EB0E024CEB97
:10C01C00E473C0E90467C8E90023FFF70DFF85F35B
:10C02C001188BFF36F8F83689847EFF31185202336
:10C03C0083F31288BFF36F8FD9F800301B1BC9F83C
:10C04C000030FFF7E7FEB8E73C360120E033012073
:10C05C0010B5EFF31184202383F31288BFF36F8F95
:10C06C00FFF7E0FE0346054AD2E90001181841EB40
:10C07C00E37184F31188BFF36F8F10BDE03301209F
:10C08C002DE9F04F43688DB01546804602938378B6
:10C09C009A0740F10D8100240E78002E00F00A81E1
:10C0AC00252E0BD04B1C0393013441463046029B8A
:10C0BC0098470028C0F2F6800399EDE74E788B1C68
:10C0CC00252E0393F0D00027B946BB46BBF11F0FBA
:10C0DC0038D8A6F12003102B0AD8DFE803F02A0980
:10C0EC0009300909092109090928092D09091F0025
:10C0FC00A6F13003092B33D92A2E37D11BF0400F70
:10C10C0055F8043B40F08280002BA7BF4BF0200B6E
:10C11C009946C3F100094BF0280B01E04BF0010BE1
:10C12C00039B13F8016B0393002ECFD130E04BF03F
:10C13C00020B4BF0040BF3E74BF0080BF0E74BF062
:10C14C00100BEDE7BBF17F0F19D8A6F13003092BCB
:10C15C00D2D81BF0400F03D00A2101FB0737DFE7D1
:10C16C000A214BF0200B01FB0939D9E72E2E06D101
:10C17C001BF0400F40F09E804BF0400BD0E76C2E34
:10C18C0031D02BD8682E36D06A2E3CD04C2E3AD0DB
:10C19C00002F46F02003B8BF2BF04002A3F165013D
:10C1AC00BCBF00271FFA82FB022901D9612B2FD1BA
:10C1BC0007350727DFF8ACA225F0070508351BF07B
:10C1CC00080F66D00AEB070B56465E4563D1A4EB0D
:10C1DC000A0AA9EB070906EB0A026FE1742E9FD03D
:10C1EC007A2E9DD0D4E71BF0800F18BF4BF4007B48
:10C1FC004BF0800B94E71BF4807F18BF4BF4007B53
:10C20C004BF4807B8CE74BF4207B89E71F4687E758
:10C21C00A6F16301122900F2F080DFE811F013009F
:10C22C004F00EE00EE00EE00EE004F00EE00EE00D0
:10C23C00EE00EE00EE00FE00E900EE00EE001B004A
:10C24C00EE00AF0055F8043B01270DF1180A8DF8EC
:10C25C001830B4E755F804AB834BBAF1000F08BFA4
:10C26C009A461BF0400F504614BF39464FF0FF3131
:10C27C0000F02DFF0746A2E741462020029B98477D
:10C28C0000280FDB013EB742F6D34C44B146A41B49
:10C29C0098E74E46F7E7414616F8010B029B984784
:10C2AC00002892DA98F8023043F0040388F8023040
:10C2BC004FF0FF3420460DB0BDE8F08F1BF0800F1F
:10C2CC0034D01BF4007F2CD0073525F00705AA4687
:10C2DC0069685AF8080B2BF010050029ADB237DA53
:10C2EC00404245F4806561EB41010DF1180B0A23C6
:10C2FC005A4600F0F8FEA0EB0B0301936B0662D5D7
:10C30C00019B25F001019F4289B240F3A180002ED0
:10C31C0000F0998015F0100240F09C80BB460D4651
:10C32C0023E0AA465AF8040BC117D4E7AA461BF41B
:10C33C00807F5AF8041B01D10846F5E71BF4007FF7
:10C34C0019BF48B241F3C01108B241F3C031C2E782
:10C35C0050EA0103C9D11BF0400FC6D0002FC4D145
:10C36C002BF01102BB46019795B240F2064115EA3B
:10C37C0001021CBF0BF1010B00222CE02BF0100270
:10C38C000A231FFA82FB1BF0800C49D01BF40071AE
:10C39C0015BF0735AA4625F007055AF8040B1EBF32
:10C3AC00AA4669685AF8080B50EA010545D12BF0EA
:10C3BC0016051BF0400FADB242D0002F40D12BF030
:10C3CC001702019795B215F0100248D0019B002E70
:10C3DC0042D103F1010B29075AD4EB0706D5D945F5
:10C3EC006FDDA9EB0B030199CB465F185B4649E067
:10C3FC004BF0100B10237826C5E7782B04D1C6F12F
:10C40C00780343F01003BEE741462520029B984772
:10C41C000028FFF647AF023447E608230026B2E7B0
:10C42C00AA461BF480715AF8040BBDD01BF40071A2
:10C43C001ABFC0B2614680B2B6E72BF0060295B2C5
:10C44C000DF1180B54E725F01105BB46ADB28CE786
:10C45C000D46B8E73B460D4603F1020BBBE7DDF892
:10C46C0004B082E764DE04005DDE0400CDE9043232
:10C47C0041462020029B98470028FFF613AF049BEF
:10C48C00059A01339945F1DCA4EB0B019B46CC18C2
:10C49C000AB341463020029B98470028FFF602AFB2
:10C4AC008EB901342744391B019B994224DC1D466B
:10C4BC0055BB019AA9EB0B095546224414469144ED
:10C4CC0033E0019F92E7023441463046029B984785
:10C4DC000028E7DAE6E640F206410D42E2D015F01C
:10C4EC00020F04F10104414614BF2B20202015F447
:10C4FC00806F18BF2D20E9E741463020029B0134A4
:10C50C0098470028CFDACDE606AB013D4146585D91
:10C51C00029B98470028CBDAC4E641462020029BB8
:10C52C00013498470028FFF6BDAEA9EB0403002B9D
:10C53C00F3DCC1E57047836800EBC101B3F5004F34
:10C54C002CBF51F8220031F81200704700EBC101EA
:10C55C008068B0F5004F2CBF41F8223021F8123022
:10C56C007047012208B5FFF7E6FFD04008BD83688D
:10C57C0000EBC101B3F5004F08D34B681AB143F07F
:10C58C0001034B60704723F00103FAE74B881AB1A3
:10C59C0043F001034B80704723F00103FAE753008B
:10C5AC000122FFF7D3BFB0F5004F34BF042308239B
:10C5BC00481C0833A0EBD300B0FA80F0C0F11F0088
:10C5CC0070472DE9F0410D4686680446FFF7C9FF18
:10C5DC00B6F5004F014601D3012832D03046FFF7A3
:10C5EC00E2FF04EB80010E6996B90122E3688240F8
:10C5FC001343E36002220D612B4629462046FFF7C8
:10C60C00A5FF032229462046BDE8F041FFF79EBF57
:10C61C00022231462046FFF78EFF07460346294685
:10C62C002046FFF793FF0322334629462046FFF7A7
:10C63C008DFF39462B462046FFF788FF02223146F4
:10C64C00E1E7BDE8F081B2F5802F2CBF082304236D
:10C65C002DE9F0410026D21A8C18CD1D25F00705C6
:10C66C0024F00704641BE408056021462046AC60F6
:10C67C00EE60FFF798FF421D9200013002F10707B0
:10C68C004FEAD7073146A2F1100205F11000B8BFEE
:10C69C00324600F014FD3A4631462846FFF77FFF3C
:10C6AC003346324631462846FFF750FFA4EB0708C5
:10C6BC00284631460122FFF75AFF42463946FFF71A
:10C6CC006EFF3B46324639462846FFF73FFF214670
:10C6DC002846FFF764FF4346324621462846FFF7BB
:10C6EC0035FF214628460122FFF741FF3946BDE8B8
:10C6FC00F041FFF766BF002070470FB407B504A9DF
:10C70C0051F8040B0191FCF743F803B05DF804EB0E
:10C71C0004B07047038B13F0070305D10368002B9B
:10C72C000CBF002003207047022B05D1408BB0FAC0
:10C73C0080F0400980007047012B05D10368002B65
:10C74C000CBF0020052070470020704710B50C4628
:10C75C0000B111B96FF0150010BD081D00F093F871
:10C76C000028F9D1A368032BF6D9F3E72DE9F041A2
:10C77C000D4607461946281D90461E4600F094F8B3
:10C78C00044638B13346424629463846A446BDE8ED
:10C79C00F0416047BDE8F08110B4EFF31182202422
:10C7AC0084F31288BFF36F8F416110BC0121FCF739
:10C7BC0021B838B50C46054658B151B10B6843B198
:10C7CC004B6833B11C22002100F079FC00202C6155
:10C7DC0038BD6FF01500FBE770B505460E46FFF748
:10C7EC00B5FF041E14DBEFF31182202383F31288B0
:10C7FC00BFF36F8F4FF6FF716B8B2C8B8B4204F05A
:10C80C00070407D182F31188BFF36F8F6FF00A040E
:10C81C00204670BD022C0CD101336B8382F311883E
:10C82C00BFF36F8F0023224631462846FFF79EFF49
:10C83C00EEE7062C14D8DFE804F004131313041AE3
:10C84C000400002333606B683BB9C5E90066ACB9E2
:10C85C0002212846FBF7CEFFDAE71E606E60F6E792
:10C86C0082F31188BFF36F8F6FF00404D0E782F36B
:10C87C001188BFF36F8F6FF08504C9E782F31188BD
:10C88C00BFF36F8FC4E7034658B1426802F003024E
:10C89C00012A03D0032A04D1026812B10020986047
:10C8AC0070476FF0150070474268034602F00302B0
:10C8BC00032A4FF00002816014BF104600685A60D2
:10C8CC0070477047012801D1EFF30583FEF700BCD8
:10C8DC0001460068FFF7F6BF08B5FCF7ADF8BDE8F8
:10C8EC000840FCF7CDB87047704700210120FFF7D6
:10C8FC00E9BF036F83F30B88704761B662B680F3B0
:10C90C001188BFF36F8F704772B6002383F31188C1
:10C91C00BFF36F8FBFF34F8F30BF62B6BFF36F8F14
:10C92C00704772B6002383F31188BFF36F8FBFF388
:10C93C004F8F20BF80F31188BFF36F8F62B67047A3
:10C94C0040E800F313F4803FD8B208BF6FF0150035
:10C95C00704730B50C684B6885B00A894D890094D6
:10C96C00013B24F01F04234402F01F0242EA45124B
:10C97C0023F01F0369468DF808200393FCF79CFBFA
:10C98C0005B030BD08B5FCF757FD002008BD0C22E2
:10C99C000369C9B201FB0233186C00F00700704741
:10C9AC0070B5C9B20369EFF31185202484F31288A2
:10C9BC00BFF36F8F0C2606FB0134246C14F0C004FB
:10C9CC0008D0A24206D085F31188BFF36F8F4FF0C9
:10C9DC00FF3070BD012206FB01331A6485F3118808
:10C9EC00BFF36F8F436803EBC1035B68984700206C
:10C9FC00EFE78022FFF7D4BFF8B5069F0469C9B2F0
:10CA0C00EFF31186202585F31288BFF36F8F0C2569
:10CA1C0005FB0144256C05F0070CBCF1010F0CD192
:10CA2C00276486F31188BFF36F8FC4E90E23436824
:10CA3C0053F8313098470020F8BD05F0C005AF42DF
:10CA4C0086F31188BFF36F8F0CBF6FF077004FF038
:10CA5C00FF30F1E713B580240094FFF7CDFF02B04F
:10CA6C0010BD10B41C240069CBB203FB04000021E0
:10CA7C0010BC10470020FDF709BC002000F044B9A1
:10CA8C001046FEF725BD022804D0042804D100204E
:10CA9C00FCF7B0BD0120FBE77047436800205B68E2
:10CAAC00DB680B607047436802EA01005B6821EAAF
:10CABC0002015860002099607047436800205B6851
:10CACC0059607047436800205B6899607047436801
:10CADC005A68136821EA03000B40506000209360F1
:10CAEC00704710B503695868F8B1884219D19C6831
:10CAFC000868A142586000D19860002008602AB1F3
:10CB0C005A680A609A68596002B99960002010E06E
:10CB1C00814206D10868206098688142EDD19C6002
:10CB2C00EBE7044600680028F2D1002AE8D16FF048
:10CB3C00150010BD30B543681360057A446804EBEA
:10CB4C00C504A34202D36FF0010030BD5C798C4266
:10CB5C0001D00833F0E70020F7E743681B68D3F8EF
:10CB6C003031704743681B68D3F88004C3F88004E5
:10CB7C00704742681368D3F84C0150B10020926A98
:10CB8C0012780A70C3F84C01D3F84C2101229A6236
:10CB9C0070474FF0FF30704713B501AA0446FFF7FA
:10CBAC00C9FF002805DB019B226819791868FCF77E
:10CBBC00DDFF02B010BD37B5054600220121C620AD
:10CBCC00FCF7A4F9C620FCF785F96C680121E06834
:10CBDC00FFF7E2FF6B6819686369C1F82435E28BD3
:10CBEC00A38BA07E1343228C1343628C1343627E6F
:10CBFC009BB20243207E02431343C1F86C35696833
:10CC0C000B68D3F8002242F48022C3F800220822D9
:10CC1C00C3F800254A6A0121C3F83C270022C3F857
:10CC2C0040271965D3F830110029FBD0C3F8002533
:10CC3C006B680021D868FFF7AFFF6D680021E868CA
:10CC4C002C68FFF7A9FF0823C4F8003595F82C30A1
:10CC5C0023B10021E86801AAFFF76CFF2A7A52B9C8
:10CC6C00AB6AC4F804370123C4F80837C4F84C2164
:10CC7C00D4F84C21A362002003B030BD07B5684640
:10CC8C00FEF76AF8DDE9000103B05DF804FB08B5B6
:10CC9C0000F035F848B1002383F31188BFF36F8F90
:10CCAC000423184602DF6FF0040008BD00B589B0FC
:10CCBC0006AB02930823039301AB0493042307915F
:10CCCC00CDE9053004AA184602A9FDF7BFF90228E0
:10CCDC00019B09D003280AD060B9181E18BF012087
:10CCEC00404209B05DF804FB6FF01500F9E76FF0F6
:10CCFC008500F6E74FF0FF30F3E700207047002087
:10CD0C007047004700F0C9B8FDF726BAF7B51646CC
:10CD1C00DDE90847019001A81D46FDF76BFB019B5F
:10CD2C00B6F1000C18BF4FF0010C00EB83000B1E8A
:10CD3C0018BF0123002D43EA4C0314BF4FF00C0C19
:10CD4C004FF0000C002C43EA0C0314BF4FF4706C32
:10CD5C004FF0000C002F43EA0C0314BF4FF4403C7F
:10CD6C004FF0000CD0F8802043EA0C0322EA0303B6
:10CD7C0001B109780EB13678760019430DB12D78D2
:10CD8C00AD0031430CB12478240229430FB13F7814
:10CD9C003F040C433C43C0F8804003B0F0BD1FB5CA
:10CDAC000DF10F03019300238DF80F101A4619464D
:10CDBC000093FFF7ABFF05B05DF804FB70B50446BC
:10CDCC0008461646FDF726FB083034F810300D46A1
:10CDDC00DA0509D5C3F3432304EBC30231462846D5
:10CDEC0054F8333052689847A3682BB13146284623
:10CDFC00E268BDE87040184770BDF0B504460020ED
:10CE0C0001270546844695420AD1D4F8403133B106
:10CE1C000023C4F84031D4F8403140F48030F0BDE8
:10CE2C00EBB29B0003F580769B0807FA03F31942DB
:10CE3C0008D054F806E0BEF1000F03D044F806C049
:10CE4C00A65918430135DEE770B50679044630461D
:10CE5C000D46FDF771FBB0B13046FDF75BFB90B9A9
:10CE6C003046FDF747FB012322688340C2F80833A4
:10CE7C00226803B202EB8303D3F8102522F00302DD
:10CE8C00C3F8102570BD2846BDE870400021FFF79F
:10CE9C0086BFFDF74DBCFFF7D7BF08B1FCF7FCBA56
:10CEAC007047704740B1C368587810F001001EBF3E
:10CEBC001878B0FA80F040097047EFF31183202303
:10CECC0083F31288BFF36F8FFEE708B5FFF7F5FF0A
:10CEDC0010B54369044633B90020E268537843F037
:10CEEC000103537010BD98470028F5D00028B8BF37
:10CEFC004042FF28A8BFFF20E3681870EDE700F060
:10CF0C00DEB800F0CFB8202408B5EFF3118384F31A
:10CF1C001288BFF36F8FFFF7F7FCF6E790F90E302E
:10CF2C008B4201D0FEF778BC00207047EFF30580F0
:10CF3C00003818BF01207047D0E9003213605A60E6
:10CF4C000023C0E90033704708B5FFF7F5FF437BBA
:10CF5C0023F0020343730023836008BD38B50446F5
:10CF6C000D46FEF7B7FB637B43F002036373E5B139
:10CF7C00A5602B689D4209D16B68C4E900531C6005
:10CF8C006C6012E06A689A42F6D01B68002BF3D0F2
:10CF9C0094F90E2093F90E108A42F3D09142F1DDF0
:10CFAC005A68C4E9003214605C6038BD10B5EFF308
:10CFBC001184202383F31288BFF36F8FFEF748FB95
:10CFCC0084F31188BFF36F8F10BD38B5EFF3118464
:10CFDC00202383F31288BFF36F8F002390F86C50DB
:10CFEC00427B80F86C302DB121B184F31188BFF3F2
:10CFFC006F8F38BD12F0280FF7D183680BB1FFF794
:10D00C00A3FF437B23F004034373FEF721FBECE700
:10D01C0001211838FFF7D9BF08B50246FEF7FAFE12
:10D02C0070B1D0E904319B1A61EBE272B3F1004F9D
:10D03C0072F1000104DA002AACBF1846002008BDCA
:10D04C006FF00040FBE7024638B5EFF31185202363
:10D05C0083F31288BFF36F8F0368CBB1FEF7DAFE50
:10D06C0004461046FEF7E8FE00224FF000438442CF
:10D07C00C0E9042306D1FEF7D5FEFFF7CDFF002152
:10D08C00FCF700FF002085F31188BFF36F8F38BDCC
:10D09C006FF01500F7E708B5FEF7DAFF08BD00BF23
:10D0AC00002070470A44431E914200D1704710B5CE
:10D0BC0011F8014B914203F8014FF9D110BD024414
:10D0CC000346934200D1704703F8011BF9E702466F
:10D0DC00014410B58A42134603D01C780132002C4F
:10D0EC00F8D1181A10BDF0B5C3F13707044603F098
:10D0FC001F031046FFB2082BE6B232D0102B3DD0E6
:10D10C006508A40845EAC17544EA81748A082D199A
:10D11C0042EB5102290941EA02716D1842EB1212DD
:10D12C00290A41EA02616D1842EB1222290C41EAEC
:10D13C0002416D1842EB1242AD1842F10002EC08AC
:10D14C0044EA4274D10804EB8402A6EB4205EDB22A
:10D15C00092D0CD90134A5F10A0541F10001EDB2FC
:10D16C0012E0E40806F0070544EA4174C9083035BA
:10D17C0054EA010200F8015BBDD1F0BD240906F0B0
:10D18C000F0544EA01740909092D84BFED19EDB2AC
:10D19C00EDE700000148006870470000E83301200B
:08D1AC0004B3FF7F0100000045
:10D1B4009194040000000000E19E040000000000BF
:10D1C4000000000014D204000000000054D2040047
:10D1D4000000000034D204000000000074D20400F7
:10D1E4000000000094D20400B9970400000000007D
:10D1F400E99D0400000000006D940400000000009C
:10D2040007CD0400000000009BCC040000000000D7
:10D2140002DE040058DC0400B4DB0400C830012042
:10D224002434012071950400000000000000000077
:10D234000FDE040074DC040090DB0400CA3001201B
:10D2440078340120E9990400000000000000000087
:10D254001BDE04008CDC040090DB0400CC300120D5
:10D2640084340120E999040000000000000000005B
:10D2740026DE0400A4DC040090DB0400CE30012090
:10D2840090340120E999040000000000000000002F
:10D294003ADE0400C8DC0400D0DB0400D0300120F6
:10D2A4009C340120C3CB04000000000000000000F7
:10D2B40000000000F7C8040000000000F7C80400E4
:10D2C40000000000F7C8040000000000F7C80400D4
:10D2D40000000000F7C8040000000000F7C80400C4
:10D2E40000000000F7C8040000000000F7C80400B4
:10D2F40000000000F7C8040000000000F7C80400A4
:10D3040000000000F7C8040000000000F7C8040093
:10D3140000000000F7C8040000000000F7C8040083
:10D3240000000000F7C8040000000000F7C8040073
:10D3340000000000F7C8040000000000F7C8040063
:10D3440000000000F7C8040000000000F7C8040053
:10D3540000000000F7C8040000000000F7C8040043
:10D3640000000000F7C8040000000000F7C8040033
:10D3740000000000F7C8040000000000F7C8040023
:10D3840000000000F7C8040000000000F7C8040013
:10D3940000000000F7C8040000000000F7C8040003
:10D3A40000000000F7C8040000000000F7C80400F3
:10D3B40000000000F7C8040000000000F7C80400E3
:10D3C40000000000F7C8040000000000F7C80400D3
:10D3D40000000000F7C8040000000000F7C80400C3
:10D3E40000000000F7C8040000000000F7C80400B3
:10D3F40000000000F7C8040000000000F7C80400A3
:10D4040000000000F7C8040000000000F7C8040092
:10D4140000000000F7C8040000000000F7C8040082
:10D4240000000000F7C8040000000000F7C8040072
:10D4340000000000F7C8040000000000F7C8040062
:10D4440000000000F7C8040000000000F7C8040052
:10D4540000000000F7C8040000000000F7C8040042
:10D4640000000000F7C8040000000000F7C8040032
:10D4740000000000F7C8040000000000F7C8040022
:10D4840000000000F7C8040000000000F7C8040012
:10D4940000000000F7C8040000000000F7C8040002
:10D4A40000000000F7C8040000000000F7C80400F2
:10D4B40000000000F7C8040000000000F7C80400E2
:10D4C40000000000F7C8040000000000F7C80400D2
:10D4D40000000000F7C8040000000000F7C80400C2
:10D4E40000000000F7C8040000000000F7C80400B2
:10D4F40000000000F7C8040000000000F7C80400A2
:10D5040000000000F7C8040000000000F7C8040091
:10D5140000000000F7C8040000000000F7C8040081
:10D5240000000000F7C8040000000000F7C8040071
:10D5340000000000F7C8040000000000F7C8040061
:10D5440000000000F7C8040000000000F7C8040051
:10D5540000000000F7C8040000000000F7C8040041
:10D5640000000000F7C8040000000000F7C8040031
:10D5740000000000F7C8040000000000F7C8040021
:10D5840000000000F7C8040000000000F7C8040011
:10D5940000000000F7C8040000000000F7C8040001
:10D5A40000000000F7C8040000000000F7C80400F1
:10D5B40000000000F7C8040000000000F7C80400E1
:10D5C40000000000F7C8040000000000F7C80400D1
:10D5D40000000000F7C8040000000000F7C80400C1
:10D5E40000000000F7C8040000000000F7C80400B1
:10D5F40000000000F7C8040000000000F7C80400A1
:10D6040000000000F7C8040000000000F7C8040090
:10D6140000000000F7C8040000000000F7C8040080
:10D6240000000000F7C8040000000000F7C8040070
:10D6340000000000F7C8040000000000F7C8040060
:10D6440000000000F7C8040000000000F7C8040050
:10D6540000000000F7C8040000000000F7C8040040
:10D6640000000000F7C8040000000000F7C8040030
:10D6740000000000F7C8040000000000F7C8040020
:10D6840000000000F7C8040000000000F7C8040010
:10D6940000000000F7C8040000000000F7C8040000
:10D6A40000000000F7C8040000000000F7C80400F0
:10D6B40000000000F7C8040000000000F7C80400E0
:10D6C40000000000F7C8040000000000F7C80400D0
:10D6D40000000000F7C8040000000000F7C80400C0
:10D6E40000000000F7C8040000000000F7C80400B0
:10D6F40000000000F7C8040000000000F7C80400A0
:10D7040000000000F7C8040000000000F7C804008F
:10D7140000000000F7C8040000000000F7C804007F
:10D7240000000000F7C8040000000000F7C804006F
:10D7340000000000F7C8040000000000F7C804005F
:10D7440000000000F7C8040000000000F7C804004F
:10D7540000000000F7C8040000000000F7C804003F
:10D7640000000000F7C8040000000000F7C804002F
:10D7740000000000F7C8040000000000F7C804001F
:10D7840000000000F7C8040000000000F7C804000F
:10D7940000000000F7C8040000000000F7C80400FF
:10D7A40000000000F7C8040000000000F7C80400EF
:10D7B40000000000F7C8040000000000F7C80400DF
:10D7C40000000000F7C8040000000000F7C80400CF
:10D7D40000000000F7C8040000000000F7C80400BF
:10D7E40000000000F7C8040000000000F7C80400AF
:10D7F40000000000F7C8040000000000F7C804009F
:10D8040000000000F7C8040000000000F7C804008E
:10D8140000000000F7C8040000000000F7C804007E
:10D8240000000000F7C8040000000000F7C804006E
:10D8340000000000F7C8040000000000F7C804005E
:10D8440000000000F7C8040000000000F7C804004E
:10D8540000000000F7C8040000000000F7C804003E
:10D8640000000000F7C8040000000000F7C804002E
:10D8740000000000F7C8040000000000F7C804001E
:10D8840000000000F7C8040000000000F7C804000E
:10D8940000000000F7C8040000000000F7C80400FE
:10D8A40000000000F7C8040000000000F7C80400EE
:10D8B40000000000F7C8040000000000F7C80400DE
:10D8C40000000000F7C8040000000000F7C80400CE
:10D8D40000000000F7C8040000000000F7C80400BE
:10D8E40094D2040067CB040000000000F7C80400D1
:10D8F40000000000F7C8040000000000F7C804009E
:10D9040000000000F7C8040000000000F7C804008D
:10D9140000000000F7C8040000000000F7C804007D
:10D9240000000000F7C8040000000000F7C804006D
:10D9340000000000F7C8040000000000F7C804005D
:10D9440000000000F7C8040000000000F7C804004D
:10D9540000000000F7C8040000000000F7C804003D
:10D9640000000000F7C8040000000000F7C804002D
:10D9740000000000F7C8040000000000F7C804001D
:10D98400A9AC04000FCD040000000000F7C8040097
:10D9940000000000F7C8040000000000F7C80400FD
:10D9A40000000000F7C8040000000000F7C80400ED
:10D9B40000000000F7C8040000000000F7C80400DD
:10D9C40000000000F7C804002DB004000FCD0400CF
:10D9D40000000000F7C8040000000000F7C80400BD
:10D9E40000000000F7C8040000000000F7C80400AD
:10D9F40000000000F7C8040000000000F7C804009D
:10DA040000000000F7C8040000000000F7C804008C
:10DA140000000000F7C8040000000000F7C804007C
:10DA240000000000F7C8040000000000F7C804006C
:10DA340000000000F7C8040000000000F7C804005C
:10DA440000000000F7C8040000000000F7C804004C
:10DA540000000000F7C8040000000000F7C804003C
:10DA640000000000F7C8040000000000F7C804002C
:10DA740000000000F7C8040000000000F7C804001C
:10DA840000000000F7C8040000000000F7C804000C
:10DA940000000000F7C8040000000000F7C80400FC
:10DAA40000000000F7C8040000000000F7C80400EC
:10DAB40000000000F7C8040000000000F7C80400DC
:10DAC40000000000F7C8040000000000F7C80400CC
:10DAD40000000000F7C8040079A304000FCD04007F
:10DAE40000000000F7C8040000000000F7C80400AC
:10DAF40000000000F7C8040000000000F7C804009C
:10DB040000000000F7C8040000000000F7C804008B
:10DB1400B9AC04000FCD040000000000F7C80400F5
:08DB240000000000F7C8040036
:10DB300078310120483A0120000400004D8704009C
:10DB400000000000000000000000000006000000CF
:10DB50000000000085DD040000000000000000005F
:10DB6000E8300120483601200004000069870400E5
:10DB7000000000000000000000000000070000009E
:10DB8000000000007ADD040000000000000000003A
:10DB900009980400A7CA0400B3CA0400C7CA040055
:10DBA000D1CA0400DBCA04003D9A0400EFCA040095
:04DBB0000000000071
:10DBB400CD950400FFC9040061CA04000000000000
:0CDBC4009BC904000000000000000000ED
:0CDBD0007FCB0400F59C040071CB040026
:10DBE00000A0104000820D40000405400500000028
:10DBF0000400000001000000000000000000000020
:10DC00000338FDD87047000000000000000000004D
:10DC10000338FDD8704700000030012000000000EC
:10DC200006000100020000002CDC040000000000DF
:10DC3000F3DD040006000000E04F16000030012074
:10DC4000FBDD040021000000E0EF0220F994040055
:10DC5000C9940400000000004D9604003D950400A6
:10DC600081CA040087CA040000A0104000820D4051
:10DC7000000405401F00000000A01040000000004C
:10DC80000000000000C0104001000000FFFF000085
:10DC900000820D40000000000100000000A00D40C7
:10DCA00000000000FF070000000405400000000025
:10DCB00002000000000000000000000000A0104072
:10DCC00000820D400004054000600C400000000090
:10DCD00000000000F8DC040000C201000000D601D2
:10DCE000000000000000004000000000423601205B
:10DCF000413601200101000000600C4004DD0400F9
:10DD0000010000000CDD04000400000024000000FD
:10DD100026000002250600012706000300A010408F
:10DD200000820D40000405400800000002000000D1
:10DD30000400000001000000B4D10400B4D10400CC
:10DD4000F4D10400FCD1040014D2040014D2040065
:10DD500048656C6C6F2C204920616D207468726579
:10DD60006164300A0048656C6C6F2C204920616D3D
:10DD700020746872656164310A0074687265616458
:10DD8000315F696400746872656164305F69640062
:10DD90002A2A2A20426F6F74696E67206E524620CD
:10DDA000436F6E6E6563742053444B2076332E317F
:10DDB0002E302D3663366535623332343936652080
:10DDC0002A2A2A0A002A2A2A205573696E67205AAD
:10DDD0006570687972204F532076342E312E393990
:10DDE0002D313631323638336434303130202A2AFE
:10DDF0002A0A00464C4153485F30005352414D5F60
:10DE00003000636C6F636B403130653030300067D9
:10DE100070696F40313061303030006770696F4039
:10DE20006438323030006770696F403530343030DC
:10DE30000000010405020608090F75617274406351
:10DE400036303030000007182323232323232323D5
:10DE500023232323230001026D61696E00286E7560
:0CDE60006C6C29002A666C6F61742A004B
:10DE6C00000000006700000000000000000000003F
:10DE7C000000000000000000000000000000000096
:10DE8C000000000000000000000000000000000086
:10DE9C000000000000000000000000000000000076
:10DEAC000000000000000000000000000000000066
:10DEBC000000000000000000000000000000000056
:10DECC000000000000000000000000000000000046
