:020000040100F9
:108600003DB8F3960000000000020000CC480000D6
:10861000000000000000000000000000000000005A
:10862000FFFFFFFFFFFFFFFFFFFFFFFFFFFFFFFF5A
:10863000FFFFFFFFFFFFFFFFFFFFFFFFFFFFFFFF4A
:10864000FFFFFFFFFFFFFFFFFFFFFFFFFFFFFFFF3A
:10865000FFFFFFFFFFFFFFFFFFFFFFFFFFFFFFFF2A
:10866000FFFFFFFFFFFFFFFFFFFFFFFFFFFFFFFF1A
:10867000FFFFFFFFFFFFFFFFFFFFFFFFFFFFFFFF0A
:10868000FFFFFFFFFFFFFFFFFFFFFFFFFFFFFFFFFA
:10869000FFFFFFFFFFFFFFFFFFFFFFFFFFFFFFFFEA
:1086A000FFFFFFFFFFFFFFFFFFFFFFFFFFFFFFFFDA
:1086B000FFFFFFFFFFFFFFFFFFFFFFFFFFFFFFFFCA
:1086C000FFFFFFFFFFFFFFFFFFFFFFFFFFFFFFFFBA
:1086D000FFFFFFFFFFFFFFFFFFFFFFFFFFFFFFFFAA
:1086E000FFFFFFFFFFFFFFFFFFFFFFFFFFFFFFFF9A
:1086F000FFFFFFFFFFFFFFFFFFFFFFFFFFFFFFFF8A
:10870000FFFFFFFFFFFFFFFFFFFFFFFFFFFFFFFF79
:10871000FFFFFFFFFFFFFFFFFFFFFFFFFFFFFFFF69
:10872000FFFFFFFFFFFFFFFFFFFFFFFFFFFFFFFF59
:10873000FFFFFFFFFFFFFFFFFFFFFFFFFFFFFFFF49
:10874000FFFFFFFFFFFFFFFFFFFFFFFFFFFFFFFF39
:10875000FFFFFFFFFFFFFFFFFFFFFFFFFFFFFFFF29
:10876000FFFFFFFFFFFFFFFFFFFFFFFFFFFFFFFF19
:10877000FFFFFFFFFFFFFFFFFFFFFFFFFFFFFFFF09
:10878000FFFFFFFFFFFFFFFFFFFFFFFFFFFFFFFFF9
:10879000FFFFFFFFFFFFFFFFFFFFFFFFFFFFFFFFE9
:1087A000FFFFFFFFFFFFFFFFFFFFFFFFFFFFFFFFD9
:1087B000FFFFFFFFFFFFFFFFFFFFFFFFFFFFFFFFC9
:1087C000FFFFFFFFFFFFFFFFFFFFFFFFFFFFFFFFB9
:1087D000FFFFFFFFFFFFFFFFFFFFFFFFFFFFFFFFA9
:1087E000FFFFFFFFFFFFFFFFFFFFFFFFFFFFFFFF99
:1087F000FFFFFFFFFFFFFFFFFFFFFFFFFFFFFFFF89
:1088000088100021C98F0001B5C40001B58F000197
:10881000B58F0001B58F0001B58F00010000000089
:108820000000000000000000000000002591000191
:10883000B58F000100000000C5900001B58F000158
:108840006592000165920001659200016592000148
:108850006592000165920001659200016592000138
:108860006592000165920001659200016592000128
:108870006592000165920001659200016592000118
:108880006592000165920001659200016592000108
:1088900065920001659200016592000165920001F8
:1088A00065920001659200016592000165920001E8
:1088B00065920001659200010000000000000000C8
:1088C00000000000000000000000000000000000A8
:1088D0000000000000000000000000000000000098
:1088E0000000000000000000000000000000000088
:1088F0000000000000000000000000000000000078
:108900000000000000000000000000000000000067
:108910000000000000000000000000000000000057
:108920000000000000000000000000000000000047
:108930000000000000000000000000000000000037
:108940000000000000000000000000000000000027
:108950000000000000000000000000000000000017
:108960000000000000000000000000000000000007
:1089700000000000000000000000000000000000F7
:1089800000000000000000000000000000000000E7
:1089900000000000000000000000000000000000D7
:1089A00000000000000000000000000000000000C7
:1089B00000000000000000000000000000000000B7
:1089C00000000000000000000000000000000000A7
:1089D0000000000000000000000000000000000097
:1089E0000000000000000000000000000000000087
:1089F0000000000000000000000000000000000077
:108A0000DEE61E284CBBCE8F023500003C00000085
:108A10001C480000010000000088000100880001DF
:108A2000FFFF0291000000000000000000000000B5
:108A3000000000000000000000000000014B1B6867
:108A4000184700BF0000002130B585B004460D4630
:108A500010220021684604F069F802238DF80230E4
:108A6000044B2A4621466846019303F0F5F805B009
:108A700030BD00BF3D8A000180B505460E46174651
:108A8000984602F06FFE034604F0CAF80446DFF889
:108A90001890424649F8003039463046A84754F805
:108AA000090000F0F9FA00BF080000002DE9F047C6
:108AB000058B04462807904611D4022905F00705C6
:108AC00040F0CC80204603F013FC78B10138218BB4
:108AD000042811D8DFE800F0C2106D859500012947
:108AE0000CBF45F0100545F02005258388F311885B
:108AF000BFF36F8FBDE8F08701F0070AAA4500F0C9
:108B0000A5800027B9463E46A368002B00F0BC8034
:108B100041F00801218388F31188BFF36F8FA168AA
:108B2000002900F0BA800D68002900F0B6803346B5
:108B300052462046D1F80480C047002D76D02B68DD
:108B400029461D46F0E701F007035A1F012A1BD8EA
:108B5000002221F00701062B276889B2C4E9002210
:108B600009D13B4603E0628B013262831B68002B14
:108B7000F9D141F002012046218303F0B9FB00281E
:108B80007AD041F0200176E0042B0AD121F00701D0
:108B900089B22046218303F0ABFB10B141F02001E4
:108BA0002183218B01F0070AAA454FD00027B9463F
:108BB000AAE7236921F0070141F00601062DD3F849
:108BC000009021832DD1B9F1000F3FD041F0080171
:108BD000218388F31188BFF36F8F20463949C84736
:108BE00029E021F00701236941F0040189B2042D35
:108BF000D3F804902183E6D000274FF0040A3E46C4
:108C000082E721F00701236941F0050189B2052DB2
:108C1000D3F808902183D6D000274FF0050A3E46AE
:108C200072E700274FF0060A3E466DE72B4687E7BE
:108C3000B9F1000FD1D1EFF31188202383F312880B
:108C4000BFF36F8F238B23F008032383258BEA0662
:108C50002ED525F01003238305F007056669218BC7
:108C6000002EBFF670AF00232768C4E9003321F05F
:108C7000070141F001012183218B4FF0000901F030
:108C8000070AAA457FF440AF002F9CD041F00801AD
:108C9000218388F31188BFF36F8F002FC8D03D6800
:108CA000394633465246204603F04EFB2F46F4E742
:108CB000AB067FF51BAF25F02003238305F00705E6
:108CC00000E700BF75C30001014B0360002070473F
:108CD00018CE000108B5044803F0FDFABDE80840CD
:108CE000024803F0F8BA00BFB8CE0001EDCE000193
:108CF00030BFFFF7FDBF00BF2DE9F04105460B4E29
:108D0000DFF82C80324606EB0807CC1B20460949C9
:108D100003F0FFFEA01942460021083C03F006FFC5
:108D20002C6707F10800BDE8F08100BF00000000DB
:108D300004000000ECCD0001054B5A699B689A4283
:108D40001FBF044A536843F080535360704700BF0D
:108D50005403002100ED00E0154B9A6A12F0007FE9
:108D60009A6A14BF1E201D2012F0807F9A6A18BFD5
:108D70001F2012F4801F9A6A18BF022012F4002FDD
:108D80009A6A18BF212012F4802F9A6A18BF2220F5
:108D900012F4003F9A6A18BF232012F4803F9A6AA7
:108DA00018BF24206FEA02426FEA12429A627047AB
:108DB00000ED00E010B5164B9A6A9C6A12F4805FD1
:108DC00014BF1722162214F4006F9C6A18BF1822D1
:108DD000A40509D59A6B9A6A120404D518B19A6A47
:108DE00022F400429A621922094B986A10F4806FAB
:108DF000986A18BF1A2210F4807F986A40F47F4066
:108E000098624FF000030CBF10461B200B7010BD82
:108E100000ED00E010B5154B0246986A9C6A10F010
:108E2000100F14BF1120102014F0080F9C6A18BFF7
:108E30001220A40709D5586B986A000604D51AB108
:108E40009A6A22F080029A621320084B9A6A12F002
:108E5000010F9A6A18BF1420D20658BF9A6A9A6AFC
:108E600042F0FF029A6200230B7010BD00ED00E09B
:108E7000F0B5474B04465B6800258BB0C3F308038D
:108E800085F31188BFF36F8F02F07F40B0F17F4F01
:108E900011D102F00C0008280DD010074CBF0C4671
:108EA00001250022033B8DF80720032B05D8DFE8BE
:108EB00003F02462665F2C46F3E700239DF8072049
:108EC000CAB902AE04F1200732462068616808344E
:108ED00003C2BC421646F7D1099A002D53D0C2F303
:108EE000080121B96FEA52226FEA4222099218461C
:108EF00002A903F0D5FA0BB0F0BD254BDA6A910751
:108F0000DBD4DA6A002AD8DBDA6A5200D5D55A698E
:108F1000A16942F480725A61BFF34F8FBFF36F8F24
:108F20005A6931F8021C22F480725A61BFF34F8FE4
:108F3000BFF36F8F4DF60272914209D09A6AD2B296
:108F400042B101200DF10701FFF764FF0346B5E7C9
:108F50002368B3E79A6A12F47F4F05D001200DF120
:108F60000701FFF727FFF1E79B6AB3F5803FA4D322
:108F7000FFF7F2FEEAE700200DF10701E4E7002029
:108F80000DF10701EDE722F4FF7222F00102ADE7D7
:108F900000ED00E0064B5A6942F010025A615A692E
:108FA00042F480625A615A6922F008025A6170479D
:108FB00000ED00E0EFF30880EFF3098101B57246A0
:108FC000FFF756FF01BD00BF002080F31488BFF3F8
:108FD0006F8F002080F30A8880F30B880F4880F39E
:108FE000088801F017FA00200D490860BFF34F8F81
:108FF00000F02CF8202080F311880A484FF400611B
:10900000401880F30988EFF314800221084380F3AD
:109010001488BFF36F8F03F058FA00008810002106
:1090200094ED00E088030021002318460649D1F89A
:109030009020C2F30722934200DB7047C1F89830BA
:10904000C1F8A0000133F6E700ED00E010B572B6FC
:10905000002484F31388FFF7E7FF23464FF0FF3027
:109060000C4A03F120010133102B42F82100F8D102
:1090700000234FF0FF30074A03F160010133102B4A
:1090800042F82100F8D162B6BFF34F8FBFF36F8F64
:1090900010BD00BF00E100E0084B9B6883420BD18C
:1090A000EFF3058343B1064B5A6842F080525A6091
:1090B0005A6A22F400425A6202F05ABB5403002159
:1090C00000ED00E014498A684FF030001044EFF3DF
:1090D000098C80E8F01F202080F31288BFF36F8F87
:1090E0000E4F4FF000664A698A603E60106F0C4C6C
:1090F0002060506F0023536780F3118802F1300025
:1091000090E8F01F8CF3098802F1000004B503F029
:10911000E7F9BDE8044070475403002104ED00E086
:10912000F80100211EF0040F0CBFEFF30880EFF3ED
:109130000980816911F8021C0229FFD001B572462D
:1091400003F0B4F901BD00BF40B2002807DB0123E2
:109150004109034A00F01F00834042F82130704764
:1091600000E100E0054B420953F82220012300F002
:109170001F0003FA00F01040704700BF00E100E05C
:1091800040B2002801F10101ACBF00F16040064B84
:109190004FEA4111C9B2ABBF00F5614000F00F00CA
:1091A00080F800131954704714ED00E0044B054A91
:1091B00023F07F039360BFF34F8FBFF36F8F704730
:1091C0000088000100ED00E042F8203C009B0B49C4
:1091D00042F81C3C019B21F0010142F8183C029B23
:1091E00042F8081C42F8143C4FF0807342F8043CEB
:1091F0000023203A02654367704700BF798A000167
:1092000000B50B4B15469860026F0A4B0E461A606C
:10921000036E83F30B882C4686F309880020064BE7
:1092200098472046002100220023044C204700BF1D
:1092300054030021F8010021E9C40001798A0001EA
:109240001022014B1A61704700ED00E0002320213D
:109250000348C21801331E2B82F80013F9D170475E
:1092600000E100E008B5EFF30583064A103B02EB8E
:10927000C30152F8330049688847BDE80840FFF74A
:109280005BBD00BFBCCC00011FB5094C094A234699
:109290000121094800F0FAF800230393074B01214C
:1092A000E41A01A80193029400F0FAF804B010BD8A
:1092B000000001210000002118CE0001380000212B
:1092C00010B50C7A0B6804F01F0223F01F031A4339
:1092D000CB68640923F01F03054943EA440343F0C4
:1092E0000103C1F89800C1F89C20C1F8A03010BD5E
:1092F00000ED00E010B5074BD3F89030C3F307231F
:10930000013B984202D8FFF7DBFF10BD6FF015005C
:10931000FBE700BF00ED00E02DE9F04F0F461446DB
:1093200006464FF000084D4D85B0B84580F292805A
:10933000D6F80490B9F1000F36D0B9F11F0F40F202
:10934000878019F01F0F40F08380D6F800A01AF034
:109350001F0F7DD1504603F007F9834609EB0A0041
:10936000013803F001F9834572D11BF1160F6FD05C
:109370005C456DDDC5F898B0D5F89C10C5F898B07F
:10938000D5F8A03021F01F0143F01F0AD6E90032C2
:109390001A44994202F1FF391ED1CA4508D131461B
:1093A0005FFA8BF003F0E9F808F101080C36BCE72E
:1093B0003146C5F898B0D5F89C3022F01F0203F072
:1093C0001F031343C5F89C30E0B203F0D6F810F148
:1093D000160F3DD0441CE7E7C5F898B0D5F8A0209B
:1093E000013B23F01F0302F01F021343CA4531461D
:1093F000E0B2C5F8A030E8D003F0BFF810F1160FC6
:1094000026D0C5F898B0D5F89C209DF808300AF110
:10941000FF3A62F304038DF80830D5F8A0309DF8C8
:1094200008205B0863F347128DF80820D6E9003264
:109430001344009323F01F035344A3EB09030130AB
:1094400023F01F036946C0B20393FFF753FFBEE743
:109450006FF01504204605B0BDE8F08F00ED00E088
:109460000522044BC3F89420BFF34F8FBFF36F8FD7
:10947000704700BF00ED00E0BFF35F8F0022024B9A
:10948000C3F89420704700BF00ED00E010B5034C16
:109490002278FFF741FF207010BD00BF800300213C
:1094A0002DE9F74F294D8A4606464FF00008AB4696
:1094B000274FD0451BDAD6F80490B9F1000F3FD002
:1094C00031680846019103F04FF80199044609EB11
:1094D0000100013803F048F884424FF014021D4B9C
:1094E00008D002FB08F36FF015024BF8032003B01D
:1094F000BDE8F08F14F1160F2C60F8D01978A14256
:10950000F5DD02FB08B0C7F89840C7F89840D7F8D7
:109510009C4000F10801007B64F304000871D7F857
:10952000A0000C79400860F347140C71D7F89C1028
:1095300021F01F016960D7F8A01021F01F012961F7
:1095400008F1010814350C36B3E700BFFC01002117
:1095500000ED00E080030021F0B54149414CD1F815
:1095600090302568C3F307239D4287B075D800204B
:10957000FFF782FF3C4BC1F8C030854216D13B4C0F
:1095800001A82570FFF7A0FB00250646384FAE4224
:1095900013D1002023783249D1F89020C2F307225A
:1095A000934254DBFFF75CFF00202FE0616801EB82
:1095B0000011FFF785FE0130DFE70199280101EB7B
:1095C0000513DA683A40B2F5001F21D0B2F5800FDA
:1095D0002BD0B2F5801F38D15A689B680958013BDF
:1095E00022F01F0003440120844623F01F0340EAB9
:1095F0004C10CDE902218DF8100002A920780593C6
:10960000FFF778FE00281DDA6FF0150007B0F0BDF7
:109610005A689B680958013B22F01F0003444FF031
:10962000020C012023F01F03E1E75A689B680958E8
:10963000013B22F01F0003444FF0000C062023F0F2
:109640001F03D4E723780133237001359FE7C1F866
:109650009830C1F8A00001339EE74FF0FF30D5E706
:1096600000ED00E024CE0001AAFF440080030021A9
:109670000000F0FF08B50649064821F00701C1F1D6
:10968000045202F5803202F0CCFD002008BD00BF7C
:109690008F10002110020021064AD2F8AC3123F0CD
:1096A0000043C2F8AC310022034BC3F84C21D3F87D
:1096B0004C317047002001410060014173B5354BCA
:1096C000D3E84F3F00233449CDE90033334BD3F87F
:1096D0000445BFF35F8FD1F80465BFF35F8FD3F804
:1096E00004259442F3D16B46224601212B4802F017
:1096F0005DFF324605460F21274801AB02F056FFB9
:10970000E0B1019B0DB9009302E0009A9342FAD3B5
:10971000009B22481C44013CD0F84C3524F07F4487
:109720009C421F4932D0FFF7B7FFC0F84C451D4B94
:10973000009A9A4218D901230B7001E0002DE7D15D
:10974000194AD2F8AC3143F00043C2F8AC31134BA4
:10975000D3F84C2132B90121144A5160D3F84C316D
:1097600003B1116001230DE0BFF35F8FD0F8043522
:10977000E41A24F07F440E4B033C9C42DBD90023C7
:109780000B7000230B4A137002B070BD0B78002BD6
:10979000F7D0D5E7850300210010014100600141A9
:1097A00083030021FEFF7F000020014100B0004143
:1097B000FBFF7F0084030021F8B51E490023C1E8A8
:1097C000423F52BB1C4B1D783DB305231B4E1C4F23
:1097D00034780134B4FBF3F303EB8303E41A02F0AF
:1097E000EBFF184A137823B157F82430C01A072822
:1097F00013D9154BD3F8141141B10021C3F814113A
:10980000D3F8143134700CB901231370347802F09A
:10981000D3FF47F824002846F8BD0C4A0025D2F8AB
:10982000AC3123F00043C2F8AC310122084B5A603E
:10983000F1E700BF8503002184030021820300219A
:109840001C02002181030021005000410020014141
:1098500000B000410122024BC3F84025704700BF11
:10986000000008415023142213B51E4C0DF10700CF
:10987000C4F80C351C4BC3F820214FF400621B4B7D
:10988000C3F8BC254FF48062C3F8382500F06CFEA5
:10989000174B984223D117499DF8070002F09EFF0D
:1098A00015499DF8070002F09EFF14499DF8070036
:1098B00002F094FF21469DF8070002F094FF01207A
:1098C0009DF80730984000F049FE4FF400220C4B01
:1098D000C3F844230022C3F84C21D3F84C3102B022
:1098E00010BD00BF00B00041003020410020014108
:1098F0000000AD0B4C610141282001412C210141A8
:109900000060014120B1034B800143F0010318477F
:10991000704700BF10CE0001084B70B5C31A0D464A
:1099200007499B10044659434022064802F078FE3E
:109930002B4601462046BDE87040184744020021EE
:10994000B76DDBB65CCC0001402373B50B4C0093C4
:10995000041B0B460D460A49A41061430646094AFA
:10996000094802F089FE011E05DA30462B4602B096
:10997000BDE87040184702B070BD00BF440200212E
:10998000B76DDBB6E3C600015CCC000110B5EFF3A8
:109990001184202383F31288BFF36F8F074A136863
:1099A00023F00201DB07116002D4012002F020FF46
:1099B00084F31188BFF36F8F10BD00BF94020021A4
:1099C00070B50022012104460520FFF7D9FB0F489E
:1099D00000F02EFE0E4B984215D100F039FE26699C
:1099E0000C49304602F0D3FC00280BDB012535641E
:1099F0002469084904F11C0002F0C9FC002801DBBD
:109A00000020E56470BD6FF00400FBE7159B0001CA
:109A10000000AD0B4CCE00011FB500220123CDE9A3
:109A200002236B46084ACDF800D0CDF804D002F0EE
:109A300051FE002805DB4FF480420023684601F008
:109A40000BFC05B05DF804FB01C700010C22104BB4
:109A5000014602FB0033002030B4D3E90E52986374
:109A6000EFF31180202484F31288BFF36F8F1C6CF6
:109A700004F0C00444F002041C6480F31188BFF3B6
:109A80006F8F1DB12B4630BC0248184730BC704761
:109A9000440200215CCC000110B4EFF311822023BA
:109AA00083F31288BFF36F8F1748016841F00204F7
:109AB0000460C80707D482F31188BFF36F8F0120B9
:109AC00010BC00F0DBBD1149D1F80C04D1F80C1426
:109AD000C907F0D5EFF3118083F31288BFF36F8FBE
:109AE0000B490B6C03F0C00343F002030B6480F3DB
:109AF0001188BFF36F8F82F31188BFF36F8F00203F
:109B000010BCFFF7A3BF00BF94020021005000412A
:109B10004402002110B1012804D07047034B1B6C94
:109B20005B0701D1FFF792BF704700BF44020021DD
:109B30002DE9F041012207463449D1E8EF3FC1E861
:109B4000E02F0028F9D133B9314932484B60CB605E
:109B50008A6002F02FFC7B1E012B28D8012F06D132
:109B60002D4BD3F81C3403F00303022B1FD002F05B
:109B7000F5FE0546E8B9294B1B78D3B1022206460B
:109B8000254BC3F80823244CDFF89480D4F818241C
:109B9000D4F81834D20315D503F00303022B01D0F7
:109BA000012F0FD16DB386F31188BFF36F8FBDE81E
:109BB000F081EFF31186202383F31288BFF36F8FB8
:109BC0000125E0E7C5B1304602F0B0FCD4F8183505
:109BD000DBB2012BDAD1D4F80421002AD6D000223E
:109BE000C4F80421D4F804210222C4F81825202244
:109BF000C8F88021A360C9E70021212002F01EFFE0
:109C0000E4E70222044BC3F80423D0E7400200211A
:109C10003002002160020021005000418603002133
:109C200000E100E0F0B51646426801F01F04107B29
:109C300087B044EA40141069002871D0B6F5001FBF
:109C400002F1100506D12146284602F050FE002000
:109C500007B0F0BD0027B6F5800F01A80197476057
:109C600039D1B3F1007F14BF052304238DF80430EC
:109C70000023CDE90403039393680DF1030723FA4E
:109C800001F111F001013DD1B6F1A07F3AD104F00C
:109C90001F03620903F1800328D0012A46D1254A17
:109CA00052F82330DB072DD43A462146284600F0EF
:109CB000E5FF214B98421BD002972146284603AA74
:109CC00000F094FE1D4B98422DD1012221462846DA
:109CD00001F02CF8BBE7B3F1C06F05D0B3F1007F02
:109CE00014BF01230223C1E70323BFE7144AD7E7C8
:109CF0003946284601F012F8104B9842DCD06FF03C
:109D00000B00A5E73A462146284600F0B7FF0B4B6B
:109D10009842D2D128469DF8031000F0F7FFCCE717
:109D20006FF0850094E76FF0150091E751F823304C
:109D3000FFDE00BF00088C410400AD0B0000AD0B3E
:109D400000058C414209034670B502D0012A17D0A4
:109D500070BD0D4E326951680029F9D0012503F01C
:109D60001F030C689D400029F2D08A682A4002D067
:109D700030464B6898472CB1236821461C46F2E7D1
:109D8000024EE7E72346F8E79CCC00017CCC0001BB
:109D900038B545682B69B3B11035284600F0ACFFE3
:109DA000044680B90146284600F082FF084B9842DD
:109DB0000BD122462846074900F05AFF22460521CA
:109DC0000A20FFF7DDF9002038BD6FF00400FBE743
:109DD0000000AD0B459D00012DE9F04340F2063532
:109DE0004668D00648BF0320337B02EA050558BF0A
:109DF000C2F3401087B001F01F07B5F5837F14460A
:109E000047EA43178DF8030043D00FD8062D18D02A
:109E100007D8B5B1022D3ED06FF0150007B0BDE8F0
:109E2000F083B5F5807FF7D101250AE040F20222E8
:109E3000954232D0B5F5407F31D0B5F5007FEBD1FA
:109E4000022522032DD5012372688B40936032696D
:109E500082BB07F01F037F092AD0012F77D13E4A2A
:109E600002EB830284F48033D2F80012C3F3004380
:109E7000C4F3404444EA430421F4706144EA80049A
:109E800021F00F0144EA05230B43C2F80032002001
:109E9000C4E70725D5E70425D3E70525D1E7032542
:109EA000CFE7630341BF012372688B40D360CEE7E5
:109EB0002A4AD5E71036394630460DF1020200F045
:109EC000DDFE14F4403F80460CD13946304602F0A6
:109ED0000CFD234B9845DAD130469DF8021000F076
:109EE00015FFD4E74FF0000901AB3946304603AA0D
:109EF000CDE90439CDE90199CDF80C9000F076FD5B
:109F0000174B984288D114F4003315D09DF80330D4
:109F100084F48034C4F300448DF80E3039464B4647
:109F2000304603AA8DF80C508DF80D4000F01EFE4F
:109F30000B4B9842CDD06FE7CDE9043339460DF194
:109F40000303304603AA039300F050FDF0E780338B
:109F500052F82330FFDE00BF00088C4100058C4121
:109F60000000AD0B0123834070B5DC430B4AD2E8FF
:109F7000EF1F01EA0405C2E8E65F002EF7D14FF4B7
:109F8000803282400648C0F80823BFF35F8FBFF3DA
:109F90006F8F0B4214BF0120002070BDB40200215E
:109FA0000060014170B40E4922F07F46D1E90034CF
:109FB000D01AC31844F10004C1E90034A6F5001317
:109FC000B3F5400F09D2074B1B681A0A1B069C19F0
:109FD000054B42F10005C3E9004570BC01F0C6BD68
:109FE00048000021B802002150000021D9B101230E
:109FF0000D4A8340D2E8EFCF4CEA030CC2E8E1CF30
:10A000000029F7D14FF48033084A8340C2F8043363
:10A01000074BD3E8AF3FC340DB0742BF4FF480029A
:10A02000044BC3F800217047B402002100600141D5
:10A03000B002002100E100E00D4B1868010A0006A3
:10A04000BFF35F8F0B4BD3F80435181841F10001B3
:10A05000B3F5801F0AD2084BD3E90023904271EB7D
:10A06000030303D210F1807041F10001704700BF7B
:10A07000B802002100600141500000212DE9F04F9D
:10A0800085B016461F4604469DF840A0FFF76AFFBC
:10A090000190FFF7D1FFB04271EB070352D23B4B67
:10A0A000301A67EB0101984271F100014DD2384B33
:10A0B00003EB0413D3E902239F4208BF964258D012
:10A0C0004FF48038334908FA04F8204626F07F4BD5
:10A0D000C1F8488302F064FB4FF00309584604F1CD
:10A0E0005005AD00ADB205F1824504F5A87305F544
:10A0F000B0350293029A20F07F4341F82230C1F834
:10A100004483D1F80435244AC01A033820F07F4034
:10A1100090422ED9286868B1D1F80435A3EB0B0022
:10A1200020F07F40B0F5000F039322D9204602F0C3
:10A1300037FB039BBAF1000F07D109EB030009F1CC
:10A140000109D7E7BAF1000F09D06FF015052046D5
:10A150000199FFF74BFF284605B0BDE8F08F0123BA
:10A160000E4AA340D2E8EF0F1843C2E8E10F0029DE
:10A17000F8D107490E982301C8500F9B01EB041238
:10A180000025C2E902675360E1E700BF01008000DB
:10A190003800002100600141FDFF7F00B002002176
:10A1A0007FB500254FF0FF304FF0FF31194C1A4BAF
:10A1B0000226C4F80833C4F84833184BC4F80855CD
:10A1C000C3E902014FF480334FF48002C4F8043332
:10A1D000134B0121C4F804631620C3F880212A46DA
:10A1E000FEF7CEFF1620FEF7AFFF01230D4AA36056
:10A1F000236013600C4B0D4A009328460023CDE9E1
:10A200000155FFF73BFF3046FFF792FC284604B0AC
:10A2100070BD00BF0060014103000F003800002145
:10A2200000E100E0B4020021A59F0001FFFF7F00D4
:10A230002DE9F74302F0E9F92E4BD3F804239007F8
:10A240000BD5D3F8042142B10022C3F804212A4AD5
:10A25000D3F80431136801331360264AD2F804336B
:10A26000D90326D5254BD3E8EF1F21F00100C3E821
:10A27000E40F002CF7D1CB0702D4D2F84031C3B1A0
:10A2800000251C4CC4F84051D4F84031FFF7D4FEEF
:10A29000EFF31182202383F31288BFF36F8F184BE3
:10A2A000D3E90267B042B94106D282F31188BFF305
:10A2B0006F8F03B0BDE8F0834FF0FF38D3E9001093
:10A2C0004FF0FF391D60C3E902894FF48033C4F8B1
:10A2D0004833C4F84051D4F8403182F31188BFF3B9
:10A2E0006F8F0029E5D0009032463B4628468847CC
:10A2F000DFE700BF00600141B8020021B002002189
:10A300003800002130B5431C124C85B005D0844282
:10A31000A8BF0446012CB8BF0124FFF78DFE0E4BE9
:10A320000C4DD3E90013401AB0F5000F0FD22218DC
:10A33000AA4228BF2A46002052180849CDE9010048
:10A34000009143F10003FFF799FE05B030BD2A46A6
:10A35000F1E700BFFFFF7F0048000021A59F00013B
:10A3600008B5FFF769FE024B1B68C01A08BD00BFA5
:10A37000480000212DE9F043224885B002F020FA80
:10A38000002604461F4B204FD3F83880DFF87C901E
:10A39000B04503D8002005B0BDE8F083636A97E8B4
:10A3A00007001D6801AB83E807000C221946284608
:10A3B00002F0C4FB78B975B122692B699A420AD1BF
:10A3C000AB69A2699A4206D8E2699A4203D96369E5
:10A3D0006A6993430CD0256A75B10D4801F07BFF83
:10A3E000002383F31188BFF36F8F0423184602DF25
:10A3F000E36801361C44CBE7484601F06CFF636A12
:10A400001D60F5E7008A0001F0CD00017ECF00015C
:10A4100055CF00010022D30003F1FF7303F5803311
:10A42000D3F80013013107D0D3F800130132D3F869
:10A430000433202A0B60EED1224BD3E94C32072B98
:10A4400026D1023A032A204B28D9D3F80024D10779
:10A4500032D41C4BD3F83021072A19D1D3F8343128
:10A46000023B032B02D8194AD35C8BB17F23184AD5
:10A470001849C2F818310023C1F8043EC1F8083E5B
:10A48000C2F82431C2F82C3102F57F22C2F8103113
:10A49000114B1A68114BC3F84425704710498A5C68
:10A4A000002AD2D0D3F80024D207CED50022C3F898
:10A4B0001421C3F81821C8E76FF00102C3F8002483
:10A4C000C7E700BF0000FF0100500041B1CF00010D
:10A4D00000200041000008410080FF0100600041B1
:10A4E000B5CF000130B50468ACB1B4FA84F30122F1
:10A4F000C3F11F03DBB29A4024EA0202D0E8EF5F07
:10A50000A54204D1C0E8EC2FBCF1000FF6D1EAD18E
:10A5100002480B7030BD0248FCE700BF0000AD0BE5
:10A520000200AD0B10B50368CB40DB0710D401234C
:10A530008B40026843EA0201D0E8EF4F944204D115
:10A54000C0E8EC1FBCF1000FF6D1F2D1014810BDFC
:10A550000148FCE70000AD0B0400AD0B014BC3F854
:10A560000405704700F000410146014800F01CB9A5
:10A5700004000021F7B5064618B301281FD10422B4
:10A580004FF48073014629480025C0F808130121C3
:10A5900042F2107402F1824203F1824303F5A043B8
:10A5A00002F5A04211601D608E421B681F4F8DF89E
:10A5B000071008BF0DF1070546B1012E23D003B0E7
:10A5C000F0BD0C224FF482730221DCE7D7F8183477
:10A5D00003F480333DB9002BF1D0012002F0FCF8E8
:10A5E000013CF3D1EBE7D7F8182402F003022A70FC
:10A5F000002BE4D09DF807000128E0D102F0ECF830
:10A60000013CD9D1DBE7D7F80C3403F480333DB9F2
:10A61000002BD4D0012002F0DFF8013CF3D1CEE7CB
:10A62000D7F80C2402F00102E1E700BF005000411E
:10A63000044B1A7922B9012218601A710248704736
:10A6400002487047BC0200210000AD0B0C00AD0BAE
:10A6500008B5084B1B6833B10520FEF783FD10B920
:10A660000520FEF771FD0122034BC3F81825C3F83E
:10A67000142508BDBC0200210050004110B510B1E6
:10A68000012848D010BD294BD3F81814D3F818244A
:10A69000C90324D502F00303022B05D0012B02D0FD
:10A6A0000020FFF767FF0123204A0220C2F8183577
:10A6B00008224FF48273002103F1824303F5A04383
:10A6C00019601C68012402F1824202F5A042146064
:10A6D000174A12681AB3154BC3F80403D2E7D3F82C
:10A6E0001424D207DFD5D3F81C2402F00302013A68
:10A6F000012AD5D80E4A12681AB10222C3F80423DF
:10A70000C0E7D3F80421002AFBD00022C3F80421BB
:10A71000D3F80431B6E700224FF48073CBE71A6810
:10A72000002AFCD019601B68ACE700BF0050004154
:10A73000BC020021F8B50126194C1A4FD4F8045375
:10A7400005B9F8BDB5FA85F0C0F11F00830003F527
:10A7500080739BB203F1824303F5A04306FA00F233
:10A760001968D2B225EA02050029E9D00021022A9F
:10A7700019601B68C4F808230DD1D4F81834D4F834
:10A78000183403F00303012B05D1C4F81825C4F8CD
:10A790000423A360D4E73B68C0B29847D0E700BF6A
:10A7A00000500041BC0200210079024B03EB001075
:10A7B000FFF798BE0C000021036803F01F025B093D
:10A7C000026004D0012B034818BF002070470248E4
:10A7D000704700BF00088C4100058C41034A4309C3
:10A7E000D35C00F01F001844C0B27047B9CF00011D
:10A7F00070B50546FFF7F2FF0C4C083034F8103006
:10A800000E46DA0508D5C3F3432304EBC3022846FA
:10A8100054F8333052689847A3682BB13146284624
:10A82000E268BDE87040184770BD00BFC402002157
:10A8300008B5FFF7D3FF034B083033F81000400B87
:10A8400008BD00BFC402002108B5FFF7C7FF034BD6
:10A85000083033F81000C0F3400008BDC4020021E6
:10A8600008B5FFF7BBFF034B083033F81000C0F307
:10A87000401008BDC4020021034611F0010010B5CC
:10A88000CCB20BD1A207C4F340000DD5074A106A21
:10A8900058601062003818BF012005E004490A6AB8
:10A8A0001A600A62002AEDD010BD00BF00088C417A
:10A8B00000058C4110B5FFF791FF124A083032F8BD
:10A8C0001030D9051CD5C3F3432123F4F85322F8E3
:10A8D0001030002002F10E0434F8023F13F4807FA0
:10A8E00003D0C3F3432399420AD001303028F3D177
:10A8F000002342F831300448BDE81040FFF712BE93
:10A9000010BD00BFC40200213C030021F0B5044685
:10A9100000200125064601F1825101F52151104A1E
:10A9200089008A420BD10F4BD3F87C2132B100222F
:10A93000C3F87C21D3F87C3140F00040F0BD02F137
:10A940003F43A3F521439B0805FA03F31C4204D0BF
:10A95000176817B11660176818430432E1E700BFA3
:10A9600000A1004100A00041F7B506460846FFF7E8
:10A9700035FF1A4F00F1080537F815300C46DB0794
:10A9800029D5304601F08EFF2046FFF769FF50B110
:10A990002046FFF74DFF0023316801EB8000C0F82F
:10A9A0001035C0F810352046FFF784FF002301A8BA
:10A9B00027F815300194FFF7FFFE019B00EB8300A1
:10A9C000D0F80022064B134043F00203C0F80032D7
:10A9D000044803B0F0BD0448FBE700BFC4020021F7
:10A9E000F0F0FCFF0000AD0B0400AD0B2DE9F043CF
:10A9F0001646804685B00846FFF7F0FE0C463168E3
:10AA0000054609B32046FFF71FFF18B12046FFF7A0
:10AA100027FF10BB00230DF10F02CDE900338DF8A5
:10AA20000E308DF80F3020460B460DF10E0101F06F
:10AA3000E1FE4A4A05F1080132F8113023F0020321
:10AA400043F0010322F8113073687BB320461F786E
:10AA50005968FFF7F9FE10B1E9B1414829E03F4AD2
:10AA600005F1080032F8103023F02003DB04DB0C82
:10AA700022F8103079B1032FEFD87168496891F846
:10AA800000C0D8F800104FEA8C094944A7B9C1F8B2
:10AA90001075C1F81075314A05F1080132F811300E
:10AAA00023F01C0343EA870322F81130B3685BBB31
:10AAB0002C4805B0BDE8F083D1F810E543EA4C33EB
:10AAC0002EF0030EC1F810E5D8F8001043F0200373
:10AAD00001EB090EDEF8101522F8103021F44F3189
:10AAE00021F44071CEF810152102DEF8108501F432
:10AAF0007C5141EA074141EA0801CEF8101502EB0A
:10AB00004C01A1F87C40C6E72046D3E90067FFF777
:10AB1000D1FE002ECCD0114CD4E90023964203D1B3
:10AB20009F4201D1002209E00F480DF10F01FFF70C
:10AB3000D9FC0C4B9842BCD19DF80F2004EBC2030A
:10AB400008355F6034F8153044F8326043EA422338
:10AB500043F4807324F81530AAE700BFC402002133
:10AB60000400AD0B0000AD0B3C0300212DE9F043C8
:10AB70000C46804685B0204611461E46FFF72EFE45
:10AB8000054629B32046FFF75FFE18B92046FFF7B8
:10AB900067FE18BB334F05F1080937F8193013F079
:10ABA0001C0F02D04B78012B18D001238DF80F30E9
:10ABB00000234A1CCDE9001320468B1C0DF10F0128
:10ABC00001F018FE37F8193043F0030327F8193065
:10ABD000002E44D02046FFF737FE18B9224805B0B2
:10ABE000BDE8F083002296F800C0D8F800301D4F71
:10ABF00003EB8C03C3F81025C3F8102505F10802F8
:10AC000037F812104FEA8C0E21F02001C904C90C4C
:10AC100027F81210757815B3D8F80000B67870448C
:10AC2000D0F810352D0423F4991323F4F853C0F809
:10AC30001035230203F47C5305F440353605D0F873
:10AC400010E52B4306F48016334341EA4C3143EAC6
:10AC50000E0341F02001C0F8103527F81210034808
:10AC6000BDE700BFC40200210400AD0B0000AD0B26
:10AC7000014BC3E902127047C402002110B5084617
:10AC80001446FFF7EDFD50B10846FFF7A7FD054B51
:10AC9000083033F8103004485B0B237010BD0348B4
:10ACA000FCE700BFC40200210000AD0B0400AD0BA7
:10ACB00070B50E4C064694F88C50A5B96022294612
:10ACC00004F1100001F032FF3068C0F87C51D0F878
:10ACD0007C3140F30730FEF737FA0123044884F84B
:10ACE0008C30A36770BD0348FCE700BFC40200219D
:10ACF0000000AD0B0C00AD0B034B93F88C0000383B
:10AD000018BF0120704700BFC40200210079024B28
:10AD100003EB8000FFF706BC1C0000210079024B0A
:10AD200003EB8000FFF7DEBB1C000021F7B50546F2
:10AD300008461746FFF794FD0C462968E0B1204607
:10AD4000FFF782FD0646B8B92046FFF771FD820085
:10AD500002F58073CE50CB582B681344D3F81025DE
:10AD600042F00102C3F8102527B101232A6883406D
:10AD7000C2F8043303B0F0BDD1F804332046002BF1
:10AD8000A4BF4FF00043C1F80433FFF727FD0F4B7A
:10AD9000083033F81030C3F38203042B11D0052B95
:10ADA00011D001A80194FFF707FD019A0369D34070
:10ADB00003F00103991C204603B0BDE8F04001F008
:10ADC00062BD0321F7E70221F5E700BFC4020021BD
:10ADD0002DE9F04F634B0821D3F8040387B0C0B2CC
:10ADE00040F00040FFF792FD051E2BDA00230321FF
:10ADF00004A8CDE90433FFF73FFD4FF000094FF001
:10AE0000010BDFF864A10DF110081AF8013B574956
:10AE1000DA088A5C03F0070322FA03F3DA071CD48A
:10AE200008F10408B9F1000F14D000214FF00040E0
:10AE3000FFF76CFD032104A8FFF71EFD0028DCD1FD
:10AE400025F000450124474E494F002D75D107B02C
:10AE5000BDE8F08F4FF00109D7E7464B4B44009314
:10AE6000D8F800100029DBD091FAA1F1B1FA81F1F4
:10AE7000009B1C7841EA44142046FFF7AFFC3C4B92
:10AE8000083033F81070C80818F8002001F00701E6
:10AE90000BFA01F122EA0102BB0808F8002003A81E
:10AEA00001930394FFF788FC039A019B803250F8CA
:10AEB0002220C7F382065B073746C2F3014221D541
:10AEC00020463946D6B2FFF793FC03A80394FFF758
:10AED00073FC039B803350F82330C3F301439E423D
:10AEE00007D10021204601F0CEFC3146204601F07A
:10AEF000CAFC03A80394FFF75FFC039B0BFA03F360
:10AF00000362ADE7022A0CD10321204601F0BBFC0D
:10AF100006F00503012BECD139462046FFF768FC0B
:10AF2000E7E702212046019201F0ADFC032EF3D0A9
:10AF3000019A032ADDD1022EEDE795FAA5F3B3FAC3
:10AF400083F304FA03F225EA020503F5A27256F828
:10AF5000221007EB4303B3F87C00C1F30141FFF774
:10AF600047FC72E700A00041C9CF00019CCE000160
:10AF7000C4020021C9CF000138B5EFF311852023A9
:10AF800083F31288BFF36F8F064B9C6801F0BDFC02
:10AF900085F31188BFF36F8F2046BDE83840FEF778
:10AFA0007BB800BF5403002138B50A4B53F820404A
:10AFB000013053F82050A54200D838BD606830B148
:10AFC000037FDB0701D401F0A3FC0834F3E7236817
:10AFD0009847FAE7A0CE0001012270B52A4B032062
:10AFE00086B01A70FFF7E0FFFEF73CFCFDF772FE3B
:10AFF0000420FFF7D9FF254C254D2646AE4204F12B
:10B00000300410D300F0BAFA204C224EAC4226D3C2
:10B0100000F0C8FA01F07BF81F4A137B23F001030C
:10B02000137306B070BD54F80C3C059354F8103CF3
:10B03000049354F8143C039354F8183C029354F8C6
:10B040001C3C019354F8203C009354E90A2354E932
:10B050000C0100F027F954F8303C5E65CDE7D4E9E7
:10B060000A23B3F1FF3F08BFB2F1FF3F05D052EA18
:10B070000301206803D100F051FB3034C6E73146AC
:10B08000183000F0E1FCF8E786030021ACCD0001A8
:10B09000ACCD000135CA0001D800002108B5034835
:10B0A000034A0021121A01F04AFC08BD38000021B1
:10B0B000880300210023012270B586B0CDE9042366
:10B0C0000F220193CDE9023214230F4D0F4E03FBE3
:10B0D00000550F4906EBC016044601EB00214FF462
:10B0E000807230460B4B009500F0DCF8737B2C74BB
:10B0F00023F004037373084B013403EBC423EE60A5
:10B100006B6006B070BD00BF5403002158000021E1
:10B11000880B002147C9000188030021BFB500202A
:10B12000FFF742FF2A4B03F5006282F3088883F39E
:10B130000A880024E023274D274F85F82230EC773A
:10B140002C766C76AC7685F820406B6A43F4E0236D
:10B150006B6285F82340FDF71DFFFEF771F84FF095
:10B16000FF33AB62EB62FEF7F7F9FEF78DF81B4891
:10B1700000F0D6F801F0CCFCFEF76CFB0120FFF7E5
:10B1800013FF0220164DFFF70FFF00F03FFA154B9B
:10B1900015495D61154B4FF48062059301232846E4
:10B1A000CDE90343CDE901443B46009400F07AF831
:10B1B00006466A7B284622F004026A7301F00EFC00
:10B1C0002046FFF777FF3A4631462846FEF718F843
:10B1D0008803002100ED00E0D9AF000158010021F3
:10B1E000D800002154030021880C0021CBCF00019E
:10B1F00070B5EFF31186202383F31288BFF36F8FAE
:10B200000468A0421AD0CCB1D4E900320025136002
:10B210005A60637BC4E9005523F002036373A560A1
:10B2200004F1180001F048FC2046A56701F0D6FBA8
:10B230003146BDE87040074800F07AB9D0E90232E3
:10B240009A4218BF0133836086F31188BFF36F8F72
:10B2500070BD00BF8703002113B5EFF311812024D7
:10B2600084F31288BFF36F8F846844B1013C84601B
:10B2700081F31188BFF36F8F002002B010BD52EA36
:10B28000030406D181F31188BFF36F8F6FF00F00B5
:10B29000F3E7CDE900230246014800F027F9ECE787
:10B2A000870300212DE9F043984685B000F158034B
:10B2B000C0E91633109B002603730423073222F0E3
:10B2C000070543730F9B01EB05090F46837349463E
:10B2D000C0E906668660C6730446FDF70DFD0E9B49
:10B2E000073020F00700A066C4E9187502930D9B93
:10B2F000A9EB000901930C9B4A460093394643464B
:10B300002046FDF761FF054B66659B6803B1DB6E68
:10B310004846E36605B0BDE8F08300BF5403002152
:10B3200040F2011383810023C0E91833C366014B47
:10B3300098607047540300216FF00A01084A93682F
:10B340009967084958674B6843F080534B60002366
:10B3500083F31188BFF36F8F9368986F704700BFB6
:10B360005403002100ED00E070B590F90D20437BFF
:10B37000002A36DBD90634D11B4C63F07F0322460A
:10B38000437352F8183FE169934207D1C0E90021A5
:10B390000860E06111E09942F8D01B68002BF5D0FD
:10B3A00090F90E5093F90E60B542F4D0AE42F2DD42
:10B3B0005968C0E9003108605860A569954200D01D
:10B3C00005B9E568A3685A7BD20604D1DA897F2AD9
:10B3D00001D9AA6932B1AB4202D0284600F092FAF4
:10B3E000656170BD6361FCE75403002138B590F9D5
:10B3F0000D200146002A437B04DA03F07F034373E8
:10B4000001F0B2FA0D4D2A4652F8184FAB6894423B
:10B4100000D004B9EC688B4207D05A7BD20604D125
:10B42000DA897F2A01D9A2692AB1A34202D0204633
:10B4300000F068FA23466B6138BD00BF5403002159
:10B44000B3F1FF3F08BFB2F1FF3F03D0024918300C
:10B4500000F0FABA704700BF35CA000170B590F924
:10B460000D200146002A437B04DA03F07F03437377
:10B4700001F07AFA1C4C4B7B224663F07F034B733E
:10B4800052F8183FE069934207D1C1E900200160FA
:10B49000E16111E09842F8D01B68002BF5D091F9DA
:10B4A0000E5093F90E60B542F4D0AE42F2DD58680A
:10B4B000C1E9003001605960A569A368954200D0D8
:10B4C00005B9E5688B4207D05A7BD20604D1DA89E8
:10B4D0007F2A01D9AA692AB1AB4202D0284600F0DE
:10B4E00011FA2B46636170BD54030021F8B5DDE904
:10B4F00006670D4B0C46986811460C4A1060EFF336
:10B500001182202282F31288BFF36F8F9D68284634
:10B5100001F03CFA284632463B46FFF791FF2046B1
:10B52000BDE8F840FFF708BF540300217403002171
:10B5300049B9EFF3058030B9054B5A699B689A42C7
:10B5400001D0FFF7F9BE81F31188BFF36F8F704709
:10B5500054030021034648B9EFF3058232B9064A85
:10B5600051699268914201D0FFF7E6BE83F31188DA
:10B57000BFF36F8F704700BF54030021EFF31181B9
:10B58000202383F31288BFF36F8F054B9A68D37B18
:10B59000013BD37381F31188BFF36F8F704700BFF6
:10B5A0005403002170B5EFF31186202383F3128832
:10B5B000BFF36F8F144DAB68DA7B0132DA732A4622
:10B5C00052F8184F944200D004B9EC685A7BD20666
:10B5D00004D1DA897F2A01D9A2692AB1A34202D013
:10B5E000204600F08FF923466B6186F31188BFF384
:10B5F0006F8FEFF31180202383F31288BFF36F8FD7
:10B60000BDE87040FFF7A6BF54030021024B03F1D1
:10B610001802C3E9062270475403002170B5EFF306
:10B620001186202383F31288BFF36F8F1B4CA16810
:10B63000E0690B68814214BF1A46002249680B601A
:10B640005960A368E1692AB9154AC3E900210B6072
:10B65000E3610CE093F90E0092F90E50A84218D065
:10B66000854216DD5168C3E900210B605360A5696E
:10B670000B4B9D4200D005B9E568A3689D4202D0FE
:10B68000284600F03FF965613046BDE87040FFF79D
:10B6900053BE8A42D8D01268D5E700BF54030021B8
:10B6A0006C030021F8B550EA010306460C4603D1AD
:10B6B000FFF7B4FF0020F8BDEFF31187202383F3D9
:10B6C0001288BFF36F8F124D124BA8681860FFF7F6
:10B6D0008DFEA868234632460F49183000F0B4F9B1
:10B6E000AA680446537B384643F004035373FFF7BC
:10B6F00023FEAB68D3E90A23B3F1004F08BF002A49
:10B70000D8D101F001FA201A20EAE070D3E700BF97
:10B71000540300217403002135CA000138B50446E2
:10B72000EFF31185202383F31288BFF36F8F437BE0
:10B730005B070FD5183001F0BFF9637B204623F07B
:10B7400004036373FFF710FE2946BDE83840044840
:10B75000FFF7EEBE85F31188BFF36F8F38BD00BFD2
:10B7600087030021014B9868704700BF54030021F4
:10B770002DE9F8430446077BEFF31185202383F37B
:10B780001288BFF36F8F437B190705D585F31188A6
:10B79000BFF36F8FBDE8F883D90943F008025AD18F
:10B7A0004273A36813B1204601F0E6F804F11800D3
:10B7B00001F082F9A66D04F15808B04511D04FF0A0
:10B7C000000976B1304601F0D7F806F1180001F013
:10B7D00073F93046C6F87890FFF7C6FDA66DB04500
:10B7E000EFD1DFF8B880D8F808309C423BD1EFF3B6
:10B7F0000589B9F1000918BF4FF00109D8F81860A0
:10B80000274A964200D00EB9D8F80C60B34202D055
:10B81000304600F077F8C8F81460B9F1000F02D094
:10B820002048FFF77DFDD8F808309C4231D1EFF376
:10B83000058373BB227BD20718D42846FFF77CFD13
:10B84000FB07A7D5002383F31188BFF36F8F042371
:10B85000184602DF9EE703F07F0343F008034373BB
:10B8600001F082F89DE74FF00009C7E785F31188E2
:10B87000BFF36F8F83F31188BFF36F8F04231846D4
:10B8800002DFEFF31180202383F31288BFF36F8F61
:10B89000D4E785F31188BFF36F8FD1E754030021FC
:10B8A0006C030021580100210122044BC01A044BF3
:10B8B000C0105843034B1A54704700BFD8010021F1
:10B8C000ABAAAAAA87030021C3897F2B12D80A4BEF
:10B8D0001B6863B1094B90F90E201B689A4209DB83
:10B8E000437BDB0606D1064BC31A18BF012303F0C6
:10B8F000010070470023FAE72000002178030021AF
:10B900005800002170B50E4B0E4C1E7C182303FB13
:10B9100006440546204601F0CFF800220A4B28468F
:10B920009A55FFF7D1FF48B1084B2046BDE870405B
:10B930001A680749013AD31700F086B870BD00BFF6
:10B9400054030021D8010021870300212000002199
:10B95000A9B8000138B5EFF31185202383F31288CD
:10B96000BFF36F8F104B114A9C681068A04206D13C
:10B97000FFF7C8FF85F31188BFF36F8F38BD002133
:10B980001B7C11600A4AD35C002BF3D02046FFF7E2
:10B990009BFF0028EED0637BDB0602D12046FFF739
:10B9A0005DFD2046E4E700BF54030021740300213D
:10B9B00087030021074808B5074A0849121A00F012
:10B9C000C0FFBDE808400648064A0749121A00F0C1
:10B9D000B8BF00BF0000002134000021E4CF000107
:10B9E0000000002100000021E4CF0001024B186894
:10B9F000984208BF0020704724000021034B1B68B9
:10BA00000BB9FEF7ADBC0020704700BF7C030021DE
:10BA100030B570B10B4B5B6898420AD0036843B1F4
:10BA2000D3E90421D0E90445121941EB0501C3E92A
:10BA30000421D0E9003213605A600023C0E90033CA
:10BA400030BD00BF24000021B3F1FF3F08BFB2F1B9
:10BA5000FF3F2DE9F84F0446994615461F467BD017
:10BA60008160EFF31188202383F31288BFF36F8F77
:10BA7000013279F1FF33DFF8E8A020DBFFF7BEFFEA
:10BA8000DAE90027013549F100092D1849EBE07387
:10BA900006464FF00109C4E90453AD1843EB07070C
:10BAA000FFF7A4FF0346DFF8BCE0DEF804A0EBB923
:10BAB000C4E900EACAF80040CEF8044028E06FF07C
:10BAC0000103DAE900125B1A4FF0FF3161EB020269
:10BAD0005B1B62EB0902012B72F10001BCBF012369
:10BAE00000224FF00009C0E90432D9E7D3E9041C71
:10BAF000D4E904208A4270EB0C0B24DA891A5A68C4
:10BB00006CEB0000C3E90410C4E9003214605C600F
:10BB1000FFF76CFF84420ED1134B1B685BB9B9F180
:10BB2000000F02D1FFF76AFF0646304600F0ADFF76
:10BB30000021FEF7E7FB88F31188BFF36F8F2846DB
:10BB40003946BDE8F88F521A60EB0C009A45C4E9FB
:10BB50000420ADD01B68AAE700252F46EFE700BF01
:10BB6000F0010021240000217C0300212DE9F04791
:10BB7000EFF31185202383F31288BFF36F8FDFF873
:10BB8000A0900026C9F800000027FFF72FFFDFF87C
:10BB90009480D9F80030D8E900ECD91750B1D0E939
:10BBA0000442A34271EB020A1BDAE41A62EB0102BF
:10BBB000C0E90442002413EB0E034CEB01012046C4
:10BBC000C8E90031C9F8004000F05FFF2146FEF7E8
:10BBD00099FB85F31188BFF36F8FBDE8F047FFF73E
:10BBE000B9BE14EB0E024CEBE473C0E90467C8E97C
:10BBF0000023FFF70DFF85F31188BFF36F8F836874
:10BC00009847EFF31185202383F31288BFF36F8FDA
:10BC1000D9F800301B1BC9F80030FFF7E7FEB8E782
:10BC20007C030021F001002110B5EFF311842023E3
:10BC300083F31288BFF36F8FFFF7E0FE0346054AD8
:10BC4000D2E90001181841EBE37184F31188BFF3C6
:10BC50006F8F10BDF00100212DE9F04F43688DB0CA
:10BC600015468046029383789A0740F10D8100249F
:10BC70000E78002E00F00A81252E0BD04B1C03936A
:10BC8000013441463046029B98470028C0F2F680B6
:10BC90000399EDE74E788B1C252E0393F0D00027F7
:10BCA000B946BB46BBF11F0F38D8A6F12003102BB5
:10BCB0000AD8DFE803F02A0909300909092109092E
:10BCC0000928092D09091F00A6F13003092B33D9D2
:10BCD0002A2E37D11BF0400F55F8043B40F08280EC
:10BCE000002BA7BF4BF0200B9946C3F100094BF086
:10BCF000280B01E04BF0010B039B13F8016B03933E
:10BD0000002ECFD130E04BF0020B4BF0040BF3E7E9
:10BD10004BF0080BF0E74BF0100BEDE7BBF17F0F9A
:10BD200019D8A6F13003092BD2D81BF0400F03D04D
:10BD30000A2101FB0737DFE70A214BF0200B01FB4B
:10BD40000939D9E72E2E06D11BF0400F40F09E8016
:10BD50004BF0400BD0E76C2E31D02BD8682E36D06C
:10BD60006A2E3CD04C2E3AD0002F46F02003B8BFAC
:10BD70002BF04002A3F16501BCBF00271FFA82FB34
:10BD8000022901D9612B2FD107350727DFF8ACA293
:10BD900025F0070508351BF0080F66D00AEB070BE6
:10BDA00056465E4563D1A4EB0A0AA9EB070906EBE8
:10BDB0000A026FE1742E9FD07A2E9DD0D4E71BF03B
:10BDC000800F18BF4BF4007B4BF0800B94E71BF403
:10BDD000807F18BF4BF4007B4BF4807B8CE74BF4E7
:10BDE000207B89E71F4687E7A6F16301122900F24D
:10BDF000F080DFE811F013004F00EE00EE00EE00DF
:10BE0000EE004F00EE00EE00EE00EE00EE00FE0051
:10BE1000E900EE00EE001B00EE00AF0055F8043B19
:10BE200001270DF1180A8DF81830B4E755F804AB66
:10BE3000834BBAF1000F08BF9A461BF0400F5046E3
:10BE400014BF39464FF0FF3100F088FE0746A2E7E5
:10BE500041462020029B984700280FDB013EB74255
:10BE6000F6D34C44B146A41B98E74E46F7E741464B
:10BE700016F8010B029B9847002892DA98F80230D6
:10BE800043F0040388F802304FF0FF3420460DB031
:10BE9000BDE8F08F1BF0800F34D01BF4007F2CD056
:10BEA000073525F00705AA4669685AF8080B2BF0F4
:10BEB00010050029ADB237DA404245F4806561EBE8
:10BEC00041010DF1180B0A235A4600F053FEA0EB76
:10BED0000B0301936B0662D5019B25F001019F4284
:10BEE00089B240F3A180002E00F0998015F0100275
:10BEF00040F09C80BB460D4623E0AA465AF8040B4E
:10BF0000C117D4E7AA461BF4807F5AF8041B01D15D
:10BF10000846F5E71BF4007F19BF48B241F3C01192
:10BF200008B241F3C031C2E750EA0103C9D11BF0A6
:10BF3000400FC6D0002FC4D12BF01102BB46019791
:10BF400095B240F2064115EA01021CBF0BF1010B4C
:10BF500000222CE02BF010020A231FFA82FB1BF0B8
:10BF6000800C49D01BF4007115BF0735AA4625F097
:10BF700007055AF8040B1EBFAA4669685AF8080B51
:10BF800050EA010545D12BF016051BF0400FADB26C
:10BF900042D0002F40D12BF01702019795B215F037
:10BFA000100248D0019B002E42D103F1010B29075A
:10BFB0005AD4EB0706D5D9456FDDA9EB0B030199E0
:10BFC000CB465F185B4649E04BF0100B10237826F8
:10BFD000C5E7782B04D1C6F1780343F01003BEE720
:10BFE00041462520029B98470028FFF647AF0234C0
:10BFF00047E608230026B2E7AA461BF480715AF8E8
:10C00000040BBDD01BF400711ABFC0B2614680B2F0
:10C01000B6E72BF0060295B20DF1180B54E725F0A8
:10C020001105BB46ADB28CE70D46B8E73B460D4661
:10C0300003F1020BBBE7DDF804B082E7D7CF0001C4
:10C04000D0CF0001CDE9043241462020029B984721
:10C050000028FFF613AF049B059A01339945F1DCE4
:10C06000A4EB0B019B46CC180AB341463020029B3F
:10C0700098470028FFF602AF8EB901342744391BD8
:10C08000019B994224DC1D4655BB019AA9EB0B0983
:10C09000554622441446914433E0019F92E702340E
:10C0A00041463046029B98470028E7DAE6E640F230
:10C0B00006410D42E2D015F0020F04F101044146A1
:10C0C00014BF2B20202015F4806F18BF2D20E9E726
:10C0D00041463020029B013498470028CFDACDE654
:10C0E00006AB013D4146585D029B98470028CBDADC
:10C0F000C4E641462020029B013498470028FFF601
:10C10000BDAEA9EB0403002BF3DCC1E570470020B2
:10C110007047836800EBC101B3F5004F2CBF51F8A5
:10C12000220031F81200704700EBC1018068B0F5C1
:10C13000004F2CBF41F8223021F812307047012205
:10C1400008B5FFF7E6FFD04008BD836800EBC101EA
:10C15000B3F5004F08D34B681AB143F001034B60AD
:10C16000704723F00103FAE74B881AB143F001034B
:10C170004B80704723F00103FAE753000122FFF7D9
:10C18000D3BFB0F5004F34BF04230823481C083345
:10C19000A0EBD300B0FA80F0C0F11F0070472DE98A
:10C1A000F0410D4686680446FFF7C9FFB6F5004F1B
:10C1B000014601D3012832D03046FFF7E2FF04EBFD
:10C1C00080010E6996B90122E36882401343E3605F
:10C1D00002220D612B4629462046FFF7A5FF0322C8
:10C1E00029462046BDE8F041FFF79EBF02223146B6
:10C1F0002046FFF78EFF0746034629462046FFF7F5
:10C2000093FF0322334629462046FFF78DFF394628
:10C210002B462046FFF788FF02223146E1E7BDE8C2
:10C22000F081B2F5802F2CBF082304232DE9F041C3
:10C230000026D21A8C18CD1D25F0070524F007041E
:10C24000641BE408056021462046AC60EE60FFF701
:10C2500098FF421D9200013002F107074FEAD7070D
:10C260003146A2F1100205F11000B8BF324600F0CD
:10C270005DFC3A4631462846FFF77FFF334632469B
:10C2800031462846FFF750FFA4EB07082846314601
:10C290000122FFF75AFF42463946FFF76EFF3B4641
:10C2A000324639462846FFF73FFF21462846FFF72A
:10C2B00064FF4346324621462846FFF735FF2146B4
:10C2C00028460122FFF741FF3946BDE8F041FFF75C
:10C2D00066BF002070470FB407B504A951F8040BDE
:10C2E0000191FCF7B1FB03B05DF804EB04B07047BB
:10C2F000038B13F0070305D10368002B0CBF00204C
:10C3000003207047022B05D1408BB0FA80F0400922
:10C3100080007047012B05D10368002B0CBF002063
:10C32000052070470020704710B50C4600B111B9C8
:10C330006FF0150010BD081D00F093F80028F9D12A
:10C34000A368032BF6D9F3E72DE9F0410D46074624
:10C350001946281D90461E4600F094F8044638B150
:10C360003346424629463846A446BDE8F041604778
:10C37000BDE8F08110B4EFF31182202484F3128819
:10C38000BFF36F8F416110BC0121FCF78FBB38B543
:10C390000C46054658B151B10B6843B14B6833B1F7
:10C3A0001C22002100F0C2FB00202C6138BD6FF080
:10C3B0001500FBE770B505460E46FFF7B5FF041EF6
:10C3C00014DBEFF31182202383F31288BFF36F8F06
:10C3D0004FF6FF716B8B2C8B8B4204F0070407D157
:10C3E00082F31188BFF36F8F6FF00A04204670BD8F
:10C3F000022C0CD101336B8382F31188BFF36F8F52
:10C400000023224631462846FFF79EFFEEE7062C22
:10C4100014D8DFE804F004131313041A04000023F3
:10C4200033606B683BB9C5E90066ACB902212846A8
:10C43000FCF73CFBDAE71E606E60F6E782F31188DA
:10C44000BFF36F8F6FF00404D0E782F31188BFF35E
:10C450006F8F6FF08504C9E782F31188BFF36F8F88
:10C46000C4E7034658B1426802F00302012A03D030
:10C47000032A04D1026812B10020986070476FF05F
:10C48000150070474268034602F00302032A4FF08A
:10C490000002816014BF104600685A607047704700
:10C4A000012801D1EFF30583FEF766BD0146006860
:10C4B000FFF7F6BF08B5FCF71BFCBDE80840FCF72A
:10C4C0003BBC00210120FFF7EBBF08B5FCF76EFE77
:10C4D000FEF7E4FDFFF76EFAFCF7B8FEFEF71EFE6E
:10C4E000036E83F30B88704761B662B680F31188E0
:10C4F000BFF36F8F704708B5FDF7E0F872B6002301
:10C5000083F31188BFF36F8FFDF756F950B1BFF376
:10C510004F8F30BF00BF00BF00BF00BF00BF00BFD4
:10C5200000BF00BF62B6BFF36F8F08BD10B50446F1
:10C53000FDF7C4F872B6002383F31188BFF36F8F41
:10C54000FDF73AF950B1BFF34F8F20BF00BF00BFD6
:10C5500000BF00BF00BF00BF00BF00BF84F3118851
:10C56000BFF36F8F62B610BD40E800F313F4803F55
:10C57000D8B208BF6FF01500704730B50C684B6833
:10C5800085B00A894D890094013B24F01F0423449F
:10C5900002F01F0242EA451223F01F0369468DF89C
:10C5A00008200393FCF7A6FE05B030BDF0B5D0F827
:10C5B0000473064617F002001CBFC2F180701860B9
:10C5C0004FF0000518BF01204FF0010C4FF4803EE2
:10C5D0000CFA05F40C4214D00EFA05F43C4210D0CB
:10C5E00005F5A87456F82440A41A34F07F4408BF17
:10C5F0004FF0807408B91C6002E01868A042FAD8B5
:10C6000001200135042DE3D1F0BDFDF745B80C2222
:10C610000369C9B201FB0233186C00F007007047D0
:10C6200070B5C9B20369EFF31185202484F3128831
:10C63000BFF36F8F0C2606FB0134246C14F0C0048A
:10C6400008D0A24206D085F31188BFF36F8F4FF058
:10C65000FF3070BD012206FB01331A6485F3118897
:10C66000BFF36F8F436803EBC1035B6898470020FB
:10C67000EFE78022FFF7D4BFF8B5069F0469C9B27F
:10C68000EFF31186202585F31288BFF36F8F0C25F9
:10C6900005FB0144256C05F0070CBCF1010F0CD122
:10C6A000276486F31188BFF36F8FC4E90E234368B4
:10C6B00053F8313098470020F8BD05F0C005AF426F
:10C6C00086F31188BFF36F8F0CBF6FF077004FF0C8
:10C6D000FF30F1E713B580240094FFF7CDFF02B0DF
:10C6E00010BD10B41C240069CBB203FB0400002170
:10C6F00010BC10470020FDF7C1BF002000F078B843
:10C700001046FEF775BD436800205B681B690B602F
:10C710007047436802EA01005B6821EA0201986001
:10C720000020D9607047436800205B6899607047BB
:10C73000436800205B68D960704743685A68536853
:10C7400021EA03000B4090600020D360704710B5D1
:10C7500003695868F8B1884219D19C680868A142F9
:10C76000586000D19860002008602AB15A680A60B9
:10C770009A68596002B99960002010E0814206D1A0
:10C780000868206098688142EDD19C60EBE7044620
:10C7900000680028F2D1002AE8D16FF0150010BD22
:10C7A000002200F150039B009BB203F1824303F58A
:10C7B000B0331A601B68704708B5FDF73DFC08BD33
:10C7C00003465A6B00233C309A4200D17047C1683F
:10C7D00001330844F8E7004700F08BB840F0004010
:10C7E000C1F88000704740F00040C1F880007047F9
:10C7F000FDF7C0BEF7B51646DDE90847019001A870
:10C800001D46FDF7D9FF019BB6F1000C18BF4FF094
:10C81000010C00EB83000B1E18BF0123002D43EA1F
:10C820004C0314BF4FF00C0C4FF0000C002C43EAEB
:10C830000C0314BF4FF4706C4FF0000C002F43EA50
:10C840000C0314BF4FF4403C4FF0000CD0F8002212
:10C8500043EA0C0322EA030301B109780EB13678EA
:10C86000760019430DB12D78AD0031430CB1247819
:10C87000240229430FB13F783F040C433C43C0F8E6
:10C88000004203B0F0BD1FB50DF10F03019300236B
:10C890008DF80F101A4619460093FFF7ABFF05B04D
:10C8A0005DF804FB38B5054608460C46FDF7D8FF91
:10C8B000A8B10846FDF7C8FF88B90846FDF7B8FFDC
:10C8C00001232A688340C2F808332B6803EB8000F9
:10C8D000D0F8103523F00303C0F8103538BD2046DA
:10C8E000BDE838400021FFF7CEBFFEF73DB8FFF7A7
:10C8F000D9BF08B1FDF706B87047EFF311832023C5
:10C9000083F31288BFF36F8FFEE708B5FFF7F5FFDB
:10C9100010B54369044633B90020E268537843F008
:10C920000103537010BD98470028F5D00028B8BF08
:10C930004042FF28A8BFFF20E3681870EDE700F031
:10C94000F5B800F0E6B8202408B5EFF3118384F3BE
:10C950001288BFF36F8FFFF7CEFDF6E7EFF3058088
:10C96000003818BF01207047D0E9003213605A60C8
:10C970000023C0E90033704708B5FFF7F5FF437B9C
:10C9800023F0020343730023836008BD38B50446D7
:10C990000D46FEF72BFD637B43F002036373E5B1A5
:10C9A000A5602B689D4209D16B68C4E900531C60E7
:10C9B0006C6012E06A689A42F6D01B68002BF3D0D4
:10C9C00094F90E2093F90E108A42F3D09142F1DDD2
:10C9D0005A68C4E9003214605C6038BD10B5EFF3EA
:10C9E0001184202383F31288BFF36F8FFEF7BCFC02
:10C9F00084F31188BFF36F8F10BD014610B5EFF3BC
:10CA00001184202383F31288BFF36F8F437B13F0CD
:10CA1000280F0AD183680BB1FFF7AEFF4B7B0846A6
:10CA200023F004034B73FEF79FFC84F31188BFF3DC
:10CA30006F8F10BD01211838FFF7DFBF38B50446EE
:10CA40000D46FEF72FFEB5F1FF3F08BFB4F1FF3FE3
:10CA50000246204618D000204FF47A7447F6FF7340
:10CA60000146C2FB0431B3F5004F71F100020BD354
:10CA70006FF400429A4243F6FF728A4132BF6FF070
:10CA80000040D80B40EA414038BD08B50246FEF7E9
:10CA9000ADFF70B1D0E904319B1A61EBE272B3F1E2
:10CAA000004F72F1000104DA002AACBF18460020E2
:10CAB00008BD6FF00040FBE7024638B5EFF3118583
:10CAC000202383F31288BFF36F8F0368CBB1FEF787
:10CAD0008DFF04461046FEF79BFF00224FF00043F7
:10CAE0008442C0E9042306D1FEF788FFFFF7CDFF9B
:10CAF0000021FDF707FC002085F31188BFF36F8F3D
:10CB000038BD6FF01500F7E708B5FFF78DF808BDE1
:10CB100070470A44431E914200D1704710B511F886
:10CB2000014B914203F8014FF9D110BD0244034675
:10CB3000934200D1704703F8011BF9E70139024421
:10CB400010B5904201D1002005E0037811F8014FA3
:10CB5000A34201D0181B10BD0130F2E70246014488
:10CB600010B58A42134603D01C780132002CF8D14C
:10CB7000181A10BDF0B5C3F13707044603F01F03C0
:10CB80001046FFB2082BE6B232D0102B3DD065081C
:10CB9000A40845EAC17544EA81748A082D1942EB5C
:10CBA0005102290941EA02716D1842EB1212290A59
:10CBB00041EA02616D1842EB1222290C41EA02415E
:10CBC0006D1842EB1242AD1842F10002EC0844EA43
:10CBD0004274D10804EB8402A6EB4205EDB2092DA4
:10CBE0000CD90134A5F10A0541F10001EDB212E0C2
:10CBF000E40806F0070544EA4174C908303554EAF0
:10CC0000010200F8015BBDD1F0BD240906F00F055B
:10CC100044EA01740909092D84BFED19EDB2EDE76D
:10CC20000148006870470000F80100210000000082
:10CC30005CCC0001000000009CCC00010000000062
:10CC40007CCC0001A1A1000100000000759600014C
:10CC50000000000075A30001000000002ACF0001C1
:10CC600058CE0001D0CD00012C000021440200214B
:10CC7000C1990001000000000000000039CF000150
:10CC800068CE0001ACCD00012E00002198020021E9
:10CC9000919D0001000000000000000047CF00014E
:10CCA00080CE0001ACCD000130000021A4020021A3
:10CCB000919D000100000000000000000000000045
:10CCC000C3C4000100000000C3C400010000000054
:10CCD000C3C4000100000000C3C400010000000044
:10CCE000C3C4000135A70001D7C700010000000040
:10CCF000C3C4000100000000C3C400010000000024
:10CD0000C3C4000100000000C3C40001D1AD000194
:10CD1000D7C7000100000000C3C4000100000000EC
:10CD2000C3C4000100000000C3C4000100000000F3
:10CD3000C3C4000100000000C3C4000100000000E3
:10CD4000C3C4000100000000C3C4000100000000D3
:10CD5000C3C4000100000000C3C4000100000000C3
:10CD6000C3C4000100000000C3C4000100000000B3
:10CD700031A2000100000000C3C400010000000057
:10CD8000C3C4000100000000C3C400010000000093
:10CD9000C3C4000100000000C3C400010000000083
:10CDA000C3C4000100000000C3C40001D99D0001FC
:10CDB00007C7000113C7000127C7000131C70001E1
:10CDC0003BC70001259C00014FC700010000000087
:10CDD000199A000173C60001D5C6000100000000C9
:10CDE0000FC600010000000000000000FFFFFFFF71
:10CDF000DEE61E28EAAC45B802350000DEE61E2855
:10CE00004CBBCE8F02350000000000000000000087
:10CE10000338FDD87047000000000021000000002A
:10CE200006000100020000002CCE000100000001FD
:10CE30001BCF000106000000E0FF030100000021FD
:10CE400023CF000121000000E0FF002149990001EB
:10CE50001999000100000000999A00018D990001C4
:10CE6000F5C60001FBC60001FFFF000000088C4171
:10CE7000000000000100000000A0004100000000D0
:10CE8000FFFFFFFF00058C410000000000000000D4
:10CE900000A00041000000000800000003000000A6
:10CEA0002CCC00012CCC000144CC00014CCC000166
:10CEB0005CCC00015CCC00012A2A2A20426F6F74EE
:10CEC000696E67206E524620436F6E6E65637420F4
:10CED00053444B2076332E312E302D366336653554
:10CEE00062333234393665202A2A2A0A002A2A2A4D
:10CEF000205573696E67205A6570687972204F53A8
:10CF00002076342E312E39392D31363132363833C0
:10CF10006434303130202A2A2A0A00464C415348D2
:10CF20005F30005352414D5F3000636C6F636B4064
:10CF30003431303035303030006770696F40343113
:10CF4000386330383030006770696F40343138638F
:10CF500030353030004552524F523A2043616E6EA8
:10CF60006F742066756C66696C6C204558545F411F
:10CF7000504920726571756573742E0D0A00574112
:10CF8000524E494E473A204F7074696F6E616C2063
:10CF90004558545F4150492072657175657374201E
:10CFA0006E6F742066756C66696C6C65642E0D0A14
:10CFB000000000000101000000002030303030305F
:10CFC00030303030303030303000016D61696E000B
:10CFD000286E756C6C29002A666C6F61742A0000DB
:10CFE00000880001D3C2000100F0004100000000F1
:10CFF000FFFFFFFF3F000000FFFFFFFF3F000000BB
:10D00000FF00000090020000240000212400002105
:10D01000000000000000000015E015E0DEE61E281C
:10D02000838451860235010000880001DA3B5C48A8
:10D03000B55D9D8B59C38A91919289B3922FD2B6D7
:10D0400057DA878B0C7C484FEB3CC90920DF0D6514
:10D050009830035F7A21FB68665B230CB61529F5CF
:10D06000E399984DA84CBFE7A3F43A957FCAE05ADC
:10D07000DDE08BA35AE92593D5EDC21E7CBF49F4B0
:10D08000668A4B84EFFFB149E77C01E7F61AAC7C76
:10D09000DDF5C7BD203A2945F7C7A9640458ADFDA1
:10D0A0002F9D6C7150102133E4F0CAF579238BC4A5
:10D0B00002A0BA35830E63BFF689C216D9D6167997
:10D0C000699FA8954423E80089EA76110769500111
:10D0D00010002000838F62D55B65D03173940A9A6B
:10D0E00042AB5C941951017986431FDDC50D9069EF
:10D0F000B9885B4F01002000FC5701DC6135E1324B
:10D100003847BDC40F04D2E5BEE5833B23C29F93DD
:10D11000593D00018CFA99942000000112721762A7
:10D12000A1FA48EB940F3B2288EA41B828DD468BF0
:10D13000447700E658636030C5D496F929F402427A
:10D14000E27552E2F6A7C3FB3D64848B1D567398CB
:10D150004D0485B4AB5CD3FDE57A30B680EA7C1F24
:10D16000D9635350FCF64DCB109CDF6A28FDDA5E84
:10D17000043C5C071B32C2910263B11773653C43E8
:10D18000E9C948449909AAC4B34F2399E6F231B4D6
:10D19000A73EDD99F4AD2B8956732331F968B9198F
:10D1A000176973668F46F417C4AFDD01C76DCD688C
:10D1B00021A7F7BD6DBD3B4D6DA0D0ECCC63E7B3AF
:10D1C000AEB88C2990CA6ED282E35A36DD4777DF3B
:10D1D0001B6BA1F5EC210A4EF277F65354D8BF77BA
:10D1E0006DBE71087767A2B0B51B01C8DBA880A926
:10D1F000A0468496A8BD02F5204B05AA14A9D0EE3E
:10D20000E98DCB64C46EFC8F8C8DB1EABF4E1FC715
:0CD2100087ACCCD9D760249AB7CC75222B
:00000001FF
