:020000024000BC
:10800000B84301201D8E0400E9CD0400098E040050
:10801000098E0400098E0400098E0400098E0400F4
:10802000000000000000000000000000898F040034
:10803000098E040000000000198F0400098E04005E
:1080400001910400019104000191040001910400D8
:1080500001910400019104000191040001910400C8
:1080600001910400019104000191040001910400B8
:1080700001910400019104000191040001910400A8
:10847C0053B94AB9002908BF00281CBF4FF0FF317F
:10848C004FF0FF3000F00CB8ADF1080C6DE904CEE4
:10849C0000F008F8DDF804E0DDE9022304B07047D1
:1084AC00704700BF2DE9F04786468C460846089E6B
:1084BC00154674461946002B40F0C1808542B2FA2D
:1084CC0082F245D94AB1C2F1200300FA02FC954070
:1084DC0094402EFA03F343EA0C0C4FEA154EA8B263
:1084EC00230CBCFBFEF80EFB18CC08FB00F943EA8E
:1084FC000C43994528D9EB1808F1FF3704D299455C
:10850C0002D9A8F102072B44A3EB0903A4B2B3FBD5
:10851C00FEFC0EFB1C330CFB00F044EA0344A042AF
:10852C0014D92C190CF1FF3304D2A04202D9ACF1AE
:10853C0002032C44241A43EA07401EB1D440002302
:10854C0034607360BDE8F0874746DDE76346F1E7CA
:10855C0092BB431B01214FEA154EAFB2200CB3FB6B
:10856C00FEFC0EFB1C330CFB07F840EA034398455A
:10857C0061D9EB180CF1FF3004D2984502D9ACF15B
:10858C0002002B44A3EB0803A4B2B3FBFEFC0EFBCE
:10859C001C330CFB07F744EA0344A7424DD92C19B2
:1085AC000CF1FF3304D2A74202D9ACF102032C44E4
:1085BC00E41B43EA0040C0E7C2F12003954094401D
:1085CC0020FA03F12EFA03F34FEA154E9040AFB2A6
:1085DC000343B1FBFEFC0EFB1C10190C0CFB07F843
:1085EC0041EA0041884522D969180CF1FF3004D2C8
:1085FC00884502D9ACF102002944A1EB08019BB2D9
:10860C00B1FBFEFC0EFB1C110CFB07F743EA01430C
:10861C009F420ED9EB180CF1FF3104D29F4202D9C4
:10862C00ACF102012B44DB1B41EA004193E76046AD
:10863C00E3E76146F7E76046A4E76346B8E78342A1
:10864C0006D916B9002108467CE7C6E900E0F9E72F
:10865C00B3FA83F78FB9834201D3724508D8BEEBC6
:10866C00020460EB030301209C461EB9002169E75C
:10867C003846FAE7C6E9004CF8E7C7F1200CBB40D6
:10868C000EFA07F522FA0CF42EFA0CF1BA401C4340
:10869C0020FA0CF3B8404FEA144901431FFA84FE48
:1086AC00B3FBF9F809FB18300B0C08FB0EFA43EA84
:1086BC0000439A4540D9E31808F1FF3004D29A459B
:1086CC0002D9A8F102002344A3EB0A0389B2B3FB3D
:1086DC00F9F809FB183308FB0EFE41EA03418E45FD
:1086EC002CD9611808F1FF3304D28E4502D9A8F1B8
:1086FC000203214443EA0040A1EB0E01A0FB0298C7
:10870C004145CE46434602D306D14D4504D20138ED
:10871C00B9EB020E68EB0403002EA7D0B5EB0E02EA
:10872C0061EB030101FA0CFC22FA07F3F9404CEA65
:10873C000303C6E9003199E74046C5E74346D9E74C
:10874C0010B40A78022A03D0052A15D010BC704741
:10875C00CB68012BFAD1D1E90123D35C302B03D1A7
:10876C00094810BC04F061B9312B01D10748F8E776
:10877C00322BEBD10648F4E783680A22DC68054902
:10878C00A446642310BC604758E8040050E8040079
:10879C0048E804005836012038B5204C206805F014
:1087AC0059F920B91E4804F02AFA012038BD1D4899
:1087BC0005F050F908B91C48F5E71C4804F01BF902
:1087CC000028F2DB1A4804F016F90028EDDB1948F2
:1087DC0004F011F90028E8DB206883681B68002B83
:1087EC00E3D00022144998470028DED12068836822
:1087FC006D225D6811494FF0FF33A8470028D4D192
:10880C00206883680A22DC680D496423A047002194
:10881C0047F6122003F01EFBF9E700BF9030012051
:10882C00A8E90400F4DE0400C0E9040058E80400E0
:10883C0050E8040048E804004D870400D8300120BB
:10884C0058360120014B1B68184700BF943001209B
:10885C00014B1860704700BF9430012030B585B0D3
:10886C0004460D4610220021684605F068FA0223E2
:10887C008DF80230044B2A4621466846019303F0DA
:10888C005FFE05B030BD00BF5188040080B50546C1
:10889C000E461746984603F02FFB034605F0BAFA2E
:1088AC000446DFF81890424649F800303946304605
:1088BC00A84754F8090000F013FB00BF08000000A3
:1088CC002DE9F047058B04462807904611D4022960
:1088DC0005F0070540F0CC80204604F09DF978B1F6
:1088EC000138218B042811D8DFE800F0C2106D8507
:1088FC00950001290CBF45F0100545F02005258396
:10890C0088F31188BFF36F8FBDE8F08701F0070A79
:10891C00AA4500F0A5800027B9463E46A368002B67
:10892C0000F0BC8041F00801218388F31188BFF36B
:10893C006F8FA168002900F0BA800D68002900F043
:10894C00B680334652462046D1F80480C047002DED
:10895C0076D02B6829461D46F0E701F007035A1F15
:10896C00012A1BD8002221F00701062B276889B2A7
:10897C00C4E9002209D13B4603E0628B01326283D9
:10898C001B68002BF9D141F002012046218304F031
:10899C0043F900287AD041F0200176E0042B0AD16B
:1089AC0021F0070189B22046218304F035F910B17A
:1089BC0041F020012183218B01F0070AAA454FD0F9
:1089CC000027B946AAE7236921F0070141F0060107
:1089DC00062DD3F8009021832DD1B9F1000F3FD093
:1089EC0041F00801218388F31188BFF36F8F204673
:1089FC003949C84729E021F00701236941F00401F6
:108A0C0089B2042DD3F804902183E6D000274FF0CF
:108A1C00040A3E4682E721F00701236941F0050173
:108A2C0089B2052DD3F808902183D6D000274FF0BA
:108A3C00050A3E4672E700274FF0060A3E466DE7F0
:108A4C002B4687E7B9F1000FD1D1EFF31188202322
:108A5C0083F31288BFF36F8F238B23F008032383D8
:108A6C00258BEA062ED525F01003238305F0070588
:108A7C006669218B002EBFF670AF00232768C4E90E
:108A8C00003321F0070141F001012183218B4FF0CC
:108A9C00000901F0070AAA457FF440AF002F9CD0D3
:108AAC0041F00801218388F31188BFF36F8F002FE9
:108ABC00C8D03D68394633465246204604F0D8F8B3
:108ACC002F46F4E7AB067FF51BAF25F0200323837D
:108ADC0005F0070500E700BFA9CC0400014B0360BB
:108AEC000020704760E8040008B5044804F087F8DB
:108AFC00BDE80840024804F082B800BFDBE904007E
:108B0C0010EA040030BFFFF7FDBF00BF2DE9F041B4
:108B1C0005460B4EDFF82C80324606EB0807CC1BC3
:108B2C002046094905F0E4F8A01942460021083C0A
:108B3C0005F005F9C5F8804007F10800BDE8F081A3
:108B4C00000000000400000010E80400054B5A6906
:108B5C009B689A421FBF044A536843F0805353608A
:108B6C00704700BF2C36012000ED00E0154B9A6ACF
:108B7C0012F0007F9A6A14BF1E201D2012F0807F15
:108B8C009A6A18BF1F2012F4801F9A6A18BF02201D
:108B9C0012F4002F9A6A18BF212012F4802F9A6ABF
:108BAC0018BF222012F4003F9A6A18BF232012F437
:108BBC00803F9A6A18BF24206FEA02426FEA124281
:108BCC009A62704700ED00E010B5194B0246986AA6
:108BDC009C6A10F4805F14BF1720162014F4006FE9
:108BEC009C6A18BF1820A40509D5986B986A0004D4
:108BFC0004D51AB19A6A22F400429A6219200C4BDD
:108C0C009A6A12F4806F9A6A18BF1A20D2050CD493
:108C1C009B6A13F4005F18BF1C20054A936A43F447
:108C2C007F43936200230B7010BD1B20F5E700BF40
:108C3C0000ED00E010B51C4B0246986A9C6A10F0DF
:108C4C00100F14BF1120102014F0080F9C6A18BFCD
:108C5C001220A40709D5586B986A000604D51AB1DE
:108C6C009A6A22F080029A6213200F4B9A6A12F0D1
:108C7C00010F9A6A18BF142012F0200F9A6A18BFBD
:108C8C001520D40658BF9B6A074B9A6A920642BFBE
:108C9C005A6A22F400525A629A6A42F0FF029A62AD
:108CAC0000230B7010BD00BF00ED00E0F0B54A4B87
:108CBC0004465B6800258BB0C3F3080385F3118869
:108CCC00BFF36F8F02F07F40B0F17F4F16D1D60704
:108CDC0014D4550603D4100704D4012504E012F073
:108CEC00040200D00C4600250022033B8DF807201F
:108CFC00032B05D8DFE803F02462665F2C46F3E70C
:108D0C0000239DF80720CAB902AE04F120073246B1
:108D1C0020686168083403C2BC421646F7D1099A30
:108D2C00002D53D0C2F3080121B96FEA52226FEA29
:108D3C0042220992184602A904F046F80BB0F0BD85
:108D4C00254BDA6A9107DBD4DA6A002AD8DBDA6AB7
:108D5C005200D5D55A69A16942F480725A61BFF3A9
:108D6C004F8FBFF36F8F5A6931F8021C22F4807257
:108D7C005A61BFF34F8FBFF36F8F4DF60272914262
:108D8C0001D12368BDE79A6AD2B232B101200DF14C
:108D9C000701FFF74FFF0346B3E79A6A12F47F4FC0
:108DAC0005D001200DF10701FFF70EFFF3E79B6AD9
:108DBC00B3F5803FA4D3FFF7D9FEECE700200DF10B
:108DCC000701E6E700200DF10701EDE722F4FF7241
:108DDC0022F00102ADE700BF00ED00E0064B5A693E
:108DEC0042F010025A615A6942F480625A615A691F
:108DFC0022F008025A61704700ED00E0EFF30880A2
:108E0C00EFF3098101B57246FFF750FF01BD00BFBA
:108E1C00002080F31488BFF36F8F002080F30A8842
:108E2C0080F30B880F4880F3088801F005FB0020C5
:108E3C000D490860BFF34F8F00F02CF8202080F311
:108E4C0011880A484FF40061401880F30988EFF349
:108E5C0014800221084380F31488BFF36F8F00F055
:108E6C00DFF80000B843012094ED00E078360120D3
:108E7C00002318460649D1F89020C2F307229342EA
:108E8C0000DB7047C1F89830C1F8A0000133F6E759
:108E9C0000ED00E010B572B6002484F31388FFF7E0
:108EAC00E7FF23464FF0FF300C4A03F1200101335A
:108EBC00102B42F82100F8D100234FF0FF30074A65
:108ECC0003F160010133102B42F82100F8D162B696
:108EDC00BFF34F8FBFF36F8F10BD00BF00E100E0F9
:108EEC00084B9B6883420BD1EFF3058343B1064BD0
:108EFC005A6842F080525A605A6A22F400425A620E
:108F0C0003F000B82C36012000ED00E018498A6807
:108F1C0082F88DE04FF030001044EFF3098C80E8BC
:108F2C00F01F202080F31288BFF36F8F114F4FF08A
:108F3C0000664A698A603E60D2F880000E4C206060
:108F4C0092F98DE0D2F884000023C2F8843080F3CB
:108F5C00118802F1300090E8F01F8CF3098802F1BF
:108F6C00000004B503F047FFBDE804407047000063
:108F7C002C36012004ED00E0083401201EF0040F13
:108F8C000CBFEFF30880EFF30980816911F8021C24
:108F9C000229FFD001B5724603F01CFF01BD00BFD2
:108FAC0000B2002807DB01234109034A00F01F002F
:108FBC00834042F82130704700E100E0054B420944
:108FCC0053F82220012300F01F0003FA00F0104098
:108FDC00704700BF00E100E000B2002801F1010180
:108FEC00ACBF00F16040064B4FEA4111C9B2ABBFB8
:108FFC0000F5614000F00F0080F800131954704721
:10900C0014ED00E0044B054A23F07F039360BFF39B
:10901C004F8FBFF36F8F70470080040000ED00E0AE
:10902C0008B5FFF7EFFF074AD2F8883023F4700336
:10903C00C2F8883002F092FA03F086F800F04AF891
:10904C0002F0CCFA00ED00E042F8203C009B0D4908
:10905C0042F81C3C019B21F0010142F8183C029B98
:10906C0042F8081C42F8143C4FF0807342F8043C60
:10907C000023C0F884304FF43C43203A0265C0F81A
:10908C008C3070479988040000B50B4B15469860DE
:10909C00D0F88020094B0E461A60036F83F30B88BF
:1090AC002C4686F309880020054B98472046002162
:1090BC0000220023034C20472C36012008340120C9
:1090CC000BCE0400998804001022014B1A617047E2
:1090DC0000ED00E00023202040F20F1210B5044CEC
:1090EC00E1180133934281F80003F9D110BD00BFA0
:1090FC0000E100E008B5EFF30583064A103B02EBF4
:10910C00C30152F8330049688847BDE80840FFF7AF
:10911C001DBD00BF34DF04001FB5094C094A2346AE
:10912C000121094800F0FAF800230393074B0121B1
:10913C00E41A01A80193029400F0FAF804B010BDEF
:10914C0000F002200030012060E8040068310120AA
:10915C0010B50C7A0B6804F01F0223F01F031A439E
:10916C00CB68640923F01F03054943EA440343F029
:10917C000103C1F89800C1F89C20C1F8A03010BDC3
:10918C0000ED00E010B5074BD3F89030C3F3072384
:10919C00013B984202D8FFF7DBFF10BD6FF01500C2
:1091AC00FBE700BF00ED00E02DE9F04F0F46144641
:1091BC0006464FF000084D4D85B0B84580F29280C0
:1091CC00D6F80490B9F1000F36D0B9F11F0F40F268
:1091DC00878019F01F0F40F08380D6F800A01AF09A
:1091EC001F0F7DD1504603F02DFE834609EB0A007C
:1091FC00013803F027FE834572D11BF1160F6FD097
:10920C005C456DDDC5F898B0D5F89C10C5F898B0E4
:10921C00D5F8A03021F01F0143F01F0AD6E9003227
:10922C001A44994202F1FF391ED1CA4508D1314680
:10923C005FFA8BF003F00FFE08F101080C36BCE767
:10924C003146C5F898B0D5F89C3022F01F0203F0D7
:10925C001F031343C5F89C30E0B203F0FCFD10F182
:10926C00160F3DD0441CE7E7C5F898B0D5F8A02000
:10927C00013B23F01F0302F01F021343CA45314682
:10928C00E0B2C5F8A030E8D003F0E5FD10F1160F00
:10929C0026D0C5F898B0D5F89C209DF808300AF176
:1092AC00FF3A62F304038DF80830D5F8A0309DF82E
:1092BC0008205B0863F347128DF80820D6E90032CA
:1092CC001344009323F01F035344A3EB0903013011
:1092DC0023F01F036946C0B20393FFF753FFBEE7A9
:1092EC006FF01504204605B0BDE8F08F00ED00E0EE
:1092FC000522044BC3F89420BFF34F8FBFF36F8F3D
:10930C00704700BF00ED00E0BFF35F8F0022024BFF
:10931C00C3F89420704700BF00ED00E010B5034C7B
:10932C002278FFF741FF207010BD00BF623601208C
:10933C002DE9F74F294D8A4606464FF00008AB46FB
:10934C00274FD0451BDAD6F80490B9F1000F3FD067
:10935C0031680846019103F075FD0199044609EB4B
:10936C000100013803F06EFD84424FF014021D4BD6
:10937C0008D002FB08F36FF015024BF8032003B082
:10938C00BDE8F08F14F1160F2C60F8D01978A142BB
:10939C00F5DD02FB08B0C7F89840C7F89840D7F83D
:1093AC009C4000F10801007B64F304000871D7F8BD
:1093BC00A0000C79400860F347140C71D7F89C108E
:1093CC0021F01F016960D7F8A01021F01F0129615D
:1093DC0008F1010814350C36B3E700BF0C3401203A
:1093EC0000ED00E062360120F0B54149414CD1F866
:1093FC0090302568C3F307239D4287B075D80020B1
:10940C00FFF782FF3C4BC1F8C030854216D13B4C74
:10941C0001A82570FFF762FB00250646384FAE42C7
:10942C0013D1002023783249D1F89020C2F30722BF
:10943C00934254DBFFF75CFF00202FE0616801EBE7
:10944C000011FFF785FE0130DFE70199280101EBE0
:10945C000513DA683A40B2F5001F21D0B2F5800F3F
:10946C002BD0B2F5801F38D15A689B680958013B44
:10947C0022F01F0003440120844623F01F0340EA1E
:10948C004C10CDE902218DF8100002A9207805932B
:10949C00FFF778FE00281DDA6FF0150007B0F0BD5D
:1094AC005A689B680958013B22F01F0003444FF097
:1094BC00020C012023F01F03E1E75A689B6809584E
:1094CC00013B22F01F0003444FF0000C062023F058
:1094DC001F03D4E723780133237001359FE7C1F8CC
:1094EC009830C1F8A00001339EE74FF0FF30D5E76C
:1094FC0000ED00E06CE80400AAFF44006236012095
:10950C000000F0FF08B5024B1B689847002008BD0F
:10951C0020340120034B044A1860937843F0020373
:10952C0093707047203401209830012008B506490B
:10953C00064821F00701C1F1005202F53C3203F05C
:10954C0004FB002008BD00BFBF43012024340120D0
:10955C00024B034A00201A60704700BFC030012044
:10956C000020A10748B1054B054A1B68B3FBF2F379
:10957C005843044B43F0010318477047C030012097
:10958C0040420F0030E80400084B70B5C31A0D467A
:10959C0007499B10044659434022064803F082FCBD
:1095AC002B4601462046BDE8704018474434012044
:1095BC00B76DDBB694DE0400402373B50B4C0093FF
:1095CC00041B0B460D460A49A41061430646094A82
:1095DC00094803F093FC011E05DA30462B4602B015
:1095EC00BDE87040184702B070BD00BF4434012084
:1095FC00B76DDBB673CF040094DE040010B5EFF347
:10960C001184202383F31288BFF36F8F074A1368EA
:10961C0023F00201DB07116002D4012004F04CF9A5
:10962C0084F31188BFF36F8F10BD00BF94340120F9
:10963C0070B500220121044640F20510FFF7CCFC66
:10964C000F4800F0B3FF0F4B984215D100F0BEFF4E
:10965C0026690D49304603F02EFB00280BDB012553
:10966C0035642469084904F11C0003F024FB00282C
:10967C0001DB0020E56470BD6FF00400FBE700BF68
:10968C0097CF04000000AD0B94E804001FB5002236
:10969C000123CDE902236B46084ACDF800D0CDF862
:1096AC0004D003F059FC002805DB43F609520023D3
:1096BC00684602F0F7F805B05DF804FB91CF0400A2
:1096CC000C22104B014602FB0033002030B4D3E9CE
:1096DC000E529863EFF31180202484F31288BFF3A9
:1096EC006F8F1C6C04F0C00444F002041C6480F303
:1096FC001188BFF36F8F1DB12B4630BC0248184741
:10970C0030BC70474434012094DE040010B4EFF3F5
:10971C001182202383F31288BFF36F8F16480168E0
:10972C0041F002040460C80707D482F31188BFF328
:10973C006F8F012010BC00F05FBF1049D1F80C14E2
:10974C00C903F2D5EFF3118083F31288BFF36F8F47
:10975C000B490B6C03F0C00343F002030B6480F362
:10976C001188BFF36F8F82F31188BFF36F8F0020C6
:10977C0010BCFFF7A5BF00BF9434012000E01040DF
:10978C00443401202DE9F041012207463449D1E847
:10979C00EF3FC1E8E02F0028F9D133B93149324805
:1097AC004B60CB608A6003F099FA7B1E012B28D8A2
:1097BC00012F06D12D4BD3F8503403F00303012BAA
:1097CC001FD004F08BF90546E8B9294B1B78D3B1AF
:1097DC0004220646254BC3F80823244CDFF894805A
:1097EC00D4F84C24D4F84C34D20315D503F003032D
:1097FC00012B01D0012F0FD165B386F31188BFF374
:10980C006F8FBDE8F081EFF31186202383F312886C
:10981C00BFF36F8F0125E0E7BDB1304603F003FBCA
:10982C00D4F8403413F0FF03DAD1D4F80821002A1D
:10983C00D6D0C4F80831D4F8083120220123C4F85A
:10984C004034C8F8A0212361CAE70021202002F08F
:10985C0001FBE5E70422054BC3F80423D1E700BF65
:10986C0040340120303401206034012000E01040ED
:10987C007236012000E100E008B5074804F0EAF870
:10988C0038B10648FFF746FE0448FEF7E1FF00201A
:10989C0008BD6FF01200FBE714DF0400AD98040064
:1098AC000A2838B50446074D04D1AB680D2128466B
:1098BC00DB699847AB680348DB69E1B298472046FF
:1098CC0038BD00BF14DF04002DE9F04340F206352B
:1098DC004668D00648BF0320337B02EA050558BF13
:1098EC00C2F3401087B001F01F07B5F5837F144613
:1098FC0047EA43178DF8030045D00FD8062D44D006
:10990C0007D8B5B1022D14D06FF0150007B0BDE823
:10991C00F083B5F5807FF7D101250AE040F20222F1
:10992C00954234D0B5F5407F33D0B5F5007FEBD1FF
:10993C00042522032FD5012372688B4053603269B2
:10994C0082BB5F2F07F01F034FEA571177D83E4AAF
:10995C0052F8212084F4803102EB8302D2F880305B
:10996C00C1F30041C4F3404423F4706344EA41045E
:10997C0023F00F031C4344EA800444EA0524C2F894
:10998C0080400020C2E70925D3E70825D1E706254A
:10999C00CFE70525CDE7630341BF012372688B40F8
:1099AC009360CCE71036394630460DF1020201F0D7
:1099BC0055FA14F4403F80460CD13946304604F039
:1099CC0040F8224B9845DCD130469DF8021001F04E
:1099DC00AFFAD6E74FF0000901AB3946304603AA7F
:1099EC00CDE90439CDE90199CDF80C9001F0A8F836
:1099FC00164B984288D114F4003315D09DF80330DF
:109A0C0084F48034C4F300448DF80E3039464B4650
:109A1C00304603AA8DF80C508DF80D4001F07CF9FE
:109A2C000A4B9842CDD06FE7CDE9043339460DF19E
:109A3C000303304603AA039301F082F8F0E72033C6
:109A4C0052F82330FFDE00BFB0E804000000AD0B7D
:109A5C004209022A034670B503D0012A18D0CAB1B4
:109A6C0070BD0E4E326951680029F9D0012503F002
:109A7C001F030C689D400029F2D08A682A4002D04E
:109A8C0030464B6898473CB1236821461C46F2E7A8
:109A9C00034EE7E7034EE5E72346F6E7F4DE040062
:109AAC00D4DE0400B4DE040038B545682B69E3B19C
:109ABC001035284601F02EFA0446B0B90146284666
:109ACC0001F0EAF90B4B984211D1224628460A497B
:109ADC0001F0B6F922460121DA20FFF77DFA224681
:109AEC0001214FF48670FFF777FA002038BD6FF034
:109AFC000400FBE70000AD0B5D9A0400F0B51646C0
:109B0C00426801F01F04107B87B044EA40141069CE
:109B1C00002871D0B6F5001F02F1100506D12146C0
:109B2C00284603F090FF002007B0F0BD0027B6F5E3
:109B3C00800F01A8019747603BD1B3F1007F14BFA0
:109B4C00052304238DF804300023CDE9040303938B
:109B5C0093680DF1030723FA01F111F001013DD1D6
:109B6C00B6F1A07F3AD104F01F035F2C4FEA5410DA
:109B7C0003F1200346D8254A52F8202052F823300E
:109B8C00DB072BD43A462146284601F067F9204BD7
:109B9C00984219D002972146284603AA00F0D0FF1C
:109BAC001C4B98422BD101222146284601F0D0F9BA
:109BBC00B9E7B3F1C06F05D0B3F1007F14BF012337
:109BCC000223BFE70323BDE73946284601F0B8F965
:109BDC00104B9842DED06FF00B00A5E73A462146B9
:109BEC00284601F03BF90B4B9842D4D128469DF8FE
:109BFC00031001F09DF9CEE76FF0850094E76FF04C
:109C0C00150091E751F82330FFDE00BFB0E80400E7
:109C1C000400AD0B0000AD0B036803F01F025F2BBB
:109C2C0002604FEA53129ABF024B53F822000020F5
:109C3C00704700BF04E904002DE9F04F15460746B4
:109C4C0040F2FF19DFF864A1DFF864B185B000EBD6
:109C5C008101B94203D1002005B0BDE8F08F3B680B
:109C6C00C3F3C322082AC3F3080400F29B804C45BB
:109C7C0008BF4FF0FF34B3F1D05F1AF802804FEAFF
:109C8C00136210D2192A10D8DFE802F012181F5AEA
:109C9C0022285A0F0F0F0F0F0F0F0F0F0F0F0F0F51
:109CAC000F0F5D707376382A69D06FF08500D3E79B
:109CBC00C5F80446631C4FD10437CAE7C5F80C46F7
:109CCC00621CF9D00026324616E0C5F81046F1E7C2
:109CDC00661CC5F80046EFD0002604E0601CC5F8F1
:109CEC000446E9D0012603A80394FFF795FF01224F
:109CFC00039B02FA03F383603B68039403F4004074
:109D0C00002818BF002203A818BF01260193009257
:109D1C00FFF782FF039C019B00EB8400D0F880408E
:109D2C00C3F3412C009A4FEA082343EA8C031343F4
:109D3C0004EA0B04234343EA4603C0F88030BBE734
:109D4C00C5F80846BCE7C5F86045621C3B68B3D053
:109D5C00C3F30043002BC5D0012603A80394FFF7DF
:109D6C005BFF039B06FA03F34360ACE7C5F864455D
:109D7C00EBE7C5F86845E8E7C5F86C45E5E703A8E7
:109D8C000394FFF749FF039B00EB8300D0F880306E
:109D9C0023F0E04343F08043C0F88030631C8BD049
:109DAC00012690E76FF0150056E700BF7CEA04002F
:109DBC00F0F0FCFF70B5044600220121C620FFF72D
:109DCC000BF9C620FFF7ECF865680121E86803F091
:109DDC004EFA636819686B69C1F82435EA8BAB8B52
:109DEC00A87E13432A8C13436A8C13436A7E9BB25E
:109DFC000243287E02431343C1F86C352569286859
:109E0C00A0B1636800221C4908301E6803F048FFAB
:109E1C002B68DC63286800221849683003F040FF87
:109E2C002B68C3F89C40164BC6F8043361680B686A
:109E3C00D3F8002242F48022C3F800220822C3F88F
:109E4C0000254A6B0121C3F83C270022C3F84027A8
:109E5C001965D3F830110029FBD0C3F800256368CD
:109E6C00596811F0040105D1D86803F000FA606854
:109E7C0003F00CFA002070BD29D2040085D4040034
:109E8C00200218002DE9F84304460F46466803F0FB
:109E9C0025FE6368C0B9304A1278AAB14FF0200988
:109EAC001D684FF0640863681B68D3F83031002BD1
:109EBC0040D1012003F0FEFCB8F10108F3D10021E0
:109ECC00202001F0C7FFECE71D6820232269EFF387
:109EDC00118883F31288BFF36F8F61680968D1F81A
:109EEC003011A9B11368C3B9736801225B0744BF71
:109EFC004FF48053C5F80433736B20461F70716B9D
:109F0C0003F0D8F988F31188BFF36F8FBDE8F8839D
:109F1C0088F31188BFF36F8FD9E7D3F8A420002AF8
:109F2C00E2D0D3F8B420002ADEDAD5F84427C3F8FF
:109F3C00B420D9E7EFF31183984689F31288BFF365
:109F4C006F8F62681268D2F83021002ACCD183F36B
:109F5C001188BFF36F8FB2E7723601202DE9F04FF5
:109F6C00D0F804901F46D0F810B099F8083082460B
:109F7C0088461646DBF80050D9F8004085B0002B17
:109F8C0040F0B88095F86130002B40F0B68095F821
:109F9C00622002F0FF03002A40F0AF80781C00F032
:109FAC008280D9F810104FEAE77CA1FB070E002342
:109FBC00534A01FB0CE1FEF75BFA40F2FF33984287
:109FCC0028BF1846C4F87805D4F8003243F0005383
:109FDC00C4F8003227EAE773DA171F3342F10002A4
:109FEC005B0943EAC2635209C5E916320023C5E98D
:109FFC001086C5E912332B65D9F80430590757D5AB
:10A00C00EFF31181202383F31288BFF36F8FDAF8FB
:10A01C001020936843F0020090609A0705D1DAF89B
:10A02C000400039103F032F9039981F31188BFF313
:10A03C006F8FD9F804305B073AD595F86030BBB315
:10A04C00B34228BF33469A461A464046D9F83010D8
:10A05C0003F04EFEB6EB0A0627D195F860200BF103
:10A06C00080BA2EB0A02D2B285F86020D9F83000B6
:10A07C0000EB0A0103F049FEDBE8EF3F43F0040379
:10A08C00CBE8E23F002AF7D10122C4F34343C4F3E7
:10A09C00043402FA04F41B4A403342F823400020F3
:10A0AC0005B0BDE8F08F1A469EE7013712D1D044B7
:10A0BC000023C4F80487C4F80867C4F84C31D4F8FA
:10A0CC004C21C4F85031D4F85031012385F861305B
:10A0DC00A362E4E70023C4F81031D4F81031D5E9B9
:10A0EC00162300200021CDE9000105F1080002F043
:10A0FC00EDF9DCE76FF08500D2E76FF00F00CFE7EA
:10A10C0040420F0000E100E070B514461D4603F01C
:10A11C008DFBA042A94113D30A4AD2E90061A41BCA
:10A12C0024F01F0365EB01009B1941EB0001C2E910
:10A13C000031640944EAC060BDE8704002F0E0B848
:10A14C0070BD00BF3032012010B500220121E32088
:10A15C00FEF742FF174A0020D2F8183723F4403399
:10A16C00C2F8183700F0D2FF134B0446984208D1BE
:10A17C000120124901F05AF8A04205D0104B984228
:10A18C0014D04FF0FF3010BD03F050FB67220D4B85
:10A19C0020F01F00C3E900010B4BC3E900010B4B7E
:10A1AC0002201A60FFF7EEFA0020ECE76FF00B00CC
:10A1BC00E9E700BF00200E400000AD0BBC300120D1
:10A1CC000200AD0B3032012028320120BC340120BA
:10A1DC0008B503F02BFB054AD2E90032C01A61EB3B
:10A1EC000201400940EAC16008BD00BF30320120C5
:10A1FC0037B5431C0CBF6FF0004420EAE07403F049
:10A20C0015FB0D4BD3E90025801A61EB05032021CA
:10A21C00C4FB0103402873F100042CBF20F01F0184
:10A22C00002352184FF0010145EB03030091034842
:10A23C0001F060F803B030BD30320120B4300120A1
:10A24C000149024803F00ABB19A30400C0340120E1
:10A25C002C4A00F00800136F072B2BD0132B1CD0AB
:10A26C00052B3AD1526D12F4805F14BF17231623BD
:10A27C0012F4006F18BF182312F4007F1EBF224B7C
:10A28C009B6B192312F4806F18BF1A2312F4807F72
:10A29C0025D112F4005F18BF1C23CA6968BBC2F336
:10A2AC00080020B96FEA52226FEA4222CA611846AE
:10A2BC0002F08ABDD36DDA0713D49A0713D45A0768
:10A2CC0013D41A0713D4DA0613D49A0613D413F042
:10A2DC00800F14BF2C232523DFE70023DDE71B238E
:10A2EC00DBE72623D9E72723D7E72823D5E729233C
:10A2FC00D3E72A23D1E72B23CFE722F4FF7222F0F6
:10A30C000102D3E7C034012000ED00E000B5104B92
:10A31C0089B05A6AD86C00929A6A20F005000192B2
:10A32C00DA6A694602921A6B03925A6B04929A6B20
:10A33C000592DA6B06921A6C1B6D07929B0748BF4D
:10A34C0040F00400FFF784FF09B05DF804FB00BF88
:10A35C00C03401202DE9F041A2B005460E46174647
:10A36C00984603F0BBFB70B9114B1B785BB14FF0F7
:10A37C00FF324FF0FF330F4801F098F9044618B143
:10A38C006FF0830510E00124684602F02EFD424672
:10A39C0039463046289BA8470546684602F026FDFC
:10A3AC0014B9044801F0FAF9284622B0BDE8F0814E
:10A3BC007236012054310120002300B589B0CDE95B
:10A3CC00063303AB0493042303900593A9B10B68E4
:10A3DC0006934B6807930223111E18BF01210848EE
:10A3EC00CDE9002140F2F53104AA00F00BF8002869
:10A3FC00B8BF012009B05DF804FB0123ECE700BFF6
:10A40C000501004010B4B1F5004F029C0ED2042B94
:10A41C000CD8042C0AD8240444EA0364134644EAF6
:10A42C000102014610BC0348FFF794BF6FF0800097
:10A43C0010BC7047A1040000034AD2F88C3043F4DE
:10A44C004063C2F88C30704700ED00E030B5046812
:10A45C00ACB1B4FA84F30122C3F11F03DBB29A400E
:10A46C0024EA0202D0E8EF5FA54204D1C0E8EC2F49
:10A47C00BCF1000FF6D1EAD102480B7030BD024896
:10A48C00FCE700BF0000AD0B0200AD0B10B503687C
:10A49C00CB40DB0710D401238B40026843EA020156
:10A4AC00D0E8EF4F944204D1C0E8EC1FBCF1000F90
:10A4BC00F6D1F2D1014810BD0148FCE70000AD0B0C
:10A4CC000400AD0BF7B5054648B3012825D104228D
:10A4DC004FF48073712032490024C1F80803012025
:10A4EC0002F1804203F1804303F5871302F58712D2
:10A4FC0010601C601B682B4BD3F840331C2B13D003
:10A50C00854201D10DF10704002342F21076244F4D
:10A51C008DF8073065B1012D2ED003B0F0BD14229B
:10A52C004FF484730420D6E7012DEDD1CD60E9E71B
:10A53C00D7F84C3403F480336CB9002BEDD00120E8
:10A54C0003F0B8F9013EF3D1E7E7012003F0B2F9CB
:10A55C00013EDFD1E1E7D7F84C2402F00302227070
:10A56C00002BDAD09DF80730002BEED0012DD4D182
:10A57C0000220D4B5A71D0E7D7F80C3403F480331A
:10A58C003CB9002BF4D0012003F094F9013EF3D137
:10A59C00C3E7002B0CBF012300232370E2D1E7E7B4
:10A5AC0000E0104000C0FF0034350120044B1A7944
:10A5BC0022B9012218601A7102487047024870478C
:10A5CC00343501200000AD0B0C00AD0B08B5084B69
:10A5DC001B6843B140F20510FEF7F0FC18B940F2CD
:10A5EC000510FEF7DDFC0022024BC3F8402408BD29
:10A5FC003435012000E0104010B510B1012845D0D1
:10A60C0010BD324BD3F84C14D3F84C24C80324D5CA
:10A61C0002F00303012B04D013B10020FFF752FF0B
:10A62C0000232A4A0420C2F8403410224FF48473C9
:10A63C00002103F1804303F5871319601C68012482
:10A64C0002F1804202F587121460214A1268002A36
:10A65C0036D01E4BC3F80403D2E7D3F84824D107F5
:10A66C00DED5D3F850249207D7D4194A12681AB100
:10A67C000422C3F80423C3E7D3F80821002AFBD033
:10A68C000022C3F80821D3F80831B9E700220F4B98
:10A69C00C3F81021D3F81011C3F81821D3F81811EE
:10A6AC00C3F81421D3F814210A4AD2F840231C2AE7
:10A6BC0004D000224FF480737120B9E79860F8E75A
:10A6CC001A68002AFCD019601B6899E700E010405A
:10A6DC003435012000C0FF0070B500251E4C1F4E04
:10A6EC00D4F80C3303B970BDB3FA83F3C3F11F0371
:10A6FC009A0002F5807292B202F1804202F5871242
:10A70C00156012680122D8B202FA03F3DBB2102BE7
:10A71C00C4F8083311D0402B1BD0042B16D1D4F81D
:10A72C004C14D4F84C14890710D1C4F84024C4F844
:10A73C0004332261D4F80C33D4E702237371C4F8C8
:10A74C001451D4F814312023C4F8043333689847D7
:10A75C00F0E77571FAE700BF00E0104034350120D6
:10A76C00036803F01F025F2B02604FEA53129ABF7B
:10A77C00024B53F822000020704700BF74E904001C
:10A78C00034A4309D35C00F01F001844C0B2704761
:10A79C0090EA040070B505460846FFF7F1FF3C212E
:10A7AC002A79184B01FB0202083233F81200C1055A
:10A7BC0026D578240026C0F3432120F4F85023F842
:10A7CC0012002A7904FB02340E3434F8020F10F410
:10A7DC00807F03D0C0F34320814211D00136232E59
:10A7EC00F3D10020C2EB02120A4443F83200782065
:10A7FC002A79BDE8704000FB02306030FFF746BE9E
:10A80C0070BD00BF3C350120F0B50646002487B072
:10A81C00114F019117F8012B06AB03EBD20313F880
:10A82C00143C02F00702D34013F0010306D10134AB
:10A83C00032CEFD10023184607B0F0BD074A03AD37
:10A84C0007CA85E8070055F824100A6A46F8242040
:10A85C000A62002AEBD0EEE7A0EA040010E804003C
:10A86C0010B504460846FFF78BFF3C2303FB04009E
:10A87C00024B083033F81000400B10BD3C35012062
:10A88C0010B504460846FFF77BFF3C2303FB04008E
:10A89C00034B083033F81000C0F3400010BD00BF6C
:10A8AC003C35012010B504460846FFF769FF3C23F0
:10A8BC0003FB0400034B083033F81000C0F34010C6
:10A8CC0010BD00BF3C35012078232DE9F04F6F4CB3
:10A8DC000E460C1BB4FBF3F4D0F80413DFF8B0B144
:10A8EC00C9B28BB041F480315BF83420009003F096
:10A8FC005CF8C103054638D50023E7000BEBC40414
:10A90C00CDE907330993636807A819460193FFF74C
:10A91C007BFF3B1D03934FF0000A5E4B0DF11C09AE
:10A92C000293029A12F8013B0292039A02EBD302B1
:10A93C001BF8022003F0070322FA03F3DA071AD4F8
:10A94C000AF1010ABAF1030F09F10409E9D14FF434
:10A95C0080310022009803F028F8019907A8FFF72E
:10A96C0053FF0028D7D125F480350124002D76D152
:10A97C000BB0BDE8F08F484B53440493D9F800104A
:10A98C000029DDD091FAA1F1B1FA81F1049B1C7878
:10A99C0041EA44142046FFF7F3FE083036F81080E5
:10A9AC00C8084FEA98030593012319F8002001F019
:10A9BC00070103FA01F122EA010209F8002006A8B6
:10A9CC000694FFF7CDFE069A059B203250F8222004
:10A9DC00C8F382075B07B846C2F3014223D5304661
:10A9EC00D7B22146424602F0C1FF06A80694FFF7F3
:10A9FC00B7FE069B203350F82330C3F301439F422C
:10AA0C0007D10021204602F0A2FF3946204602F071
:10AA1C009EFF06A80694FFF7A3FE0122069B02FAEE
:10AA2C0003F30362AAE7022A0DD10321204602F0A8
:10AA3C008EFF07F00503012BEBD142462146304631
:10AA4C0002F094FFE5E702212046059202F07FFF19
:10AA5C00032FF2D0059A032ADBD1022FECE795FAEB
:10AA6C00A5F3B3FA83F3009904FA03F225EA02057D
:10AA7C0003F5A27251F8222006EB43033046B3F8DB
:10AA8C006410C2F3014202F071FF6FE73C35012004
:10AA9C0080E90400A0EA0400A0EA04002DE9F743D1
:10AAAC0005460846FFF76CFE3C222B79204F02FB33
:10AABC000303083337F813300E46DB07044635D54D
:10AACC00284602F099FF95F8049031464846FFF766
:10AADC00E9FE60B14846FFF7C3FE0022D5F80080BE
:10AAEC0000B208EB8003C3F81025C3F810252846E4
:10AAFC003146FFF74FFE3C222B7901A802FB0344A1
:10AB0C000023083427F814300196FFF729FE019B27
:10AB1C0000EB8300D0F88020064B134043F0020377
:10AB2C00C0F88030044803B0BDE8F0830348FAE76E
:10AB3C003C350120F0F0FCFF0000AD0B0400AD0B28
:10AB4C002DE9F04F9046044685B00846FFF718FEF5
:10AB5C00D8F800900F4606462579B9F1000F23D09E
:10AB6C002846FFF78DFE18B12846FFF79BFE58BB11
:10AB7C0000230DF10F02CDE900338DF80E308DF866
:10AB8C000F300DF10E014B46384602F097FE3C2378
:10AB9C0003FB05635D49083331F8132022F00202F0
:10ABAC0042F0010221F81320D8F80430002B3FD0DA
:10ABBC003946207993F80090D3F804A0FFF760FE93
:10ABCC0020B1BAF1000F26D0514835E03C226A433F
:10ABDC00DFF838E102EB060C0CF1080C3EF81C30E7
:10ABEC0023F02003DB04DB0C2EF81C30BAF1000F31
:10ABFC0011D0B9F1030FE7D8D8F8041020684968D0
:10AC0C0091F800A000EB8A00B9F1000F17D1C0F841
:10AC1C001095C0F810953C2303FB05653B4A08359D
:10AC2C0032F8153023F01C0343EA890322F815305F
:10AC3C00D8F8083063BB374805B0BDE8F08FD0F8C2
:10AC4C0010B552442BF0030BC0F810B5206843EA42
:10AC5C004A3300EB8A01D1F810050EEB420220F4C6
:10AC6C00473020F47C70C1F8100541F6F070D1F833
:10AC7C0010B500EA071040EA094040EA0B0043F027
:10AC8C002003C1F81005A2F864702EF81C30C2E73E
:10AC9C003946D3E900852046FFF77CFDB8F1000F5B
:10ACAC00C9D078232079194F4343FA18FB5898459B
:10ACBC0004D153689D4201D100220CE0782303FBA0
:10ACCC0000700DF10F016030FFF7C0FB114B984283
:10ACDC00B2D19DF80F203C212379C3EB031313440D
:10ACEC0047F833802379C3EB0313134407EBC303F7
:10ACFC005D60237901FB0363083337F8131041EAD5
:10AD0C00422242F4807227F8132094E73C3501204C
:10AD1C000400AD0B0000AD0B2DE9FF4705460846BE
:10AD2C0017461E46FFF72CFD8946044687B395F857
:10AD3C0004804046FFF7A4FD18B94046FFF7B2FD6A
:10AD4C0068BB3C2303FB0848DFF8E4A008F10808C3
:10AD5C003AF8183013F01C0F02D07B78012B1ED060
:10AD6C0001238DF80F3000237A1CCDE9007348467F
:10AD7C00BB1C0DF10F0102F0A1FD3C222B7902FB53
:10AD8C00034308333AF8132042F003022AF8132045
:10AD9C00002E4BD049462879FFF772FD18B925488B
:10ADAC0004B0BDE8F08700214FF03C0C30782B68E4
:10ADBC00820003EB8003C3F81015C3F810152B7930
:10ADCC001B490CFB0343083331F8137027F460471D
:10ADDC0027F0200721F8137077783FB32B68B678EB
:10ADEC001A44D2F810E5144B3F040EEA0303C2F8E0
:10ADFC00103541F6F07307F4403703EA09133605B2
:10AE0C00D2F810E53B4306F48016334343EA0E03B5
:10AE1C00C2F810352B790CFB0344083431F814308C
:10AE2C0043EA403343F0200321F814300348B7E7DA
:10AE3C003C3501200400AD0B0FE0ECFF0000AD0B26
:10AE4C0030B578250479044B05FB0434A1600179F5
:10AE5C0005FB0133DA6030BD3C35012070B5067955
:10AE6C0014463046FFF71EFD68B10846FFF788FC14
:10AE7C003C2303FB0600054B083033F81030044824
:10AE8C005B0B237070BD0348FCE700BF3C35012011
:10AE9C000000AD0B0400AD0BF8B506460779782021
:10AEAC00184D00FB075393F874404CBB18464622D0
:10AEBC002146103002F043FF3179134A336852F8BF
:10AECC00316021468E4211D10022C3F30830C3F801
:10AEDC004021D3F84021FEF763F8782303FB075594
:10AEEC0001230A4885F874302B66F8BDCAB292006B
:10AEFC0002F58070402A04BF1C501A580131E1E75A
:10AF0C000348F2E73C35012080E904000000AD0B5A
:10AF1C000C00AD0B78210279044B01FB023393F842
:10AF2C007400003818BF0120704700BF3C35012069
:10AF3C000079024B03EB8000FFF7A8BAC430012064
:10AF4C000079024B03EB8000FFF780BAC43001207C
:10AF5C002DE9F74390F80490044648461746FFF74E
:10AF6C00A1FC0D46266800B34846FFF789FC8046D5
:10AF7C00D8B94846FFF774FC05B2AD0005F58072F0
:10AF8C0046F802802168B2582944D1F8102542F0C5
:10AF9C000102C1F810252FB10122216802FA00F339
:10AFAC00C1F8043303B0BDE8F083D6F80433284667
:10AFBC00DB035CBF4FF48033C6F80433FFF7E0FBD0
:10AFCC003C22237902FB03000E4B083033F810307F
:10AFDC00C3F38203042B11D0052B11D001A80195CA
:10AFEC00FFF7BEFB019BC168D94001F001010231A2
:10AFFC00284603B0BDE8F04302F0A9BC0321F7E7F3
:10B00C000221F5E73C35012001490248FFF75CBC01
:10B01C003C35012000A00D4001490248FFF754BC0B
:10B02C00B435012000C0104010B50024037A0D493E
:10B03C00CA181B0103F1804303F5622392F85420D4
:10B04C00C3F82C450C2303FB02130468DC60426834
:10B05C001A610122007A18758B68824013438B6049
:10B06C0010BD00BF00300120074B027AD3F8101539
:10B07C0021F001010A43C3F810250268C3F8A42685
:10B08C004268C3F8AC26704700200E40012303FA37
:10B09C0000F010F0670F0AD0064B5B68DB4303F03F
:10B0AC0067030342044B054818BF18467047044811
:10B0BC00704700BF003001200000AD0B0400AD0B49
:10B0CC000800AD0B2DE9F048EFF31181202383F339
:10B0DC001288BFF36F8F4FF0FF356FF04044094E6D
:10B0EC00D6E900BC5D4574EB0C07F9D3CCF3130324
:10B0FC00C0E900B381F31188BFF36F8F0248BDE83C
:10B10C00F08800BF30270E400000AD0BF0B53C4D71
:10B11C0085B02C78002C6FD13A4A01AB07CA83E872
:10B12C00070039491846D1F8102522F00202C1F85F
:10B13C001025FFF799FF0723672202F00101214434
:10B14C00013BCCB24FEA5202F7D1052C56D119462D
:10B15C004FF0010C2A4E00246720CFB204E00CFA09
:10B16C0002F220EA0200013490FAA0F25FFA84FEA7
:10B17C00BE45B2FA82F2F2D30131327505292A4466
:10B18C0082F8547006F10C06E5D1012100241F4809
:10B19C009A0801FA02F212F0670F18BF1C50043320
:10B1AC00302BF5D1E320FDF7FBFE174B1849D3F8F4
:10B1BC00102503F5C07322F00202C3F8902340F669
:10B1CC00FF72C3F8982100221A60A3F58070043333
:10B1DC008B420260F8D101240B4B0E4A1C660E4BBD
:10B1EC005D201B68B3FBF2F358430C4B2343984789
:10B1FC000B482C7005B0F0BD0A48FBE70A48F9E78C
:10B20C00003001201CE8040000200E4000210E40FC
:10B21C00B0210E4040420F00C030012040E8040035
:10B22C000000AD0B0C00AD0B0100AD0B73B52A4C3F
:10B23C00054663680E4603F0010304F1140101A8EE
:10B24C000193FFF703F9254B98423DD1002333704E
:10B25C00636823F001036360A36843F00103A360F8
:10B26C001F4BD3F81025960732D4D3F8102542F093
:10B27C000202C3F81025C5B1D3F8382712F0010229
:10B28C0002BFD3F8381741F00101C3F83817144B3B
:10B29C00D3F83017D3F834174C00F9D42AB9D3F8B3
:10B2AC00382722F00102C3F838270E4B0E4A1B68D0
:10B2BC00B3FBF2F30A4A03EB43135BB1D2F830173A
:10B2CC00D2F83417490001D402B070BD013BF4E749
:10B2DC000648F9E70648F7E7003001200000AD0BFF
:10B2EC0000200E40C030012040420F000C00AD0B7E
:10B2FC000700AD0B2DE9F0410446007A1D46FFF71F
:10B30C00C5FE1E4B9046984206469DF8187031D1EA
:10B31C002046FFF789FEEFF31180202383F3128878
:10B32C00BFF36F8F227A164B9200134400221A60DF
:10B33C00217AC5F31305090101F1804101F5622160
:10B34C00C1F82085C1F8245580F31188BFF36F8FA5
:10B35C0087B10123227A0B4903FA02F2D1E8EF5F9D
:10B36C001543C1E8E05F0028F8D1227A9340064AE1
:10B37C00C2F814333046BDE8F08100BF0000AD0BBD
:10B38C0000210E408830012000200E40F7B5284BDC
:10B39C00284CD3F81C6304F188070EB903B0F0BD38
:10B3AC0096FAA6F00123B0FA80F08340DA432249E2
:10B3BC0026EA0306231893F85450830019440C23EF
:10B3CC0003FB0543DB6873B3D7E8EF3F03EA020CDA
:10B3DC00C7E8EECFBEF1000FF6D1C340DB0719D59D
:10B3EC00020102F1804202F56222D2F82435D2F831
:10B3FC002025D1F800C0BCF1000FCED04FF0000CCE
:10B40C00C1F800C00C2101FB054529690091E968D0
:10B41C008847C2E705F10C0304EBC30C54F8332046
:10B42C00DCF80430E5E70A68002AB6D00B60B4E714
:10B43C0000200E400030012000210E4038B5EFF303
:10B44C001185202383F31288BFF36F8F064B9C6802
:10B45C0002F013FB85F31188BFF36F8F2046BDE814
:10B46C003840FDF73DBD00BF2C36012038B50A4BE6
:10B47C0053F82040013053F82050A54200D838BD75
:10B48C00606830B1037FDB0701D402F0F9FA0834AD
:10B49C00F3E723689847FAE790E90400012270B5B6
:10B4AC00294B032086B01A70FFF7E0FFFDF71CFB59
:10B4BC000420FFF7DBFF254C254D2646AE4204F158
:10B4CC00300410D300F0F6FB204C224EAC4226D3B5
:10B4DC0000F004FCFDF760F91F4A137B23F0010315
:10B4EC00137306B070BD54F80C3C059354F8103C23
:10B4FC00049354F8143C039354F8183C029354F8F6
:10B50C001C3C019354F8203C009354E90A2354E961
:10B51C000C0100F0EDF954F8303C5E65CDE7D4E950
:10B52C000A23B3F1FF3F08BFB2F1FF3F05D052EA47
:10B53C000301206803D100F0BBFC3034C6E7314670
:10B54C00183000F04BFEF8E772360120ACE704002F
:10B55C00ACE70400EFDB0400C832012008B5034857
:10B56C00034A0021121A02F0A2FA08BD6831012028
:10B57C0074360120902370B5134E012203FB006634
:10B58C00002386B0CDE904230F220193CDE90232CA
:10B59C0014234FF4A0720D4D0D4903FB00550446C6
:10B5AC0002FB00110B4B3046009500F0A1F9737BA8
:10B5BC002C7423F004037373074B013403EBC42383
:10B5CC00EE606B6006B070BD383201202C36012065
:10B5DC00783E0120C3DA040078360120BFB5002084
:10B5EC00FFF744FF294B03F5006282F3088883F3CD
:10B5FC000A880024E023264D264F85F82230EC776C
:10B60C002C766C76AC7685F820406B6A43F4E0239C
:10B61C006B6285F82340FDF7E1FBFDF755FD4FF01C
:10B62C00FF33AB62EB62FDF7DFFEFDF775FD1A48E9
:10B63C0000F09EF902F00DFA0120FFF717FF02202F
:10B64C00164DFFF713FF00F07DFB154B15495D619F
:10B65C00154B4FF48062059301232846CDE9034333
:10B66C00CDE901443B46009400F042F906466A7B62
:10B67C00284622F004026A7302F070FA2046FFF7A3
:10B68C0079FF3A4631462846FDF7FEFC7836012014
:10B69C0000ED00E0A9B4040058330120C8320120A9
:10B6AC002C360120B83F0120A3EA04002DE9F34118
:10B6BC00044617461E46EFF31188202383F31288A5
:10B6CC00BFF36F8FC368334A7BB18068916888423F
:10B6DC0019D057EA060318D188F31188BFF36F8F7E
:10B6EC006FF00F0002B0BDE8F081916891F90E1077
:10B6FC000133E36093682161A36088F31188BFF381
:10B70C006F8F0020EEE72169F2E791F90E1090F9A6
:10B71C000E306FF07E029942A8BF19469142B8BF15
:10B72C0011468B422DDD02F0D1F9054622464146E9
:10B73C00CDE90076184800F003FA0028E1D0EFF3C9
:10B74C001186202383F31288BFF36F8FA068D0B1CA
:10B75C00236821699C420AD04BB193F90E3099426F
:10B76C00A8BF19466FF07E039942B8BF194602F084
:10B77C00ADF940B13146084800F076FA6FF00A0096
:10B78C00B0E70025D2E7002DF4D186F31188BFF382
:10B79C006F8FF3E72C36012073360120F8B58368E0
:10B7AC000546002B40D0234A926893423FD1C36890
:10B7BC00012B03D9013BC3600020F8BDEFF31187C7
:10B7CC00202383F31288BFF36F8F0169806802F026
:10B7DC007DF92C68A54207D10023C5E9023387F314
:10B7EC001188BFF36F8FE7E7002CF5D0D4E9003256
:10B7FC00002613605A60637BC4E9006623F00203E1
:10B80C006373A66004F1180002F01CFAAC6094F9A2
:10B81C000E3020462B61C4F8886002F09FF939463F
:10B82C00054800F021FAC7E76FF01500C5E74FF0A7
:10B83C00FF30C2E72C3601207336012070B5EFF3D0
:10B84C001186202383F31288BFF36F8F0468A04204
:10B85C001BD0D4B1D4E90032002513605A60637B4D
:10B86C00C4E9005523F002036373A56004F11800CA
:10B87C0002F0E8F92046C4F8885002F06FF931461E
:10B88C00BDE87040064800F0EFB9D0E902329A42A8
:10B89C0018BF0133836086F31188BFF36F8F70BDBF
:10B8AC007336012013B5EFF31181202484F3128831
:10B8BC00BFF36F8F846844B1013C846081F31188BD
:10B8CC00BFF36F8F002002B010BD52EA030406D103
:10B8DC0081F31188BFF36F8F6FF00F00F3E7CDE9A1
:10B8EC0000230246014800F02BF9ECE773360120E7
:10B8FC002DE9F043984685B000F15803C0E91633A2
:10B90C00109B002503730423073222F007064373B0
:10B91C000F9B01EB06090F4683734946C0E9065598
:10B92C008560C5730446FDF7F1F80E9B073020F0D7
:10B93C000700A067C4E91C7602930D9BA9EB0009D4
:10B94C0001930C9B4A460093394643462046FDF72B
:10B95C007BFB064B65659B6884F86C5003B1DB6F11
:10B96C004846E36705B0BDE8F08300BF2C360120E4
:10B97C0040F2011383810023C0E91C33C367014BE0
:10B98C00986070472C3601206FF00A01094A9368C1
:10B99C00C3F888100849C3F884004B6843F08053FF
:10B9AC004B60002383F31188BFF36F8F9368D3F838
:10B9BC00880070472C36012000ED00E070B590F93E
:10B9CC000D20437B002A36DBD90634D11B4C63F0A7
:10B9DC007F032246437352F8183FE169934207D123
:10B9EC00C0E900210860E06111E09942F8D01B68C1
:10B9FC00002BF5D090F90E5093F90E60B542F4D0AF
:10BA0C00AE42F2DD5968C0E9003108605860A569A2
:10BA1C00954200D005B9E568A3685A7BD20604D1DB
:10BA2C00DA897F2A01D9AA6932B1AB4202D0284601
:10BA3C0000F032FB656170BD6361FCE72C360120C0
:10BA4C0038B590F90D200146002A437B04DA03F047
:10BA5C007F03437302F048F80D4D2A4652F8184FF5
:10BA6C00AB68944200D004B9EC688B4207D05A7B87
:10BA7C00D20604D1DA897F2A01D9A2692AB1A3425C
:10BA8C0002D0204600F008FB23466B6138BD00BF96
:10BA9C002C360120B3F1FF3F08BFB2F1FF3F03D0BA
:10BAAC000249183000F09ABB704700BFEFDB04006E
:10BABC0070B590F90D200146002A437B04DA03F09F
:10BACC007F03437302F010F81C4C4B7B224663F04F
:10BADC007F034B7352F8183FE069934207D1C1E9D9
:10BAEC0000200160E16111E09842F8D01B68002B46
:10BAFC00F5D091F90E5093F90E60B542F4D0AE42E8
:10BB0C00F2DD5868C1E9003001605960A569A3688D
:10BB1C00954200D005B9E5688B4207D05A7BD20616
:10BB2C0004D1DA897F2A01D9AA692AB1AB4202D0A1
:10BB3C00284600F0B1FA2B46636170BD2C3601200B
:10BB4C00F8B5DDE906670D4B0C46986811460C4AB2
:10BB5C001060EFF31182202282F31288BFF36F8FF3
:10BB6C009D68284601F0D2FF284632463B46FFF737
:10BB7C0091FF2046BDE8F840FFF706BF2C360120A8
:10BB8C004C360120F8B50446EFF31187202383F3DC
:10BB9C001288BFF36F8F437B49B203F01F02002A58
:10BBAC000CBF0126002639D103F07F032D4D4373C2
:10BBBC0001F09AFF2A46437B817363F07F03437342
:10BBCC0052F8183F934227D1E869C4E90020046079
:10BBDC00EC610FE09842F8D01B68002BF5D093F97C
:10BBEC000EC06145F6D08C45F4DD5968C4E90031CE
:10BBFC000C605C60AC69944200D004B9EC68AB6832
:10BC0C009C4202D0204600F047FA6C6187F3118801
:10BC1C00BFF36F8F3046F8BDE869DEE79B071ED592
:10BC2C00856801F061FF81732B689D4209D16B68B7
:10BC3C00C4E900531C606C60E8E76A689342F6D074
:10BC4C001B68002BF3D093F90E209142F5D08A4259
:10BC5C00F3DD5A68C4E9003214605C60D6E7817386
:10BC6C00D4E700BF2C36012049B9EFF3058030B979
:10BC7C00054B5A699B689A4201D0FFF785BE81F348
:10BC8C001188BFF36F8F70472C360120034648B9DB
:10BC9C00EFF3058232B9064A51699268914201D09C
:10BCAC00FFF772BE83F31188BFF36F8F704700BF2D
:10BCBC002C360120EFF31181202383F31288BFF37C
:10BCCC006F8F054B9A68D37B013BD37381F311883B
:10BCDC00BFF36F8F704700BF2C36012070B5EFF3A8
:10BCEC001186202383F31288BFF36F8F144DAB683A
:10BCFC00DA7B0132DA732A4652F8184F944200D09C
:10BD0C0004B9EC685A7BD20604D1DA897F2A01D9AE
:10BD1C00A2692AB1A34202D0204600F0BDF9234605
:10BD2C006B6186F31188BFF36F8FEFF311802023C3
:10BD3C0083F31288BFF36F8FBDE87040FFF7A6BF87
:10BD4C002C360120024B03F11802C3E9062270477E
:10BD5C002C36012070B5EFF31186202383F3128863
:10BD6C00BFF36F8F1B4CA168E0690B68814214BF55
:10BD7C001A46002249680B605960A368E1692AB928
:10BD8C00154AC3E900210B60E3610CE093F90E0046
:10BD9C0092F90E50A84218D0854216DD5168C3E9BD
:10BDAC0000210B605360A5690B4B9D4200D005B977
:10BDBC00E568A3689D4202D0284600F06DF96561E4
:10BDCC003046BDE87040FFF7DFBD8A42D8D012681C
:10BDDC00D5E700BF2C36012044360120F8B550EAD7
:10BDEC00010306460C4603D1FFF7B4FF0020F8BD53
:10BDFC00EFF31187202383F31288BFF36F8F124D5B
:10BE0C00124BA8681860FFF71BFEA8682346324641
:10BE1C000F49183000F0E2F9AA680446537B384603
:10BE2C0043F004035373FFF7AFFDAB68D3E90A2368
:10BE3C00B3F1004F08BF002AD8D101F02BFF201A14
:10BE4C0020EAE070D3E700BF2C3601204C360120ED
:10BE5C00EFDB040038B504460D46FFF7BFFFB5F124
:10BE6C00FF3F08BFB4F1FF3F0246204618D0002325
:10BE7C004FF47A7447F611201946C2FB040147F6B9
:10BE8C001222904271F100020BD3084B834243F60D
:10BE9C0008538B4107D347F612220023FCF7E8FA2C
:10BEAC0038BD1846FCE76FF00040F9E7ED85FFFF61
:10BEBC0038B50446EFF31185202383F31288BFF3C2
:10BECC006F8F437B5B070FD5183001F0BBFE637B94
:10BEDC00204623F004036373FFF770FD2946BDE889
:10BEEC0038400448FFF7C0BE85F31188BFF36F8F4D
:10BEFC0038BD00BF73360120014B9868704700BFF6
:10BF0C002C3601202DE9F8430446077BEFF311850D
:10BF1C00202383F31288BFF36F8F437B190705D55A
:10BF2C0085F31188BFF36F8FBDE8F883D90943F00F
:10BF3C0008025AD14273A36813B1204601F0DCFD0C
:10BF4C0004F1180001F07EFEA66D04F15808B0450E
:10BF5C0011D04FF0000976B1304601F0CDFD06F15D
:10BF6C00180001F06FFE3046C6F88890FFF726FDEA
:10BF7C00A66DB045EFD1DFF8B880D8F808309C42F8
:10BF8C003BD1EFF30589B9F1000918BF4FF0010956
:10BF9C00D8F81860274A964200D00EB9D8F80C6031
:10BFAC00B34202D0304600F077F8C8F81460B9F10B
:10BFBC00000F02D02048FFF7DBFCD8F808309C4279
:10BFCC0031D1EFF3058373BB227BD20718D42846FB
:10BFDC00FFF7DAFCFB07A7D5002383F31188BFF327
:10BFEC006F8F0423184602DF9EE703F07F0343F0B4
:10BFFC000803437301F078FD9DE74FF00009C7E794
:10C00C0085F31188BFF36F8F83F31188BFF36F8FA4
:10C01C000423184602DFEFF31180202383F31288E8
:10C02C00BFF36F8FD4E785F31188BFF36F8FD1E720
:10C03C002C36012044360120583301200122044BB8
:10C04C00C01A044BC0105843034B1A54704700BF1E
:10C05C00E8330120ABAAAAAA73360120C3897F2B2F
:10C06C0012D80A4B1B6863B1094B90F90E201B6860
:10C07C009A4209DB437BDB0606D1064BC31A18BF79
:10C08C00012303F0010070470023FAE7CC300120B4
:10C09C00503601203832012070B50E4B0E4C1E7CF0
:10C0AC00054606EB460304EBC304204601F0CAFD2B
:10C0BC0000220A4B28469A55FFF7D0FF48B1084B8F
:10C0CC002046BDE870401A680649013AD31700F0C3
:10C0DC0085B870BD2C360120E83301207336012061
:10C0EC00CC30012049C0040038B5EFF31185202372
:10C0FC0083F31288BFF36F8F104B114A9C68106842
:10C10C00A04206D1FFF7C8FF85F31188BFF36F8FEC
:10C11C0038BD00211B7C11600A4AD35C002BF3D084
:10C12C002046FFF79BFF0028EED0637BDB0602D195
:10C13C002046FFF7BDFC2046E4E700BF2C3601206B
:10C14C004C36012073360120074808B5074A0849C8
:10C15C00121A01F0AEFCBDE808400648064A074931
:10C16C00121A01F0A6BC00BF00300120683101207A
:10C17C00B8EA04000030012000300120B8EA0400C5
:10C18C00024B1868984208BF00207047D03001203D
:10C19C00034B1B680BB9FEF71BB80020704700BFA0
:10C1AC005436012030B570B10B4B5B6898420AD005
:10C1BC00036843B1D3E90421D0E90445121941EBDA
:10C1CC000501C3E90421D0E9003213605A60002351
:10C1DC00C0E9003330BD00BFD0300120B3F1FF3FC8
:10C1EC0008BFB2F1FF3F2DE9F84F044699461546BA
:10C1FC001F467BD08160EFF31188202383F31288D4
:10C20C00BFF36F8F013279F1FF33DFF8E8A020DB49
:10C21C00FFF7BEFFDAE90027013549F100092D18B7
:10C22C0049EBE07306464FF00109C4E90453AD181D
:10C23C0043EB0707FFF7A4FF0346DFF8BCE0DEF88B
:10C24C0004A0EBB9C4E900EACAF80040CEF80440F7
:10C25C0028E06FF00103DAE900125B1A4FF0FF31AE
:10C26C0061EB02025B1B62EB0902012B72F1000114
:10C27C00BCBF012300224FF00009C0E90432D9E70A
:10C28C00D3E9041CD4E904208A4270EB0C0B24DAA9
:10C29C00891A5A686CEB0000C3E90410C4E9003237
:10C2AC0014605C60FFF76CFF84420ED1134B1B686B
:10C2BC005BB9B9F1000F02D1FFF76AFF06463046B1
:10C2CC0001F0A9FC0021FDF793FF88F31188BFF35F
:10C2DC006F8F28463946BDE8F88F521A60EB0C0078
:10C2EC009A45C4E90420ADD01B68AAE700252F4667
:10C2FC00EFE700BF00340120D0300120543601207C
:10C30C002DE9F047EFF31185202383F31288BFF357
:10C31C006F8FDFF8A0900026C9F800000027FFF708
:10C32C002FFFDFF89480D9F80030D8E900ECD9174A
:10C33C0050B1D0E90442A34271EB020A1BDAE41AB1
:10C34C0062EB0102C0E90442002413EB0E034CEB38
:10C35C0001012046C8E90031C9F8004001F05BFC3E
:10C36C002146FDF745FF85F31188BFF36F8FBDE8BC
:10C37C00F047FFF7B9BE14EB0E024CEBE473C0E9C7
:10C38C000467C8E90023FFF70DFF85F31188BFF39D
:10C39C006F8F83689847EFF31185202383F31288FE
:10C3AC00BFF36F8FD9F800301B1BC9F80030FFF7B3
:10C3BC00E7FEB8E7543601200034012010B5EFF346
:10C3CC001184202383F31288BFF36F8FFFF7E0FEF5
:10C3DC000346054AD2E90001181841EBE37184F3D6
:10C3EC001188BFF36F8F10BD00340120F8B50446DF
:10C3FC00EFF31187202383F31288BFF36F8F02684A
:10C40C0022B187F31188BFF36F8FF8BDD0E90A36DC
:10C41C00581C46F10001022871F1000127D3012BB1
:10C42C0076F10001BCBF012316465D1E46F1FF36B6
:10C43C0001F034FC013041F10001401946EB0101DF
:10C44C00012871F100013ADB01F028FC013041F1C7
:10C45C0000016FF00102401946EB01034FF0FF3170
:10C46C00121A61EB030320461749FFF7B7FE236B43
:10C47C0001332363236A6BB187F31188BFF36F8F8A
:10C48C002046236A9847EFF31187202383F3128801
:10C49C00BFF36F8F54F8185FA542B2D0002DB0D007
:10C4AC00284601F06AFB0023C5F8883087F3118811
:10C4BC00BFF36F8F2846BDE8F84001F04FBB6FF01B
:10C4CC0001024FF0FF33CEE7F9C304002DE9F04130
:10C4DC0005461C4690461F46EFF31186202383F336
:10C4EC001288BFF36F8FB4F1FF3F08BFB2F1FF3F6B
:10C4FC0005D186F31188BFF36F8FBDE8F081531C13
:10C50C0074F1FF3309DB012A74F10003BCBF012273
:10C51C00002412F1FF3844F1FF37284601F092FB5A
:10C52C00DDE906010023C5E90A012B6342463B46BF
:10C53C0028460249FFF752FEDBE700BFF9C30400AF
:10C54C002DE9F04F43688DB01546804602938378F1
:10C55C009A0740F10D8100240E78002E00F00A811C
:10C56C00252E0BD04B1C0393013441463046029BC5
:10C57C0098470028C0F2F6800399EDE74E788B1CA3
:10C58C00252E0393F0D00027B946BB46BBF11F0FF5
:10C59C0038D8A6F12003102B0AD8DFE803F02A09BB
:10C5AC0009300909092109090928092D09091F0060
:10C5BC00A6F13003092B33D92A2E37D11BF0400FAB
:10C5CC0055F8043B40F08280002BA7BF4BF0200BAA
:10C5DC009946C3F100094BF0280B01E04BF0010B1D
:10C5EC00039B13F8016B0393002ECFD130E04BF07B
:10C5FC00020B4BF0040BF3E74BF0080BF0E74BF09E
:10C60C00100BEDE7BBF17F0F19D8A6F13003092B06
:10C61C00D2D81BF0400F03D00A2101FB0737DFE70C
:10C62C000A214BF0200B01FB0939D9E72E2E06D13C
:10C63C001BF0400F40F09E804BF0400BD0E76C2E6F
:10C64C0031D02BD8682E36D06A2E3CD04C2E3AD016
:10C65C00002F46F02003B8BF2BF04002A3F1650178
:10C66C00BCBF00271FFA82FB022901D9612B2FD1F5
:10C67C0007350727DFF8ACA225F0070508351BF0B6
:10C68C00080F66D00AEB070B56465E4563D1A4EB48
:10C69C000A0AA9EB070906EB0A026FE1742E9FD078
:10C6AC007A2E9DD0D4E71BF0800F18BF4BF4007B83
:10C6BC004BF0800B94E71BF4807F18BF4BF4007B8E
:10C6CC004BF4807B8CE74BF4207B89E71F4687E794
:10C6DC00A6F16301122900F2F080DFE811F01300DB
:10C6EC004F00EE00EE00EE00EE004F00EE00EE000C
:10C6FC00EE00EE00EE00FE00E900EE00EE001B0086
:10C70C00EE00AF0055F8043B01270DF1180A8DF827
:10C71C001830B4E755F804AB834BBAF1000F08BFDF
:10C72C009A461BF0400F504614BF39464FF0FF316C
:10C73C0001F00DFB0746A2E741462020029B9847DB
:10C74C0000280FDB013EB742F6D34C44B146A41B84
:10C75C0098E74E46F7E7414616F8010B029B9847BF
:10C76C00002892DA98F8023043F0040388F802307B
:10C77C004FF0FF3420460DB0BDE8F08F1BF0800F5A
:10C78C0034D01BF4007F2CD0073525F00705AA46C2
:10C79C0069685AF8080B2BF010050029ADB237DA8E
:10C7AC00404245F4806561EB41010DF1180B0A2301
:10C7BC005A4601F0D8FAA0EB0B0301936B0662D535
:10C7CC00019B25F001019F4289B240F3A180002E0C
:10C7DC0000F0998015F0100240F09C80BB460D468D
:10C7EC0023E0AA465AF8040BC117D4E7AA461BF457
:10C7FC00807F5AF8041B01D10846F5E71BF4007F33
:10C80C0019BF48B241F3C01108B241F3C031C2E7BD
:10C81C0050EA0103C9D11BF0400FC6D0002FC4D180
:10C82C002BF01102BB46019795B240F2064115EA76
:10C83C0001021CBF0BF1010B00222CE02BF01002AB
:10C84C000A231FFA82FB1BF0800C49D01BF40071E9
:10C85C0015BF0735AA4625F007055AF8040B1EBF6D
:10C86C00AA4669685AF8080B50EA010545D12BF025
:10C87C0016051BF0400FADB242D0002F40D12BF06B
:10C88C001702019795B215F0100248D0019B002EAB
:10C89C0042D103F1010B29075AD4EB0706D5D94530
:10C8AC006FDDA9EB0B030199CB465F185B4649E0A2
:10C8BC004BF0100B10237826C5E7782B04D1C6F16A
:10C8CC00780343F01003BEE741462520029B9847AE
:10C8DC000028FFF647AF023447E608230026B2E7EC
:10C8EC00AA461BF480715AF8040BBDD01BF40071DE
:10C8FC001ABFC0B2614680B2B6E72BF0060295B201
:10C90C000DF1180B54E725F01105BB46ADB28CE7C1
:10C91C000D46B8E73B460D4603F1020BBBE7DDF8CD
:10C92C0004B082E7AFEA0400A8EA0400CDE90432BF
:10C93C0041462020029B98470028FFF613AF049B2A
:10C94C00059A01339945F1DCA4EB0B019B46CC18FD
:10C95C000AB341463020029B98470028FFF602AFED
:10C96C008EB901342744391B019B994224DC1D46A6
:10C97C0055BB019AA9EB0B09554622441446914428
:10C98C0033E0019F92E7023441463046029B9847C0
:10C99C000028E7DAE6E640F206410D42E2D015F057
:10C9AC00020F04F10104414614BF2B20202015F482
:10C9BC00806F18BF2D20E9E741463020029B0134DF
:10C9CC0098470028CFDACDE606AB013D4146585DCD
:10C9DC00029B98470028CBDAC4E641462020029BF4
:10C9EC00013498470028FFF6BDAEA9EB0403002BD9
:10C9FC00F3DCC1E570470346F0B419790068DB88B5
:10CA0C0001250669DA07346854BF43F4D01383F464
:10CA1C00B0138D4023F48012DB0787684CBF2C4386
:10CA2C00AC4334603B68F0BC1847034601211B79CA
:10CA3C000068994083685B691847836800EBC10103
:10CA4C00B3F5004F2CBF51F8220031F8120070479B
:10CA5C0000EBC1018068B0F5004F2CBF41F82230CB
:10CA6C0021F812307047012208B5FFF7E6FFD040DD
:10CA7C0008BD836800EBC101B3F5004F08D34B68C8
:10CA8C001AB143F001034B60704723F00103FAE73E
:10CA9C004B881AB143F001034B80704723F001031C
:10CAAC00FAE753000122FFF7D3BFB0F5004F34BFB4
:10CABC0004230823481C0833A0EBD300B0FA80F001
:10CACC00C0F11F0070472DE9F0410D468668044601
:10CADC00FFF7C9FFB6F5004F014601D3012832D04C
:10CAEC003046FFF7E2FF04EB80010E6996B9012294
:10CAFC00E36882401343E36002220D612B46294612
:10CB0C002046FFF7A5FF032229462046BDE8F04149
:10CB1C00FFF79EBF022231462046FFF78EFF0746E5
:10CB2C00034629462046FFF793FF03223346294646
:10CB3C002046FFF78DFF39462B462046FFF788FF2E
:10CB4C0002223146E1E7BDE8F081B2F5802F2CBF1F
:10CB5C00082304232DE9F0410026D21A8C18CD1D90
:10CB6C0025F0070524F00704641BE4080560214642
:10CB7C002046AC60EE60FFF798FF421D920001303A
:10CB8C0002F107074FEAD7073146A2F1100205F16F
:10CB9C001000B8BF324601F0D2F83A46314628466A
:10CBAC00FFF77FFF3346324631462846FFF750FFEA
:10CBBC00A4EB0708284631460122FFF75AFF4246EC
:10CBCC003946FFF76EFF3B46324639462846FFF79B
:10CBDC003FFF21462846FFF764FF43463246214675
:10CBEC002846FFF735FF214628460122FFF741FF73
:10CBFC003946BDE8F041FFF766BF002070470FB41F
:10CC0C0007B504A951F8040B0191FBF727FE03B0FB
:10CC1C005DF804EB04B07047038B13F0070305D1E8
:10CC2C000368002B0CBF002003207047022B05D19A
:10CC3C00408BB0FA80F0400980007047012B05D181
:10CC4C000368002B0CBF00200520704700207047A4
:10CC5C0010B50C4600B111B96FF0150010BD081DD0
:10CC6C0000F093F80028F9D1A368032BF6D9F3E769
:10CC7C002DE9F0410D4607461946281D90461E46E3
:10CC8C0000F094F8044638B13346424629463846FB
:10CC9C00A446BDE8F0416047BDE8F08110B4EFF365
:10CCAC001182202484F31288BFF36F8F416110BC72
:10CCBC000121FBF705BE38B50C46054658B151B1FC
:10CCCC000B6843B14B6833B11C22002101F037F8DB
:10CCDC0000202C6138BD6FF01500FBE770B50546E0
:10CCEC000E46FFF7B5FF041E14DBEFF31182202371
:10CCFC0083F31288BFF36F8F4FF6FF716B8B2C8B06
:10CD0C008B4204F0070407D182F31188BFF36F8FB5
:10CD1C006FF00A04204670BD022C0CD101336B83DA
:10CD2C0082F31188BFF36F8F0023224631462846C9
:10CD3C00FFF79EFFEEE7062C14D8DFE804F004138F
:10CD4C001313041A0400002333606B683BB9C5E964
:10CD5C000066ACB902212846FBF7B2FDDAE71E608B
:10CD6C006E60F6E782F31188BFF36F8F6FF00404E7
:10CD7C00D0E782F31188BFF36F8F6FF08504C9E79A
:10CD8C0082F31188BFF36F8FC4E7034658B1426832
:10CD9C0002F00302012A03D0032A04D1026812B163
:10CDAC000020986070476FF015007047426803468A
:10CDBC0002F00302032A4FF00002816014BF1046F8
:10CDCC0000685A6070477047012801D1EFF3058362
:10CDDC00FEF734BB01460068FFF7F6BF08B5FBF75A
:10CDEC0091FEBDE80840FBF7B1BE704770470021CB
:10CDFC000120FFF7E9BF036F83F30B88704761B61F
:10CE0C0062B680F31188BFF36F8F704772B6002340
:10CE1C0083F31188BFF36F8FBFF34F8F30BF62B6B0
:10CE2C00BFF36F8F704772B6002383F31188BFF383
:10CE3C006F8FBFF34F8F20BF80F31188BFF36F8FBD
:10CE4C0062B6704740E800F313F4803FD8B208BFD5
:10CE5C006FF01500704730B50C684B6885B00A89C7
:10CE6C004D890094013B24F01F04234402F01F025F
:10CE7C0042EA451223F01F0369468DF808200393FC
:10CE8C00FCF780F905B030BD08B5FCF73BFB002082
:10CE9C0008BD0C220369C9B201FB0233186C00F007
:10CEAC000700704770B5C9B20369EFF311852024F0
:10CEBC0084F31288BFF36F8F0C2606FB0134246CAD
:10CECC0014F0C00408D0A24206D085F31188BFF339
:10CEDC006F8F4FF0FF3070BD012206FB01331A64D7
:10CEEC0085F31188BFF36F8F436803EBC1035B6855
:10CEFC0098470020EFE78022FFF7D4BFF8B5069FD4
:10CF0C000469C9B2EFF31186202585F31288BFF3AB
:10CF1C006F8F0C2505FB0144256C05F0070CBCF14B
:10CF2C00010F0CD1276486F31188BFF36F8FC4E90E
:10CF3C000E23436853F8313098470020F8BD05F0B4
:10CF4C00C005AF4286F31188BFF36F8F0CBF6FF033
:10CF5C0077004FF0FF30F1E713B580240094FFF712
:10CF6C00CDFF02B010BD10B41C240069CBB203FB82
:10CF7C000400002110BC10470020FDF73DBB002031
:10CF8C0000F09ABC1046FEF759BC022804D00428C5
:10CF9C0004D10020FCF794BB0120FBE770474368E9
:10CFAC0000205B68DB680B607047436802EA010095
:10CFBC005B6821EA02015860002099607047436861
:10CFCC0000205B6859607047436800205B6899607B
:10CFDC00704743685A68136821EA03000B4050609D
:10CFEC0000209360704710B503695868F8B1884207
:10CFFC0019D19C680868A142586000D19860002043
:10D00C0008602AB15A680A609A68596002B9996036
:10D01C00002010E0814206D10868206098688142A7
:10D02C00EDD19C60EBE7044600680028F2D1002AA1
:10D03C00E8D16FF0150010BD30B543681360057A68
:10D04C00446804EBC504A34202D36FF0010030BD69
:10D05C005C798C4201D00833F0E70020F7E7436895
:10D06C001B68D3F88004C3F88004704703691A68FE
:10D07C0013680BB152681847704730B587B0044637
:10D08C000D461422002101A800F059FE042320466D
:10D09C000DEB03018DF804300295FFF7E7FF07B0A5
:10D0AC0030BD70B586B0066904460D4614220021C9
:10D0BC0001A800F044FE02238DF8043033682046AA
:10D0CC001B6C01A9029333689B6CCDE90335FFF708
:10D0DC00CDFF06B070BD30B503691C6843681B6892
:10D0EC00EFF31185202080F31288BFF36F8F206C33
:10D0FC00A8B1E06CB0B90020C4E91312042AC3F83B
:10D10C000417C3F8082782BFD3F8002242F020028C
:10D11C00C3F8002285F31188BFF36F8F30BD6FF019
:10D12C000C00F7E76FF00F00F4E70369186820B103
:10D13C0001601B6800205A6070476FF085007047D3
:10D14C0010B5426800691368006860B9D3F84C41A7
:10D15C0064B1926B12780A70C3F84C01D3F84C216D
:10D16C0001229A6210BD6FF08500FBE74FF0FF3093
:10D17C00F8E770B503690E461D6843681C6805F135
:10D18C00080000F099FDEFF31182202383F312883D
:10D19C00BFF36F8FEB6C53B1D4F8003223F0200344
:10D1AC00C4F800320023C4F85031D4F850310023B5
:10D1BC0085F8613001230EB185F86230E36282F3A9
:10D1CC001188BFF36F8F002070BD03691B681B6C47
:10D1DC0013B10121FFF7CDBF6FF00D00704710B5F3
:10D1EC0003691968D1F8A420D1F8B040121B13D0F0
:10D1FC00082A28BF08224068C1F8AC201968C06A08
:10D20C00C1F8A8001B68D3F8A010D3F8B0301944AB
:10D21C0000F06EFD012010BD1046FCE773B5436BAA
:10D22C005A681B69126853F8080BD2F81011D3E82E
:10D23C00EF4F24F01005C3E8E65F002EF7D1E306AC
:10D24C0010D569B10023C2F81031D2F81031D0E9F1
:10D25C001623002400250830CDE90045FFF736F9E8
:10D26C0002B070BD0029FBD10123D362F8E713B5DE
:10D27C0001AA0446FFF7E0FE002805DB019B2268AB
:10D28C0019791868FCF7D8FC02B010BD37B5044604
:10D29C0005680021C068FFF7EAFF0823C5F80035D0
:10D2AC0094F83C3023B10021E06801AAFFF7C4FEDA
:10D2BC0003B030BD10B543681C68C4F83C17C4F803
:10D2CC0040270022C4F830215B68D4F830215A077B
:10D2DC0009D50269936843F001019B07916002D163
:10D2EC004068FFF7D3FF0123236510BD10B44FF442
:10D2FC00805442681268C2F8044343681B68D3F830
:10D30C0030210B6822B9012283F8B82010BC704779
:10D31C00002283F8B8204FF0FF320B68C3F8B4201A
:10D32C000B6810BCD3E92A12FFF7C4BF10B4026912
:10D33C004468936823EA0101916011F0030108D15C
:10D34C0043681B68C3F80015E068012110BCFFF7A7
:10D35C008EBF10BC704770B5036986B04568044633
:10D36C001422002101A81E6800F0E9FC05238DF8A9
:10D37C000430002386F861306B685B070ED5EFF341
:10D38C001185202383F31288BFF36F8F022120466F
:10D39C00FFF7CCFF85F31188BFF36F8F204601A9EF
:10D3AC00FFF764FE06B070BD2DE9F3410646174643
:10D3BC001C460569EFF31188202383F31288BFF311
:10D3CC006F8F2B68D3F8A42042B188F31188BFF378
:10D3DC006F8F6FF00F0002B0BDE8F081C3F8A4703E
:10D3EC002B68C3F8A01001F06043B3F1005F2B6809
:10D3FC0014D1C3F8A8102B68C3F8AC70294630467A
:10D40C00FFF774FF88F31188BFF36F8F73681B7E6F
:10D41C00012B01D1631C06D10020DCE7C3F8B0203E
:10D42C00FFF7DDFEEAE724EAE4722868D3171F321F
:10D43C0043F10003520942EAC36268305B090024DD
:10D44C000025CDE90045FFF741F8E5E738B542681E
:10D45C00036915681A68D2F8A01051B1002482F83B
:10D46C00B8401868683000F027FC012320466B6533
:10D47C0038BD6FF00D00FBE7406BFFF7E7BF2DE900
:10D48C00F04F436807691D680446D5F80483D5F846
:10D49C001431D7F800908BB05BB318F0200F28D064
:10D4AC0000211422C5F81411D5F8143143680DEB82
:10D4BC000200D3F800A0DAF8806400F040FC0623E8
:10D4CC00F1078DF8143000F18380B20700F18280EF
:10D4DC00730700F1818006F0080320468DF81830A0
:10D4EC0005A9CAF88064FFF7C1FD00212046FFF7AB
:10D4FC0040FED5F84C31002B7AD018F4002F77D0A1
:10D50C000022C5F84C21D5F84C31C5F84C21D4F883
:10D51C0010A0D5F84C31DAF800606368D3F800B08D
:10D52C0006F108030393184600F0C6FB0022DBF853
:10D53C000C0796F8601086F86020B26C891A0144CA
:10D54C00002902DD2046FFF7ACFD2046316CFFF7C9
:10D55C0094FDF26C3264326D72640022C6E91322BF
:10D56C00B26496F86120002A42D0EFF31182202198
:10D57C0081F31288BFF36F8F316C002900F0EE80BD
:10D58C00DBF8501151BB0120CBF82800CBF824114B
:10D59C00DBF82411DAF8081041F01001CAF8081071
:10D5AC00DBF8001221F02001CBF8001282F3118875
:10D5BC00BFF36F8FD6E91632134319D0D6E9162371
:10D5CC0000200021CDE900010398FEF77FFF0FE05A
:10D5DC00012382E7022380E704237EE7DBF80012B5
:10D5EC0021F02001CBF8001282F31188BFF36F8F6A
:10D5FC0018F4801F15D0D5F8503193B1D5F84C11D3
:10D60C0079B91422C5F850110DEB0200D5F8503140
:10D61C0000F095FB0323204605A98DF81430FFF785
:10D62C0025FD18F4007F3AD0D5F82431BBB3D5F8DA
:10D63C004C31A3BBC5F82431D5F824312369D4F877
:10D64C0004A053F8086BD3E8EF2F22F48031C3E821
:10D65C00E01F0028F7D1D00303D506F1080000F035
:10D66C002BFB316C21B12046FFF707FD00233364FF
:10D67C0096F86230002B75D0002386F86230636810
:10D68C0020461B68D3F8002222F00052C3F8002277
:10D69C000022C3F81021D3F81031FFF75CFE18F408
:10D6AC00805F3DD0D5F83031002B39D063682569C7
:10D6BC00D3F80080EFF3118A202282F31288BFF393
:10D6CC006F8F2A685B68D2F8B4100029ACBFD2F80F
:10D6DC00B460D8F844675A0707D54FF4805301213A
:10D6EC002046C8F80833FFF721FE8AF31188BFF3F0
:10D6FC006F8F2B68D3F8A02092B193F8B810002943
:10D70C0053D0EFF31186202383F31288BFF36F8F6E
:10D71C0029462046FFF7EAFD86F31188BFF36F8F89
:10D72C000837D7E8EF3F23F00402C7E8E12F0029C0
:10D73C00F7D15B0777D52046D9F84410FFF7B1FC39
:10D74C002046D9F84010FFF798FC00232046C9E981
:10D75C0010330BB0BDE8F04FFFF7FDBD0121CBF846
:10D76C002C1041E7DAF80430590788D56268136841
:10D77C00126BC3F804270522C3F808270122DA61CB
:10D78C00D3F84C21002AFBD00021C3F84C11D3F85C
:10D79C004C21D3F850212AB1C3F85011D3F85021A1
:10D7AC00D3F80C2786F8602069E7D3F8A8108A42D2
:10D7BC0010D0D3F8AC10D3F8B020B142324430D1F1
:10D7CC002046C3F8B020FFF70AFD002899D12B683A
:10D7DC00D3F8B0602868683000F06EFA142200218B
:10D7EC000DEB020000F0ABFA2B682046D3F8A0300A
:10D7FC0005A9CDE906362B68D3F8A4309E421CBF90
:10D80C0001238DF814304FF48053C8F808330023EB
:10D81C002A68C2F8A0302A68C2F8A430FFF726FCA8
:10D82C007EE71646D6E70BB0BDE8F08F07B5684625
:10D83C00FDF748FCDDE9000103B05DF804FB08B519
:10D84C0000F035F848B1002383F31188BFF36F8FD4
:10D85C000423184602DF6FF0040008BD00B589B040
:10D86C0006AB02930823039301AB049304230791A3
:10D87C00CDE9053004AA184602A9FCF79DFD022843
:10D88C00019B09D003280AD060B9181E18BF0120CB
:10D89C00404209B05DF804FB6FF01500F9E76FF03A
:10D8AC008500F6E74FF0FF30F3E7002070470020CB
:10D8BC007047004700F0C9B8FCF704BEF7B5164630
:10D8CC00DDE90847019001A81D46FCF749FF019BC3
:10D8DC00B6F1000C18BF4FF0010C00EB83000B1ECF
:10D8EC0018BF0123002D43EA4C0314BF4FF00C0C5E
:10D8FC004FF0000C002C43EA0C0314BF4FF4706C77
:10D90C004FF0000C002F43EA0C0314BF4FF4403CC3
:10D91C004FF0000CD0F8802043EA0C0322EA0303FA
:10D92C0001B109780EB13678760019430DB12D7816
:10D93C00AD0031430CB12478240229430FB13F7858
:10D94C003F040C433C43C0F8804003B0F0BD1FB50E
:10D95C000DF10F03019300238DF80F101A46194691
:10D96C000093FFF7ABFF05B05DF804FB70B5044600
:10D97C0008461646FCF704FF083034F810300D4604
:10D98C00DA0509D5C3F3432304EBC3023146284619
:10D99C0054F8333052689847A3682BB13146284667
:10D9AC00E268BDE87040184770BDF0B50446002031
:10D9BC0001270546844695420AD1D4F8403133B14B
:10D9CC000023C4F84031D4F8403140F48030F0BD2D
:10D9DC00EBB29B0003F580769B0807FA03F3194220
:10D9EC0008D054F806E0BEF1000F03D044F806C08E
:10D9FC00A65918430135DEE770B506790446304662
:10DA0C000D46FCF74FFFB0B13046FCF739FF90B92B
:10DA1C003046FCF725FF012322688340C2F8083307
:10DA2C00226803B202EB8303D3F8102522F0030221
:10DA3C00C3F8102570BD2846BDE870400021FFF7E3
:10DA4C0086BFFDF72BB8FFF7D7BF08B1FBF78ABD30
:10DA5C007047704740B1C368587810F001001EBF82
:10DA6C001878B0FA80F040097047EFF31183202347
:10DA7C0083F31288BFF36F8FFEE708B5FFF7F5FF4E
:10DA8C0010B54369044633B90020E268537843F07B
:10DA9C000103537010BD98470028F5D00028B8BF7B
:10DAAC004042FF28A8BFFF20E3681870EDE700F0A4
:10DABC0046B900F01DB9202408B5EFF3118384F3A7
:10DACC001288BFF36F8FFFF7A1F9F6E790F90E30CC
:10DADC008B4201D0FEF756B800207047EFF305805B
:10DAEC00003818BF01207047D0E9003213605A602B
:10DAFC000023C0E90033704708B5FFF7F5FF437BFF
:10DB0C0023F0020343730023836008BD38B5044639
:10DB1C000D46FDF795FF637B43F002036373E5B19C
:10DB2C00A5602B689D4209D16B68C4E900531C6049
:10DB3C006C6012E06A689A42F6D01B68002BF3D036
:10DB4C0094F90E2093F90E108A42F3D09142F1DD34
:10DB5C005A68C4E9003214605C6038BD10B5EFF34C
:10DB6C001184202383F31288BFF36F8FFDF726FFF8
:10DB7C0084F31188BFF36F8F10BD08B5EFF31181DB
:10DB8C00202282F31288BFF36F8F83680BB1FFF7EB
:10DB9C00B3FF81F31188BFF36F8F08BD38B5EFF376
:10DBAC001184202383F31288BFF36F8F002390F826
:10DBBC006C50427B80F86C302DB121B184F311880C
:10DBCC00BFF36F8F38BD12F0280FF7D183680BB1FC
:10DBDC00FFF792FF437B23F004034373FDF7EEFE44
:10DBEC00ECE701211838FFF7D9BF08B50346EFF36E
:10DBFC001181202282F31288BFF36F8F0068834259
:10DC0C0007D008B1FFF778FF81F31188BFF36F8F4E
:10DC1C0008BD0020F8E708B50246FEF7B1FA70B16E
:10DC2C00D0E904319B1A61EBE272B3F1004F72F14F
:10DC3C00000104DA002AACBF1846002008BD6FF0C2
:10DC4C000040FBE7024638B5EFF31185202383F340
:10DC5C001288BFF36F8F0368CBB1FEF791FA0446BD
:10DC6C001046FEF79FFA00224FF000438442C0E9B1
:10DC7C00042306D1FEF78CFAFFF7CDFF0021FCF749
:10DC8C00B7FA002085F31188BFF36F8F38BD6FF0A2
:10DC9C001500F7E708B5FEF791FB08BDFEF78EBB44
:10DCAC000023C0E9081200F11802C0E90622C0E9FD
:10DCBC00003303634363704710B50446FFF7C2FF9C
:10DCCC00A8B9636A0BB12046984704F11800FFF716
:10DCDC008CFF60B1FFF742FFEFF31180202383F339
:10DCEC001288BFF36F8FBDE81040FDF7CFBF10BD9A
:10DCFC000A44431E914200D1704710B511F8014BF4
:10DD0C00914203F8014FF9D110BD884210B501EBD7
:10DD1C00020402D98442234607D8431EA14208D0EC
:10DD2C0011F8012B03F8012FF8E7024401468A424F
:10DD3C0000D110BD13F8014D02F8014DF7E7024474
:10DD4C000346934200D1704703F8011BF9E70246E2
:10DD5C00014410B58A42134603D01C780132002CC2
:10DD6C00F8D1181A10BDF0B5C3F13707044603F00B
:10DD7C001F031046FFB2082BE6B232D0102B3DD059
:10DD8C006508A40845EAC17544EA81748A082D190E
:10DD9C0042EB5102290941EA02716D1842EB121251
:10DDAC00290A41EA02616D1842EB1222290C41EA60
:10DDBC0002416D1842EB1242AD1842F10002EC0820
:10DDCC0044EA4274D10804EB8402A6EB4205EDB29E
:10DDDC00092D0CD90134A5F10A0541F10001EDB270
:10DDEC0012E0E40806F0070544EA4174C90830352E
:10DDFC0054EA010200F8015BBDD1F0BD240906F024
:10DE0C000F0544EA01740909092D84BFED19EDB21F
:10DE1C00EDE700000148006870470000083401205D
:08DE2C0084A6FF7F0100000045
:10DE34005D950400000000004DA2040000000000F5
:10DE44000000000094DE040000000000D4DE0400A2
:10DE540000000000B4DE040000000000F4DE040052
:10DE64000000000014DF0400859804000000000096
:10DE740055A10400000000003995040000000000D2
:10DE8400B7D80400000000004BD8040000000000D4
:10DE94004DEA0400A0E80400D0E704004831012062
:10DEA400443401203D9604000000000000000000FE
:10DEB4005AEA0400BCE80400ACE704004A3101203B
:10DEC40098340120B59A040000000000000000000E
