:1000000080A20520F9420000CDBE0000E5420000BC
:10001000E5420000E5420000E5420000E542000044
:10002000000000000000000000000000214400006B
:10003000E542000000000000C9430000E542000066
:10004000A5450000A5450000A5450000A545000008
:10005000A5450000A5450000A5450000A5450000F8
:10006000A5450000A5450000A5450000A5450000E8
:10007000A5450000A5450000A5450000A5450000D8
:10008000A5450000A5450000A5450000A5450000C8
:10009000A5450000A5450000A5450000A5450000B8
:1000A000A5450000A5450000A5450000A5450000A8
:1000B000A5450000A5450000A5450000A545000098
:1000C000A5450000A5450000A5450000A545000088
:1000D000A5450000A5450000A5450000A545000078
:1000E000A5450000A5450000A5450000A545000068
:1000F000A5450000A5450000A5450000A545000058
:10010000A5450000A5450000A5450000A545000047
:10011000A5450000A5450000A5450000A545000037
:10012000A5450000A5450000A5450000A545000027
:10013000A5450000A5450000A5450000A545000017
:10014000A5450000A5450000A5450000A545000007
:04015000A5450000C1
:1001540053B94AB9002908BF00281CBF4FF0FF312A
:100164004FF0FF3000F00CB8ADF1080C6DE904CE8F
:1001740000F008F8DDF804E0DDE9022304B070477C
:10018400704700BF2DE9F04786468C460846089E16
:10019400154674461946002B40F0C1808542B2FAD8
:1001A40082F245D94AB1C2F1200300FA02FC95401B
:1001B40094402EFA03F343EA0C0C4FEA154EA8B20E
:1001C400230CBCFBFEF80EFB18CC08FB00F943EA39
:1001D4000C43994528D9EB1808F1FF3704D2994507
:1001E40002D9A8F102072B44A3EB0903A4B2B3FB81
:1001F400FEFC0EFB1C330CFB00F044EA0344A0425B
:1002040014D92C190CF1FF3304D2A04202D9ACF159
:1002140002032C44241A43EA07401EB1D4400023AD
:1002240034607360BDE8F0874746DDE76346F1E775
:1002340092BB431B01214FEA154EAFB2200CB3FB16
:10024400FEFC0EFB1C330CFB07F840EA0343984505
:1002540061D9EB180CF1FF3004D2984502D9ACF106
:1002640002002B44A3EB0803A4B2B3FBFEFC0EFB79
:100274001C330CFB07F744EA0344A7424DD92C195D
:100284000CF1FF3304D2A74202D9ACF102032C448F
:10029400E41B43EA0040C0E7C2F1200395409440C8
:1002A40020FA03F12EFA03F34FEA154E9040AFB251
:1002B4000343B1FBFEFC0EFB1C10190C0CFB07F8EE
:1002C40041EA0041884522D969180CF1FF3004D273
:1002D400884502D9ACF102002944A1EB08019BB284
:1002E400B1FBFEFC0EFB1C110CFB07F743EA0143B8
:1002F4009F420ED9EB180CF1FF3104D29F4202D970
:10030400ACF102012B44DB1B41EA004193E7604658
:10031400E3E76146F7E76046A4E76346B8E783424C
:1003240006D916B9002108467CE7C6E900E0F9E7DA
:10033400B3FA83F78FB9834201D3724508D8BEEB71
:10034400020460EB030301209C461EB9002169E707
:100354003846FAE7C6E9004CF8E7C7F1200CBB4081
:100364000EFA07F522FA0CF42EFA0CF1BA401C43EB
:1003740020FA0CF3B8404FEA144901431FFA84FEF3
:10038400B3FBF9F809FB18300B0C08FB0EFA43EA2F
:1003940000439A4540D9E31808F1FF3004D29A4546
:1003A40002D9A8F102002344A3EB0A0389B2B3FBE8
:1003B400F9F809FB183308FB0EFE41EA03418E45A8
:1003C4002CD9611808F1FF3304D28E4502D9A8F163
:1003D4000203214443EA0040A1EB0E01A0FB029872
:1003E4004145CE46434602D306D14D4504D2013899
:1003F400B9EB020E68EB0403002EA7D0B5EB0E0296
:1004040061EB030101FA0CFC22FA07F3F9404CEA10
:100414000303C6E9003199E74046C5E74346D9E7F7
:1004240030B53D4B3D4A85B0C2F80036C2F80436BB
:10043400C2F80836C2F80C36C2F81036C2F81436C0
:10044400C2F81836C2F81C3602F58052C2F80036DB
:10045400C2F80436C2F80836C2F80C36C2F81036B0
:10046400C2F81436C2F81836C2F81C3600F07AF80E
:1004740000F080F858B14FF05023D3F800340BB19A
:10048400DB0704D503F0B4F8254803F069FD00F058
:10049400B1FB054601A801F005F80446284600F022
:1004A400B9FB204B1B68A34201D00AF02FFD4FF487
:1004B4008031002006F092FE044600B1FEE706F00B
:1004C40073FF69469DF808000AF0F5FB009A039B48
:1004D400154D1344019A128913442B6006F066FEED
:1004E40002F088F801F08EF801F01AF901F05CF8D6
:1004F40001F076F884F30B8884F30A882B681B6870
:1005040083F3088884F31488BFF36F8FBFF36F8F6E
:100514002B685B689847FEE73546526E00800150B1
:1005240088EE0000BC2000206827002021B10129AA
:1005340006D06FF015007047044B53F83000704735
:10054400024B03EBC0035868704700BF90EE0000F5
:1005540004289ABF024B18566FF01500704700BF6D
:100564004CF300004FF4C051014807F071BC00BFC8
:10057400CE46012073B50F4C20460DF0B2FEB8B143
:100584002569A6682B680D2143F400532B6020468F
:100594003368094A98472046736801A9984720B9E7
:1005A4002B6801985840C0F34030003818BF012030
:1005B40002B070BD08EA0000110001002DE9F04707
:1005C40006460F4690461C46124DDFF84CA0554592
:1005D40011D30A2120460DF06BFE022220460F495A
:1005E4000DF059FE082120460DF048FE0A21204650
:1005F4000DF066FE0BE055F8049BB9F1000FE6D050
:100604002346424639463046C8470828DFD00020F2
:10061400BDE8F08724FB000028FB000051F3000034
:1006240037B51D4683883F2B2ED1037803F007038B
:10063400022B29D1C4793CBB0D2001A901F0C6FCD1
:1006440000281FDB0198214682680BF0E3F9044679
:1006540001980BF09FF9003C18BF01240A21284699
:100664000DF026FE0222094928460DF014FE21460B
:1006740028460DF003FE0A2128460DF021FE2046EF
:1006840003B030BD0124E9E70824F8E751F3000082
:100694002DE9F04F9B46F7B0854B0746DDE981898C
:1006A40036A80E4614461D680DF0F9F8002136A848
:1006B40007F006FDB8F1000F07D0B9F1000F04DD13
:1006C4004A46414636A80DF0F3F84FF00008338946
:1006D4007289D6F80CA013449A44C2455CD80CA97C
:1006E40036A80DF024F936A80DF0DDF8839B23B16C
:1006F400202218460CA90BF060FC0023224600932C
:1007040031464FF6FF7306A80AF0F8FA804600282F
:1007140052D1214638460B9E0AF0A8FBB0424BD377
:100724004FF0FF36DFF88CA1DFF88C910DF1120346
:1007340004AA05A906A80AF02FFB00283CDB40F018
:10074400AE80059906A80AF073FB50B94FF6FF7105
:10075400BDF81200594A32F8023B8B422CD0984221
:10076400F9D1BDF81270102F30D0202F73D0012F83
:10077400DCD1BDF81030202B1ED82046059936AAAE
:100784000BF009F90646B8B99DF810B0BBF1200F7B
:100794003BD94FF0FF36C9E7809BAAEB080999457E
:1007A40028BF99465A464B46414620460BF0F3F87B
:1007B40028B136A80DF077F83D4B1D6872E04A4623
:1007C400594636A80DF074F8C84486E7BDF8107091
:1007D400202FF1D13B462046059936AA0BF0DBF8D1
:1007E4000028E9D100F006FA3A46804636A90CA85A
:1007F40000F07AF90746404600F00CFADAF80030C7
:10080400BB42D9D14FF0010890E7D9F800302C4F02
:100814000393039B9E42BCDA1CA80DF040F8002110
:100824001CA807F04DFC7A681CA8126857F8081B2E
:100834000DF03EF814A91CA80DF079F81CA80DF0D1
:1008440032F85A4636A914A80BF090FB00283FF45E
:100854006DAF0136DDE7731C3FF468AFD9F80030A3
:10086400B34296DDBDF81030B3F5807FA4D12046A5
:10087400059936AA0BF08FF800289DD100F0BAF93B
:10088400F6B283463946BDF8103036AA00960CA855
:1008940000F0B8F80546584600F0BCF979E7B8F11D
:1008A400000F89D000F0AEF9284677B0BDE8F08F8C
:1008B400B8200020BC200020A0EE0000F8F20000C8
:1008C400A4EE00002DE9F047894619464B4BADF5DF
:1008D400AE6D1E68DDF89035B3F5807F40F08680FC
:1008E400202A40F083805CAA07F0A2FB044600287B
:1008F4007CD19DF86F32BC2B78D10DF19008DF27A5
:10090400454601900AA80CF0CAFF00210AA807F086
:10091400D7FB20220DF24F210AA80CF0C9FF0422B4
:100924000AA80DEB02010CF0C3FF02A90AA80CF0FF
:10093400FEFF0AA80CF0B7FF202FBA46A8BF4FF05D
:10094400200A9DF8073040460133524602A9A7EB1E
:100954000A078DF807300BF030FB002FD044D1DCB0
:10096400AC462946DF225CAB087813F8017B013AD8
:1009740080EA070001F8010BF6D12B7803F07F031E
:100984002B701CF8017B8FBB0134BE2CF9D195F878
:10099400BE30012B2AD10AA80CF081FF39460AA8DF
:1009A40007F08EFB082216490AA80CF081FF49467D
:1009B40020220AA80CF07CFF20220DF24F110AA875
:1009C4000CF076FF02A90AA80CF0B1FF0AA80CF0FB
:1009D4006AFF00F00FF9202204460DF24F2102A80D
:1009E40000F082F80646204600F014F900F00AF9F7
:1009F40030460DF5AE6DBDE8F08700BFB82000208D
:100A040054F300002DE9F04F1F46A3B0344B804649
:100A140004A89DF8B0501E68894692460CF0F8FE72
:100A24000922012104A807F0C5FA2E4B03AA53F8A2
:100A3400354003EBC5035B6802941B6802A81C44A1
:100A4400214630230BF0CFFF00283FD1DDE90232ED
:100A540013449C423AD1214606AA02A80BF0D7FFC0
:100A6400002833D10DF1200B5A46214602A80BF081
:100A7400CEFF054650BB06A80CF077FB029B059001
:100A84009C4223D12B462A46CDE9005B06A904A843
:100A94000CF07BFED0B904A807F0A4FAB0B906A8FC
:100AA4000CF063FB059004A80CF0BCFE87420DD14A
:100AB40000F0A0F8534604464A464146009704A86D
:100AC400FFF700FF0646204600F0A4F804A80CF047
:100AD400ABFE00F097F8304623B0BDE8F08F00BFBE
:100AE400B8200020A4EE000070B5094B04461D6830
:100AF4000023934205D1074B1D6800F083F8284674
:100B040070BDE65CC85C8642F7D10133F1E700BFF3
:100B1400B8200020BC2000202DE9F74F98468368B8
:100B2400074699428A46144659D25B1A934256D3D1
:100B3400B8F1000F43D06A460AF0C5F8002850DB2C
:100B4400013CDDF80090A244274D284C284E6A460B
:100B5400514638460AF0B7F8002842DBDDE900BA0E
:100B64003846524659460AF040FF002839DBC5F89A
:100B74000046C5F80446C5F80846C5F80C46C5F84D
:100B84001046C5F81446C5F81846C5F81C46C6F8FC
:100B94000046C6F80446C6F80846C6F80C46C6F829
:100BA4001046C6F81446C6F81846C6F81C46B8F1EE
:100BB400000F0ED0D94514D20BF1FF3AC7E7511EEE
:100BC40051446A460AF07FF800280ADBDDF80090F9
:100BD400BAE7DA44CA4504D80AF1010AB7E74FF084
:100BE400FF3003B0BDE8F08F008001503546526EEF
:100BF40000900150024B1868421C1A60704700BFF5
:100C04006C270020024A1368013B1360704700BF41
:100C14006C270020034B1B68834201D00AF076B98D
:100C2400704700BF6C270020034637B54FF40062BD
:100C3400084693F8B84013490192620051F82250D3
:100C4400A8420ED1582101FB043201FB0434526A3C
:100C5400283401A90AF01EFF08B9019B236003B0E0
:100C640030BD013251F82220904208D1582101FBB5
:100C7400043201FB0433126D03F15404E9E701204B
:100C8400EDE700BFACEE000070B590F8B850104E20
:100C94006D0056F825100446FFF7C6FF98B90135D4
:100CA40056F825102046FFF7BFFF054668B95822BD
:100CB40094F8B83002FB0343186A0AF0BBFEC4F888
:100CC400B400284670BD0125FBE70925F9E700BFFC
:100CD400ACEE00002DE9F04F4FF02C0858250446E7
:100CE40008FB01F890F8B89089B005FB0983034428
:100CF4001F6A0E4638460AF0A4FE94F8B83015FB75
:100D0400038525446B1E033513F8012F824243D11A
:100D14009D42F9D1474B1D68FFF774FF284609B07F
:100D2400BDE8F08F444B1D68444B1B68AB4206D0B2
:100D3400002EEFD0012138460AF060F9EAE7582284
:100D440094F8B8305343E218D16C8F42E4D1D2F80E
:100D54002080002207922C2202FB063323441989A7
:100D64000423384607AA19440AF015FE0028D1D1F5
:100D740094F8B830012B0BD0002BCDD1D8E9012346
:100D840013440799914201D39942C5D93146D2E718
:100D94004FF082732A4AF4E74FF0580A2C220AFBD8
:100DA40009F302FB0633E1180869C206B2D4E2581B
:100DB400244B9A42B6D1CA680B899B18B2D24A898D
:100DC400D218AFD2BB689A42ACD240F60C6310EA98
:100DD400030BA7D1FFF70EFF3146059094F8B80036
:100DE40006F0ECFA05460598FFF714FF164A126858
:100DF400954299D109FB0A8AA244FFF7FBFE80467B
:100E0400FFF7F8FE4FF4807381463A46514600934B
:100E140020460E4BCDE902BBCDF804B0FFF738FCF9
:100E240005464846FFF7F6FEFFF7ECFE4046FFF79F
:100E3400F1FE79E7B4200020B8200020BC20002077
:100E4400008800013DB8F396B0200020CE5E01205A
:100E54002DE9F84F884691469A460026DFF88CB073
:100E6400234D244C0B9B9E4201D300200FE00B9B8F
:100E740040469F1BB7F5806F28BF4FF480671B4A1D
:100E84003B4606EB0A010AF086FD10B10120BDE8DD
:100E9400F88F0A993B465A46484671180AF090FD65
:100EA4000028F3D1144BC5F800463E44C5F8044667
:100EB400C5F80846C5F80C46C5F81046C5F81446EA
:100EC400C5F81846C5F81C46C3F80046C3F80446DE
:100ED400C3F80846C3F80C46C3F81046C3F81446D2
:100EE400C3F81846C3F81C46BCE700BF70270020AF
:100EF400008001503546526E009001502DE9F04FAC
:100F0400002504460E46A8465827DFF8389295B0C7
:100F1400012D84F8B8501DD900258B4F17F8011BFB
:100F240001290CD12846FFF701FB0EA9C0B201F03C
:100F34004DF8014618B90E9882680AF056FD002D46
:100F440000F0F380B8F1000F00F0638100232C2738
:100F54005825F2E0631993F8B91000295CD107FB16
:100F6400054209EB8533536203F5004328461365B4
:100F7400FFF7DCFA94F8B810C0B207FB0141203146
:100F840001F024F808B109F0C1FF01212846FFF758
:100F9400CDFA94F8B810C0B207FB01414C3101F00E
:100FA40015F808B109F0B2FF2046FFF76DFE58BBF3
:100FB4000021204609F0DBFFF8B920460AF067F863
:100FC400002808DD012194F8B820604B03F83210A2
:100FD40003EBC203586020460AF015F868B10AA86A
:100FE40009F0EEFF09F0F5FF054658BB94F8B83058
:100FF400BBB90021204609F0BAFF012294F8B830A9
:10100400234483F8B02007E0012294F8B8309042DA
:10101400234483F8B020CBD194F8B8500135EDB215
:1010240076E794F8B020042A04BF012284F8B020A3
:10103400012BDED094F8B130042BDAD1012384F8EB
:10104400B130D6E79DF82F30012B55D1582294F8B2
:10105400B83002FB03430022D96A0E923C4AD86C92
:1010640091422BD1998E04230EAA19440AF093FCC1
:10107400F8B14FF0050B94F8B820224482F8B0B0D0
:1010840094F8B8306BB1E21892F8B020012AC3D0BA
:10109400042A0CD094F8B020042A02D1012284F846
:1010A400B020234493F8B030023B022BB4D8A846B6
:1010B400B2E7022194F8B830234AD15494F8B80026
:1010C40006F02CFA821E022A8346D4D8FFF792FD3A
:1010D400012102902046FFF7FDFD82460298FFF7AA
:1010E40099FD1C4A12689245C5D01B4B1B689A4552
:1010F400BFD14FF0010BBEE7FFF77CFD0121834612
:101104002046FFF7E7FD82465846FFF783FD114B63
:101114001B689A4518BF052294F8B83008BF9DF89B
:101124002F20234483F8B020AAE70125F6E6E2182D
:1011340092F8B91091B10133DBB2012B84F8B830C5
:10114400F5D966E0702B0020CE5F0120702B0120C2
:101154003DB8F396BC200020B420002092F8B010D3
:101164000EA801F0FB01013918BF0121794305FBE9
:10117400031203FB051101232244D2F820802144E9
:1011840000934246402309F0B9FD00287AD1002398
:101194000DF1160206A90EA809F0FEFD002838DBA1
:1011A4006DD1BDF816300C2B6ED14046069907AAB6
:1011B4000AF0F1FB68BB9DF81C30012B29D8E2181A
:1011C40092F8B0206B43023A022A8CBF002201221B
:1011D40007FB02332344197D9DF820209142D6D881
:1011E4000AD3597D9DF821209142D0D804D3DA8ABC
:1011F400BDF822309A42CAD294F8B830234493F806
:10120400B020012A39D0023A012A02D8012283F8F7
:10121400B02000274FF05809012F84F8B87038D94E
:101224000023DFF874829D4D9D4F0E93012B84F8AB
:10123400B83040F2E6800E9B022B01D009F066FE26
:1012440094F8B930002B40F01E81582584F8B8304A
:1012540005FB0343186A09F034FD307194F8B83083
:1012640005FB03431B6A5B68B36094F8B83003FB67
:1012740005453560894B1D68DFE00422C7E794F813
:10128400B83058E70328C4D140F20113A4F8B030B1
:10129400BFE7E21992F8B950002D40F0AA800AA8DD
:1012A40009F08EFE92F8B030042B8DF82F3008D858
:1012B400012B08D800F094804FF0FF3382F8B0304F
:1012C4008EE0052BF6E709FB0743194638462C3117
:1012D400DA6C0BF0CAFA0128014640F08180A84676
:1012E4004FF0580B20460EAA0E9509F0C2FD94F853
:1012F400B83009FB03431F6AD3F84CA09B6A0293DE
:10130400029B434518D094F8B83029460BFB03439D
:101314005B6A384603EBC8035A6800230392FFF75D
:10132400FBFB039A0E9B15449D4267D3D4F8B4503B
:10133400B3FBF5F305FB0355D4F8B40009F086FDBF
:10134400582394F8B82003FB0242536A926A19683E
:10135400013A03EBC2030022D3F804E09C46724432
:101364009042A3F10803F7D8DCF800000023411AE7
:101374003846FFF7D1FB00233A46514620460195F3
:101384000093FFF765FD58BB384606F051F838BBAB
:10139400582794F8B8002A4607FB0043196A0BF053
:1013A40072FA0546E0B994F8B830014607FB0343E6
:1013B4001A6D03465268504609F018FE94F8B83086
:1013C40007FB0343D3E91423013B52F833001168AC
:1013D40002EBC307411A2B4650467A6809F006FE11
:1013E40094F8B830234493F8B030FF2B01D109F0BE
:1013F4008DFD94F8B8700137FFB20DE708F10108CC
:101404007EE7234493F8B9208DF81C209DF81C2016
:1014140002F0FF013AB10E9B01330E9394F8B830F9
:101424000133DBB202E793F8B030012B13D020462E
:1014340009F09DFD78B1D8F80050102200210AA8C7
:101444000AF0C6FD204609F074FDFFF7DBFB2846D1
:1014540015B0BDE8F08FFFF7CDFB00218246204692
:10146400FFF738FC81465046FFF7D4FB2B684B4509
:10147400E1D1D8F800209A42DDD03A689A42CAD124
:10148400D9E70123E1E694F8BA30002BF9D002231E
:1014940084F8B830EEE600BFB8200020BC2000205D
:1014A400B420002070B50B4E0446BC220021304607
:1014B4000AF08EFDFFF79EFB214605463046FFF7F6
:1014C4001DFD04462846FFF7A5FBFFF79BFB2046BE
:1014D40070BD00BF802B01202DE9F8432E4F3B78CF
:1014E40033BB3C7A24BB2D4DDFF8B480012C85F846
:1014F400B84015D8582606FB045208EB8433002163
:101504005362204603F500431365FFF70FF895F87F
:10151400B810C0B206FB0151203100F057FD50B1A4
:101524001E4809F006FDBC2200211C480AF050FDAB
:101534001948BDE8F88301212046FEF7F7FF95F826
:10154400B810C0B206FB01514C3100F03FFD002839
:10155400E6D195F8B860DFF84C907600284659F843
:101564002610FFF761FB88B9013659F826100B489D
:10157400FFF75AFB50B9094809F089FD0028C1BF9B
:10158400012307F8343007EBC404606095F8B840D1
:101594000134E4B2AAE700BF702B0120802B0120A4
:1015A400702B0020ACEE0000BFF36F8F72B60023E7
:1015B4004FF0FF30094A03F120010133102B42F8A8
:1015C4002100F8D100234FF0FF30044A03F16001F9
:1015D4000133102B42F82100F8D1704700E100E0FC
:1015E400002318460649D1F89020C2F307229342FB
:1015F40000DB7047C1F89830C1F8A0000133F6E76A
:1016040000ED00E04FF0FF3301212DE9F043002508
:101614003D4A3E4E51603E4FC2F84833DFF8F480F5
:10162400C2F8083302F58052516085B0C2F84833DD
:10163400C2F808334FF0FF3956F8044B44F307302F
:10164400C4F8089302F00AFF01236360002368468C
:10165400C4F84C31D4F84C21C4F81031D4F810211A
:10166400C4F84431D4F84421C4F80035D4F80C2526
:10167400DFF8A4C00092D4F814250192D4F8082508
:101684000292D4F81025C4F80C950392C4F814956A
:10169400C4F80895C4F8109550F8042B511C0FD0C9
:1016A40002F01F01520928D0012A28D1624602EB18
:1016B4008102D2F80012394041F00201C2F800124E
:1016C4000133042BE8D180220021A0180AF080FC09
:1016D4008022002104F5C0700AF07AFC5DB14FF05D
:1016E400FF330E4AC2F808354FF05022C2F80833CF
:1016F40005B0BDE8F08301259CE74246D7E7002307
:10170400803153F82130FFDE00400150C0EE00006C
:10171400F0F0FCFF00258450002884500070015034
:101724004FF4EC22002101480AF052BC00A0002032
:101734002DE9F04F82464FF000098DB01D46531E2F
:1017440001910393039B58785C1C252819D1002030
:101754004FF0FF381E464446034602360290317865
:101764000396392955D81F2914D8002900F0EF8190
:1017740001992520D04701993078D04709F1020911
:10178400E0E7002800F0E3810199D04709F101095D
:101794000394D7E7A1F12002192AE9D801A757F841
:1017A40022F000BF11180000751700007517000023
:1017B400111800007517000091180000751700003B
:1017C400751700007517000075170000DD1800007C
:1017D4001118000075170000F11800009D18000092
:1017E40075170000AB180000CB180000CB180000E0
:1017F400CB180000CB180000CB180000CB18000059
:10180400CB180000CB180000CB18000008460136A6
:10181400A5E7582900F0EB80A1F16302D7B2172F96
:10182400A6D8172AA4D801A757F822F0991A0000BD
:1018340017190000751700007517000075170000D0
:10184400F71800001719000075170000751700003D
:10185400F7180000751700007517000075170000D1
:10186400CD19000075170000751700006D1A0000EF
:101874007517000017190000751700007517000090
:10188400CD19000075170000F718000025200199F4
:10189400D04709F1010955E7029A4FF0000802F018
:1018A400FE020292B3E7002C0DDAB8F1000F0DDA54
:1018B400029A002A00F043810A2224EAE47402FB1B
:1018C4000414303CA3E7B8F1000FF5DB0A2202FB55
:1018D4000812A2F130089AE7B8F1000F55F8042B6A
:1018E40080F22F81002A80F22E8154420222029239
:1018F4008DE7682903D1682B06D1482387E76C2933
:1019040002D16C2B00F02181002B7FF431AF0B4608
:101914007DE77A2B06D1752955F8046B14D14FF065
:10192400000B0CE06C2BF6D04C2BF4D1073525F0D2
:101934000703752903F10805D3E9006B06D12028B4
:101944003BD1854F013C09E04FEAE67BBBF1000F38
:10195400F5DA7642814F6BEB4B0B013C0DF12D0315
:10196400059300230493304659460A220023FEF7C8
:10197400EFFB059BB446303203F8012D5A4605931C
:10198400049BBCF10A0F8B4672F1000203F1FF3194
:1019940006460491E7D2C3F1010B30330DEB030685
:1019A400B8F1000FA6F104066DDA029BD9077DD4C5
:1019B400A8EB0B03A4EB0B0413E02B280ABF684F1E
:1019C400684F04F1FF34C9E770290FD155F8042B8F
:1019D4000023FAB96FF004034FF0050B614F624E18
:1019E400053C029A920770D4A04666E078216C2BDD
:1019F40003D1002355F8042B08E04C2BF9D107350B
:101A040025F007031D465B6855F8082B232825D1CC
:101A1400880621D5554F023C002601F06001A1F152
:101A2400390B0DF12D0E02F00F01092988BF59441D
:101A340030310EF8011D102A4FEA121141EA0371E8
:101A44004FEA131C73F1000306F1FF3008D2C6F10C
:101A5400010B06F13003A1E7454FDCE7414FDBE71B
:101A640006460A466346DEE755F8046B30460AF03C
:101A740076FAB8F1000F834602DB4045A8BFC3469F
:101A84004FF00008374FA8EB0B03002B92DDA4EBBB
:101A94000804A6E755F8043B4FF0010B8DF8183005
:101AA400304F4FF0FF33013C06AE9AE7A046EAE719
:101AB400029320200199D047029BB8F10108F7D581
:101AC40024EAE472013C9144A41AB84606E0049363
:101AD40002920199D047029A049B9046424612F81A
:101AE400010B0028F3D11A46013A15D5002BACBFDF
:101AF400C7EB03077F425B46013B15D5BBF1000FE3
:101B0400A8BF5F4426464F44013E14D5002CA8BF0D
:101B14003F1907EB080915E6049302923020019956
:101B2400D047049B029ADFE70293019916F8010B50
:101B3400D047029BE0E701992020D047E4E7012247
:101B4400D5E6904663E6144661E64C235FE64846D4
:101B54000DB0BDE8F08F00BF6CF400006AF4000023
:101B64006EF40000BDF5000076F4000070F400008F
:101B740073F400002DE9F043079D15B915600020AA
:101B840012E00324B5FBF4F404EB4407BD4218BF90
:101B94000134B4F1804F09D2A40001348C4200D83E
:101BA40038B96FF00B001460BDE8F0834FF0FF34D8
:101BB400F7E704460021DFF8B4E0B94203F1030C6F
:101BC40004F104062BD3A942274623D201F1010CC8
:101BD400AC451F7828BF002324494FEAA70E38BF1D
:101BE4005B7811F80EE0AC4584F800E001EB131EBD
:101BF4002EBF3D239B0003F03C034FEA071738BF79
:101C0400CB5C07F030071EF80770A3703D236770A4
:101C14003746E3700023381A10603B70AFE71CF8B6
:101C2400034C1CF8023C4FEAA4091EF80990240155
:101C34001CF8018C04F0300406F8049C0EEB131914
:101C440019F804409B0006F8034C03F03C030EEB28
:101C54009814E35C08F03F0806F8023C1EF80830CC
:101C6400344606F8013C03316346A6E7FCF4000061
:101C74002DE9F04300273C463D46DDF81CE0DFF843
:101C8400288175451FD3E4BB00201460BDE8F083B0
:101C94000136764533D013F806C0BCF1200FF7D0D7
:101CA400AEEB0609B9F1010FA6EB05050DD0BCF1A9
:101CB4000D0F0AD103EB060999F80190B9F10A0F47
:101CC4006ED1751CDDE72E46E3E7BCF10A0FF8D0B0
:101CD4002DB9BCF13D0F05D10137022F0DD96FF09D
:101CE4001500D3E71CF0800FF9D118F80C507F2DA4
:101CF400F5D03F2D01D8002FF1D10134E1E735466D
:101D0400C1E74FF0060C04F00706E4080CFB06F6E6
:101D14000CFB04F40736E41B04EBD60470B18C42CC
:101D24000CD80027014603263C46DFF87CE0DFF8A8
:101D34007C801D449D4205D10C1AA5E76FF00B0071
:101D44001460A3E713F8019BA9F10A0C5FFA8CFC59
:101D5400BCF1160F04D848FA0CFC1CF0010FE9D0B2
:101D64001EF809C00134BCF1400F08BF013E0CF05D
:101D74003F0C042C4CEA8717DCD17EB13C0C012EBD
:101D84000C7002D101310024D4E7022E4FEA17244B
:101D94004C7016BF8F7002310331F4E73446C9E743
:101DA400002DA2D09BE700BF7CF40000F6FFBFFF2C
:101DB4002DE9F047058B04462807904611D40229E3
:101DC40005F0070540F0CC80204609F02EFC78B1E0
:101DD4000138218B042811D8DFE800F0C2106D858A
:101DE400950001290CBF45F0100545F02005258319
:101DF40088F31188BFF36F8FBDE8F08701F0070AFD
:101E0400AA4500F0A5800027B9463E46A368002BEA
:101E140000F0BC8041F00801218388F31188BFF3EE
:101E24006F8FA168002900F0BA800D68002900F0C6
:101E3400B680334652462046D1F80480C047002D70
:101E440076D02B6829461D46F0E701F007035A1F98
:101E5400012A1BD8002221F00701062B276889B22A
:101E6400C4E9002209D13B4603E0628B013262835C
:101E74001B68002BF9D141F002012046218309F0AF
:101E8400D4FB00287AD041F0200176E0042B0AD15B
:101E940021F0070189B22046218309F0C6FB10B165
:101EA40041F020012183218B01F0070AAA454FD07C
:101EB4000027B946AAE7236921F0070141F006018A
:101EC400062DD3F8009021832DD1B9F1000F3FD016
:101ED40041F00801218388F31188BFF36F8F2046F6
:101EE4003949C84729E021F00701236941F0040179
:101EF40089B2042DD3F804902183E6D000274FF053
:101F0400040A3E4682E721F00701236941F00501F6
:101F140089B2052DD3F808902183D6D000274FF03D
:101F2400050A3E4672E700274FF0060A3E466DE773
:101F34002B4687E7B9F1000FD1D1EFF311882023A5
:101F440083F31288BFF36F8F238B23F0080323835B
:101F5400258BEA062ED525F01003238305F007050B
:101F64006669218B002EBFF670AF00232768C4E991
:101F7400003321F0070141F001012183218B4FF04F
:101F8400000901F0070AAA457FF440AF002F9CD056
:101F940041F00801218388F31188BFF36F8F002F6C
:101FA400C8D03D68394633465246204609F069FB9D
:101FB4002F46F4E7AB067FF51BAF25F02003238300
:101FC40005F0070500E700BFB3B6000070B5104B7D
:101FD4000D461C68B4B10F4B196800238B4202DB19
:101FE4006FF0010070BD224612F8106B864202D0D9
:101FF40014460133F2E7E0680CF073F928B10020CD
:102004002C60EFE76FF00C00ECE76FF01200E9E7EB
:1020140000210020C8EE000010B5436888B0029388
:1020240083680C46CDE9033200230A68C068CDE911
:102034000623054901AA05930AF028F9079808B967
:10204400059B236008B010BD55BA0000F0B40D4BD9
:102054000D4E5F6A0D4BB34203D36FF08500F0BCA5
:1020640070475C68BC420AD31D6945B194F802C04C
:102074008488E4B2A44502D12B46F0BC184724332B
:10208400E9E700BF3C2C012010240020EC230020B1
:102094002DE9F04705460E461746134CDFF84C80F1
:1020A400DFF84C90444503D36FF08500BDE8F0871A
:1020B4006268D9F824309A4213D3A3698BB1A988F2
:1020C4009078C9B2884205D13A4631462846BDE8DF
:1020D400F04718475279012A03D13A463146284637
:1020E40098472434DEE700BFEC23002010240020AE
:1020F4003C2C01202DE9F04105460E4617460A4CBA
:10210400DFF82880444502D36FF0850009E0636955
:102114000BB92434F6E73A46314628469847002856
:10212400F7D1BDE8F08100BFEC230020102400208B
:1021340010B5044609F0A2FF10F1780F00D050B991
:10214400204609F0C0FC044AD2F8C43023EA000354
:102154000020C2F8C43010BD3C2C0120082200210C
:10216400014809F035BF00BFF72C012070B50B4BB7
:102174000B4CA34201D3002070BD0022196A1E7FBC
:102184000439D5B2AE4201D82433F2E7013211F852
:1021940032508542F5D10120EEE700BFEC23002048
:1021A4001024002073B584880D46E4B263068DF8CC
:1021B400074007D02046FFF7D9FF78B10D4B93F8BD
:1021C400BA0058B120460B4E55B102F039FFF369FD
:1021D4001BB108200DF107019847012002B070BD22
:1021E40002F056FFF369002BF7D009200DF1070127
:1021F400F2E700BF3C2C012008B509480378C3F37B
:1022040041130A3350F823303BB100F1080200F1C6
:1022140010019847C043C00F08BD1846FCE700BF33
:102224003C2C012004282DE9F14F04460F46DFF829
:10223400949016D001282DD1DFF88C8098F8B9300D
:1022440043B300F0E7FD214D4D4520D24FF0000A85
:10225400D5F820B02B7F5FFA8AF6B34204D8243530
:10226400F2E7FFF77BFFE7E70BEBC606307909F0EF
:1022740005FF0246307909F026FCD8F8C430002A5C
:1022840023EA0003C8F8C4300AF1010AE2DA0023A1
:1022940088F8B9300D4D4D4508D30B4B1B6A6BB113
:1022A4003946204601B0BDE8F04F1847EB681BB132
:1022B4003A462146284698472435ECE701B0BDE864
:1022C400F08F00BF102400203C2C0120EC230020C0
:1022D40073B586781E4C8DF800600379427943EA21
:1022E4000223ADF80230C378304603F003038DF8BF
:1022F400043009F0E8FBD4F8C430054618420BD08A
:10230400304600F069FD3046FFF712FF0CF092F9F9
:1023140010B9962008F002F8684602F06DFE10F13C
:10232400780F03D010B1002002B070BD9DF80000FA
:1023340002F0EAFE10F1780F01D00028F3D1012059
:10234400D4F8C43084F8B9002B43C4F8C430EBE7A4
:102354003C2C01202DE9F047A44D0446AB690E4600
:102364001746C3B9207800F01F00012877D002284F
:1023740000F0DE8000BB94F900103A68002963780D
:102384002EDA062B0CD0082B25D0ABB953700123C1
:102394001370022306E198470028E3D100200DE0E2
:1023A4006388190A0A1F012A8C4605D9072903D80C
:1023B400DAB26B6A1C781CB96FF01500BDE8F087BF
:1023C4005D78654503D1824200F0E7800130234403
:1023D400F0E71B78E6E095F8BA3013700123E1E0EA
:1023E400052B11D0092BE7D163886E6A002B33D1FA
:1023F400FFF7B4FE638885F8BA30EB69002BCDD0C3
:1024040003207B499847C9E76088C0B202F0E2FD27
:102414000028C3D0D0E77378042B10D0052B11D03B
:10242400022B04D177796388BB4208BF012033783B
:102434001E443378002BEED10028BDD0D8E796F89F
:102444000380F4E76388BB42F1D1B8F1000FEED109
:102454003046FFF73DFFEAE7FF27B846E9E795F87E
:10246400BA30D7F800C0002BA6D06F6AA2883B46CA
:102474005FFA82FE187800289ED05978022904D188
:1024840093F80480F04500F28F800344F2E78CF85F
:1024940000308CF80130316080E71F4490E00B2B52
:1024A4008AD100264FF0FF08B246C14606E07B7889
:1024B400042B0FD0052B21D03B781F443B78002BF5
:1024C400F5D1EB6913B1514607209847002E7FF4EC
:1024D40065AF71E797F80280A38897F80390984551
:1024E400EAD163889945E7D1B8F1070F1DD805EB08
:1024F4000803BA46012683F8BB90DDE7A388434569
:10250400DAD16388DBB24B450AD0BE78304600F09E
:1025140063FC3046FFF70CFEB0FA80F67609CBE791
:102524003846FFF7D5FE0646C6E7BA460026C3E797
:1025340094F900206378002A19DA002B7FF43CAF69
:10254400A3883F68DCB25B060AD02046FFF70EFE84
:1025540000283FF431AF95F8BA30002B3FF42CAF8C
:102564003946204602F0B4FD00237B7011E7012BAD
:1025740008D0032B7FF420AF6388002B7FF41CAFBB
:10258400012103E0618800297FF416AF2046FFF79C
:1025940009FE00287FF402AF0EE702293B607FF4B6
:1025A40018AF5B883360F9E694F90000637800287B
:1025B400BFF675AF002B3FF46AAF0A2B7FF4FCAE75
:1025C4003B78002B3FF4F8AE797804297FF465AFAB
:1025D400B9788A427FF461AF072A8EBF002352196B
:1025E40092F8BB308CF80030F8E600BF3C2C012098
:1025F400F62C012070B5164D95F8B830FBB102F0F9
:10260400C9FC002822DB00F005FC0024D5F8C43006
:10261400E6B2E340DA0714D4D5F8C43004F110026A
:10262400D340DB0705D546F08000FFF781FD002885
:102634000CDB0134102CE9D1002385F8B8300020DC
:1026440004E03046FFF774FD0028E5DA70BD00BFF2
:102654003C2C012013B5164C237DF3B9E26801AB81
:102664008020A168019209F03DFA019AA3681344FD
:10267400A360E3689B1AE3606BB962B12369E288E3
:102684009A4208DD94F8C82093FBF2F102FB11335F
:102694000BB90123237502B010BD002380201A4614
:1026A4001946237502B0BDE8104002F057BD00BFC3
:1026B4003C2C0120002330B585B002460D46019321
:1026C400002858D1002935D108220B460DEB020110
:1026D40009F0EDFC002804DA802002F0B1FC05B01A
:1026E40030BD2A4C029AC4E903552260039ABDF80E
:1026F4000E30626004F13802A2609DF9082025754D
:10270400002A0ADB802B04D9802002F099FC0020E7
:10271400E3E713B1C4E90333E1E7FFF76DFD0028F4
:10272400DAD0E28823699A42D4BFE260E360FFF71B
:1027340091FFD4E7154C01ABD4E90215002D04DC5C
:1027440009F0B5FC0028CADAC6E72A4609F0AFFC4E
:102754000028D9DB019AA3681344A360E3689B1A99
:10276400E360002BBBD104F13803A360FFF744FD01
:102774000028DCD1B0E78028B1D1044BDA68002A04
:10278400D5D11B7D002BD2D1A9E700BF3C2C012061
:10279400054B064A58629A62054A0020DA62054AE5
:1027A4001A63054A9A6170473C2C012059230000A2
:1027B40051200000F9200000952000002DE9F3418C
:1027C4000446474D4FF0FF334FF0FF32454807F0C2
:1027D40089F895F8B830002B7BD16B6A83B14248F5
:1027E4002C62E8616E6A02F0D3FD02F0A1FB041EC4
:1027F40010DA3C4807F0EEF8204602B0BDE8F0815C
:1028040000F0BEF8FFF7C4FF6B6A002BE7D14FF06E
:10281400FF34EEE700F020FB041EEADB7378012BA3
:102824005AD1F379002B57D00026684685F8C83072
:10283400ADF802308DF804608DF8006002F0DCFB26
:10284400041ED6DB802768468DF8007002F0D4FBA6
:10285400041ECEDB3046254902F086FD041EC8DB8B
:102864003846224902F080FD041EC2DB204CDFF80A
:10287400848044451AD3002002F046FC041EB8DBD1
:10288400D5F8C430802043F00103C5F8C43002F009
:102894003BFC041EADDBD5F8C430002443F4803384
:1028A400C5F8C430012385F8B830A2E70026276AAA
:1028B400227FF3B29A4201D82434DAE707EBC30249
:1028C40057F83310107902F04FFD01360028EFD08D
:1028D4009DE76FF077048CE76FF0150489E700BF7C
:1028E4003C2C0120D422002029220000B92600001B
:1028F400EC2300201024002030B51F4B8BB005AA18
:1029040003F11005144618685968083303C4AB4230
:102914002246F7D11B7810222370002101A809F068
:1029240057FB12220021154809F052FB102101A87F
:1029340009F0D8FD00281BDD0828B8BF082001AB2A
:1029440009381A1800200D4912F8013F0AAC04EBAB
:10295400131403F00F0328336B4414F8144C13F8C6
:10296400143C013008280C704B7001F10201EBD1CA
:1029740002480BB030BD00BF3CF50000D15F012020
:102984002DE9F04F744B87B093F800B0BBF1000F02
:1029940003D0724807B0BDE8F08F704C00264FF0AA
:1029A400011AB0463546B14623783BB96C4B023424
:1029B4009C42F3D10123684A1370EAE76378052B3C
:1029C4001BD8DFE803F08C03C68C1D39402304A810
:1029D4008DF810B0ADF812308DF814B009F039FB51
:1029E40040B1082304A8ADF8123009F032FB08B155
:1029F400ADF812B0BDF81230E37123781C44D3E76C
:102A0400E378002BF9D1A37863B108F101085FFAE8
:102A140088F8F2E76A68944207D024359D42F9D3D6
:102A24000020B7E74F4D504BF8E7AB68002BECD0D4
:102A3400414620469847E8E7002DF1D000222B7F3D
:102A44009A42EDD2296AA07801EBC2010B7998422F
:102A540001D00132F3E70127E078FBB200F0030074
:102A64008DF81400207994F805C040EA0C20ADF8E4
:102A7400120094F90200002826DA4FF0010C07F145
:102A840010000CFA00F010EA0A0F24D143F0800081
:102A94008DF8100004A8CDE90213019209F0D9FAC7
:102AA400DDE90121039BB0B99DF8102012F0800FDD
:102AB400A2700A714FF001021DBF1033DBB29A40BD
:102AC400BA404AEA020A98E70120B84010EA0A0F1D
:102AD40001D11846DCE70137102FBDD1B9E7032E29
:102AE4001FD1FFF709FF074678B109F038FA0190C2
:102AF40058B11E4809F033FA019B02469842A8BF18
:102B04001A463946A01C09F058FA6FF002012378DE
:102B1400091BE21804EB5303D14213D50136F6B274
:102B24006BE7002EF1D1B9F1000F3FF479AFA4EBBC
:102B3400090389F80230C3F3072389F8033089F8BD
:102B44000480EBE702F801BC13F8010902F8020D56
:102B5400E2E7A14651E700BFD05F0120082300202F
:102B6400E9230020EC230020102400203CF5000081
:102B7400094B00211A4610B51C78844204D15C68C4
:102B840014B102EB811010BD0131042903F140039B
:102B9400F2D10020F7E700BF082D01202DE9F34111
:102BA40050F8283C0446103310F82C6C0AD1036901
:102BB40050F8202C980736D5D2B9590715D50023DB
:102BC40044F8283C54F8283C10330BD054E90775DA
:102BD40054F8148C0BF02EFD00284FD021462E48BB
:102BE4000BF00CFD02B0BDE8F08143F00403236157
:102BF400304654F8241C01AB08F074FF10B16FF098
:102C04001503DDE7019A54F8243C134444F8243CAA
:102C140054F8203C9B1A44F8203C54F81C3C1344C0
:102C240044F81C3CCEE7304654F8241C01AB02F0B7
:102C340011FB0028E3D1019D54F8243C2B4444F8B3
:102C4400243C54F8203C5B1B44F8203C54F81C3CC6
:102C54002B4444F81C3C002DB1D0304602F09EFBBE
:102C6400B5FBF0F303FB1055002DA8D154F8203C1C
:102C7400002BA4D0304602F035FBA3E744F8180C2F
:102C8400A4F1100006F028FF002DABD042463946CF
:102C94003046A847A6E700BF102400204B1E012B96
:102CA40073B506460D460FD8FFF762FF044668B9B0
:102CB400012D09D101AB012230460DF1030102F0CF
:102CC400C9FA019B002BF5D102B070BD0BF0B2FC28
:102CD40004F12C0108B1012D05D1084602B0BDE86C
:102CE4007040FFF75BBF034802B0BDE870400BF0D3
:102CF40085BC00BF102400202DE9F74F0646154679
:102D04009846019108F034FF044600285BD1EFF3A4
:102D1400118A202383F31288BFF36F8FDFF8ACB0DE
:102D240000220023584606F00BFF70B9DFF8A0908C
:102D3400A70109EB8414636813F1100F14D10193F4
:102D4400584606F0C9FE019B06E00134042C0BF141
:102D5400400BE5D16FF00B038AF31188BFF36F8F3B
:102D6400184603B0BDE8F08F019B2061C4E9023529
:102D74000C9B304663610D9B09F80760A3616FF0FB
:102D84000F03C4F83C80636002F008FB58B130467E
:102D940002F004FBB5FBF0F303FB10551DB1E36B2C
:102DA40043F00403E36318F0020F07D007F12C018A
:102DB400084849440BF022FC0023CDE7304602F0DA
:102DC40091FA0346C8E76FF00F03C9E7242D0120E9
:102DD400082D01201024002010B5EFF311842023C6
:102DE40083F31288BFF36F8FFFF7C2FE50B14368BD
:102DF400103307D16FF08B0300F12C0143600448BA
:102E04000BF0FCFB84F31188BFF36F8F10BD00BF80
:102E140010240020F8B5042520270D4CEFF311866B
:102E240087F31288BFF36F8F6368103307D16FF095
:102E34008B030848636004F12C010BF0DFFB86F37D
:102E44001188BFF36F8F013D04F14004E6D1F8BD52
:102E5400082D01201024002070B50025094C0A4ECD
:102E6400314620460BF0AEFB0122A4F110001146BE
:102E740001350BF06BFB042D04F14004F0D100206C
:102E840070BD00BF342D0120A12B00000123016976
:102E940081F84B300B6833B191F849301BB10248CB
:102EA40008310BF0ABBB70471024002001230169EB
:102EB40081F84A300B6833B191F848301BB10248AD
:102EC40008310BF09BBB70471024002070B50569D6
:102ED400EFF31186202383F31288BFF36F8FD5F8A5
:102EE400900008F007FD044686F31188BFF36F8F46
:102EF40030B100220023034805F1180106F082FFD7
:102F0400204670BD10240020012370B582F848309B
:102F140013680D4614463BB192F84A3023B10E486B
:102F240002F108010BF06AFBD4F890305A89DB886F
:102F34009A4205D17DB904F1180140F6CD4204E06E
:102F440004F11801002DF8D00022BDE870400023E0
:102F5400014806F057BF70BD1024002070B50E461E
:102F640081880446C9B21348154608F0DEFDE8B16D
:102F740094F900206378002A11DB202B04D0222B43
:102F840009D06FF0850005E007222968103809F0A0
:102F940014F8002070BD638800F8093CF9E7212B80
:102FA400EFD10723103828603360F2E76FF0120086
:102FB400F0E700BF082E0120014608B5034808F0D9
:102FC400C1FD10B1012300F8073C08BD082E012003
:102FD400002103460C4AA0F84810106883F89C109E
:102FE400C3F8940090889279A3F8980083F89A2003
:102FF40083F89B104022A3F89E1083F8A01003F1DD
:103004004C0008F0E5BF00BF70EE0000002310B5CF
:103014000469C4F8A8300C4BC4F8A400596804F13E
:10302400A80269B9C3E9002204F1080007490BF0BA
:10303400C9FA04F1180006490BF0F0FA002010BD9B
:103044000A605A60F0E700BF082E01209FBB000011
:103054000D31000030B54FF400334268056942F287
:10306400A10085B0CDE90103002385F89D30106AE5
:10307400ADF80C100A22007901A908F033FD054CC3
:1030840095F89D3023B901200BF026F9013CF7D1C6
:1030940005B030BDA1860100002373B52025046965
:1030A4008DF8071084F84830EFF3118685F3128801
:1030B400BFF36F8F0122D4F890000DF1070108F0DF
:1030C40019FC86F31188BFF36F8F01280AD00BF027
:1030D400B1FA10B994F8A1306BB9094B1A780AB94E
:1030E40001221A702122002304F11801054806F078
:1030F40089FE02B070BD002121200BF050FBD3E704
:10310400E35F012010240020F0B5D0F88C30054690
:103114005B6885B01B6A1F7D384608F029FD0646AA
:1031240050BB95F886303BB3A86F0146C38831F88D
:103134000A2F9B1A9BB2B3F5806F28BF4FF48063AC
:1031440003AA08F088FB0446B0B18306A5F118036E
:1031540085F830600193094B08BF00F1FF34224623
:103164000399009338460223FFF7C6FDA86F224651
:1031740000F10A0108F0A5FB05B0F0BD0D2F000019
:1031840037B514460A1E054621DDD4F88C0004F137
:103194004C0108F0AFFB012384F8493023683BB1AC
:1031A40094F84B3023B1114804F108010BF026FACE
:1031B400D4F88C209388918912695B1A9BB2D31A34
:1031C4003F2B04D8012384F8A03003B030BD94F819
:1031D4009E30002BF9D0064B402200932846012351
:1031E400019404F14C01FFF787FDEEE71024002061
:1031F40085310000F7B50D4601461D4808F08AFCEC
:10320400044610B3064656F8A439691E5F680529BA
:103214001BD8DFE801F01C1A031C222610F8061C38
:1032240099B9012300F8063C3B6A3246187BFFF744
:10323400A7FF14F85C2C42B93B6A1146187D0D4B6C
:10324400019600930223FFF757FD03B0F0BD30460B
:1032540003B0BDE8F040FFF7BBBE012304F8053C12
:10326400F3E710F8053C002BEFD00023F6E700BF8E
:10327400082E01200D2F000037B50024084D4FF013
:10328400FF334FF4806228460649009406F07CFD23
:10329400054928460BF0D4F9204603B030BD00BFE1
:1032A400102400204069052060F50000014807F063
:1032B400BFBB00BFBCEF000038B5044618B90F4BC4
:1032C4000F485B6898476168B1F5683F10D0B1F565
:1032D400680F0DD00B4DA9420AD011F46861206823
:1032E40007D0014608480BF055F8002323606560B9
:1032F40038BD142208F06CFEF9E700BF80210020DD
:1033040069F500002C5F5CA91033012008B560B397
:103314004368B3F5683F0ED0B3F5680F18D0144A6C
:10332400934220D000684FF0FF324FF0FF3306F095
:10333400D9FA58B115E001220368D3E8EF1F002938
:1033440003D1C3E8E02F0028F7D10AD1002008BD3B
:103354000368084A1B7803F5807352F82330002B66
:10336400F4D00548F3E70548F1E76FF4E040EEE7F1
:103374002C5F5CA900000350E98FFFFFEA8FFFFF79
:1033840008B520B34368B3F5683F09D0B3F5680FB7
:1033940013D0114A93421DD0006806F01BFB14E0C1
:1033A40000220368D3E8EF1F012903D1C3E8E02F0B
:1033B4000028F7D109D0094808BD00210368084A4C
:1033C4001B7803F5807342F823100020F4E76FF4B0
:1033D400E040F1E70348EFE72C5F5CA9E98FFFFFCA
:1033E40000000350EA8FFFFF10B5044618B91D4BC7
:1033F4001D485B6898476368B3F5683F2FD0B3F501
:10340400680F2CD0194A934219D1236803BB4FF09B
:10341400FF324FF0FF332146154806F035FA08B95C
:1034240023681BB90F4B13485B689847142200218B
:10343400206808F0CDFD4FF46863636008E0B3F5DD
:10344400683F0DD83A2B03D040F6BA629342DED1DE
:1034540020680AF0E9FF636843F03A03636010BD33
:10346400054AF3E78021002069F500002C5F5CA980
:10347400103301208FF500003A00003A08B50649E0
:103484004023142205480AF077FFBDE808400449A8
:10349400044807F03FBB00BF102E01201033012069
:1034A400C4EF0000D8EF0000F7B5224E30688368FF
:1034B400DB6B03B1984730688368DB6A002B31D13A
:1034C4001D4C1E4D306883681B69002B2DD00122D2
:1034D4000DF107019847012827D1236843B92B68C8
:1034E4001BB369681A688B422A6008BF6A6023604C
:1034F400134A9DF8070011887F2904D823684F1CBC
:103504000B44178018720A28DCD100202368118824
:10351400186059600B494D684DB9C1E900331080FA
:103524002060CEE798470028CAD103B0F0BD2B60D5
:103534004B60F4E7843701202C3301203C33012015
:10354400CC4601203433012010B5044B04461868DE
:103554008368E1B25B689847204610BD8437012038
:10356400F8B5054616460846EFF31187202383F382
:103574001288BFF36F8F1B490B684BB11A4C6268FA
:103584009A4205D000221A60626862B9C4E9003325
:10359400164A136853B987F31188BFF36F8F18461F
:1035A4000B603360F8BD13606360F1E7D2F804C0C8
:1035B4001C686345146008BF546087F31188BFF327
:1035C4006F8F5C680B60A042D8BF00F1FF3403F139
:1035D40008012246284608F0F0FC0023601C2B5505
:1035E4000123DEE7303301203C3301203433012052
:1035F400002337B51C462349234AC1E90033C2E9F5
:103604000033224A4868146088B9C1E900220133B2
:10361400082B02F18802F5D11D4D1E4828600AF0DE
:1036240060FE38B94FF0FF34204603B030BD02606D
:103634004A60ECE70020FFF7C1F804460028F1D106
:103644002868836823B11B6C13B12246124998473A
:1036540028688368DB6A0BB1984748B12868836897
:103664001B69002BFAD001220DF107019847F4E7FA
:1036740000220A4B28681A8083681B6A002BD3D067
:103684009847D1E73C3301203433012044330120EF
:103694008437012048EA0000AD340000CC46012004
:1036A40041F204432DE9F043ADF54F7DADF8083008
:1036B40040F606130025ADF80C30DFF81091444BAA
:1036C400D9F800101B68434E4D70A3EB06080B7825
:1036D40028465A1C62F302030B7098FA98F34B8045
:1036E4008B8808225BBA8B8007F01FFD3146424667
:1036F400ADF8100007F019FD02271FFA88F440BA4C
:1037040004F10A035BBA0222ADF810000DF11201B4
:1037140006A8ADF8123008F050FC0822D9F80010C1
:103724000DF11A00ADF8127008F047FCBDF8120054
:1037340006AB083080B231464246ADF81200184458
:1037440008F03BFCBDF812303A461C44A0B22C46AB
:1037540006ABADF8120004A9184408F02EFCBDF81D
:10376400123040F2C9113B449BB2ADF812300093C1
:1037740005AA06AB5BA8FEF7FDF9059B164E174F8D
:10378400ADF81230BDF81230A34203DC0DF54F7DC5
:10379400BDE8F083336802215B68A4B903A89847A5
:1037A400BDF8125033682D1B7C2DA8BF7C255BAA65
:1037B400101929465B6898473368012138465B68CD
:1037C4002C449847DEE702A8E9E700BFE837012068
:1037D400A0370120E45F0120EC370120BCF5000094
:1037E4002DE9F04F4FF0FF34D5B00B460594069405
:1037F4000794012100240DF128080246C8E9004479
:1038040030A80091CDE901440421089409940AF0F8
:10381400A2FC4022214620A808F0DAFB8E4B0321AB
:103824001C93052304221D938C4B06AFCDE91E3750
:103834008B4B8C4821938C4B05ADCDE923388B4BB6
:1038440007AE26938A4BCDE92B01CDE92836CDE985
:103854002D35279109AB1CA930A8229208F0D8FA7B
:1038640020B303240A2183480AF022FD824902225C
:1038740080480AF010FD21467E480AF0F5FC4CB958
:10388400784903227B480AF006FD7C4B7948196885
:103894000AF0F4FC0A2177480AF012FDFFF700FF52
:1038A400089808F077F855B0BDE8F08F2B68D8E990
:1038B40000985A1CD5D0B9F1000FD2D0DFF8C0A1BE
:1038C40033B93A68B2F1FF3F18BF1346CAF8003063
:1038D400DAF80000FCF73CFE08A9C0B2FEF776FB5C
:1038E40004460028BDD12B68644D002B48D1089FA5
:1038F40028603846D7F808B007F0ADFA614A0146A7
:10390400384607F0E0F908B10124ABE733685B45BA
:10391400A7D85D4A14605D4A13602A685A4E42442F
:1039240031680898013A08F053FA0028306098DBAF
:10393400089808F07FF8B8FBF0F303FB1086DFF873
:103944004CB12B68A8EB06079844DBF800300898C4
:10395400984538BF002608F06DF8012806D9089864
:1039640008F068F8013819EA000F51D13B464A467D
:103974002968089808F024F800287FF472AF2DE035
:103984002A6893427FF46EAF404A434412689342DC
:10399400C3D966E7B845089828BFB84608F051F877
:1039A400402201460CA808F013FB424649460CA8E5
:1039B40008F003FB4346296808980CAA08F000F8AD
:1039C40008B104464EE72B68C14443442B60A7EB7F
:1039D4000807089808F02EF8B842DBD9DEB92B683E
:1039E400DBF8002033443B4493422B607FF43AAF2E
:1039F400244B08981A68114608F0EAF9002883DB7A
:103A0400DBF800200899DAF8000008F042FFD8E754
:103A14004FF04008DDE7089808F013F80822014643
:103A24000CA808F0D5FA324609EB07010CA808F0F7
:103A3400C4FADDF820802968404607EB010907F045
:103A4400F9FF494603460CAA404607F0B9FF00288F
:103A54007FF407AFC3E700BFBEF50000BFDF00007F
:103A6400C4F50000CDF50000C9DF0000C9F5000071
:103A7400C5DF0000A037012051F300009837012072
:103A84009C370120903701208C3701208837012092
:103A940038B505460A4C0A2120460AF009FC0222E0
:103AA400204608490AF0F7FB294620460AF0DCFBC9
:103AB40020460A210AF004FCBDE83840FFF7F0BDB7
:103AC400A037012051F30000F0B50C68164F85B003
:103AD40002380D46C4F580610090144B381903AACE
:103AE4000131FEF7C5F80446D0B92B68039A134494
:103AF400022B2B6011D93E88023B76BAB6B29E42A5
:103B04000BD13246B91C07F010FB30B9022E04D990
:103B14002B689A1E2A60FC540124204605B0F0BD8F
:103B24004FF0FF34F9E700BF2D610120306501201B
:103B3400002307B502210093044A4FF4A4730448F8
:103B44000AF0C0FB03B05DF804FB00BFE45F012092
:103B5400A03701202DE9F04F072904469FB040F219
:103B6400CA81037813F0050F40F0C5814388A1F1A1
:103B740008055BBA9BB2AB42C0F0BD81B04B00F10B
:103B84000807186083885BBA8380FFF7D1FFA68893
:103B9400012E40F0B381E379012B00F0C080062BA5
:103BA40000F0C480002B40F0AF81247814F00704A7
:103BB40040F0B1803146A3480AF07AFB0622A249BC
:103BC400A0480AF068FB05219E480AF06DFBDFF867
:103BD4007C82DFF87C9200269E4F00E0012631466D
:103BE4002046D8F80050FCF7A1FC05A9C0B2FEF7A6
:103BF400EDF98246002836D13146204606AA08F05F
:103C040005FE012805D120235146059806AA07F090
:103C1400C2FE069B4B4520D1FCF7ECFF31468246A1
:103C2400204603F0CBFB05465046FCF7F3FF8A4BD6
:103C34001B689D4211D1FCF7DDFF40238246002022
:103C4400059A009306A90EABCDE902000190FCF79A
:103C54001FFD05465046FCF7DDFF3B680598AB4267
:103C640007D007F097FE002EB8D0002C44D134467C
:103C7400B1E707F08FFE142172480AF019FB052200
:103C8400764970480AF007FB21466E480AF0F6FAB6
:103C9400042273496B480AF0FEFA314669480AF077
:103CA400EDFA07226F4967480AF0F5FABDF82E309D
:103CB400402101939DF82D306B4A00930EA89DF886
:103CC4002C3000F07FFC0C9B4BB1421E3E2A06D8E0
:103CD4000EADC0F14001654A284400F073FC0EA803
:103CE40008F03DF90EA9024656480AF0D4FA142108
:103CF40054480AF0E5FAB6E7052152480AF0DCFA1E
:103D0400012150480AF0DCFAFFF7CAFC1FB0BDE8F5
:103D1400F04FFFF70DBF0820FFF7BAFEF6E729467C
:103D240038461FB0BDE8F04FFFF75ABD23785B0754
:103D340002D00820FFF7ACFEFDF7CEFB01210746B9
:103D440040480AF0B5FA06223F493E480AF0A3FA71
:103D540002213C480AF0A8FA0025DFF81491042156
:103D640038480AF0A5FA002847D005223B493548CF
:103D74000AF091FA002840D0294632480AF07EFA27
:103D840000283AD005223B492E480AF084FAA0B311
:103D940002212C480AF088FA78B30026294CDFF86F
:103DA400C0A0DFF8D4B022E00422514620460AF035
:103DB40072FA10B3314620460AF060FAE8B131468F
:103DC4002846FCF7B3FB0EA9C0B2FEF7FFF8804605
:103DD400C8B10222494620460AF05DFA68B141465C
:103DE40020460AF041FA40B1002E63D10126032196
:103DF40020460AF05DFA0028D6D1FFF799FE02208A
:103E0400FFF746FE75E00422594620460AF043FABD
:103E140090B10E9B204699680AF030FA60B10F22E7
:103E2400204616490AF037FA30B106EB4501204620
:103E340001310AF023FA18BB0E9807F0ABFDDCE75A
:103E4400E8370120A0370120D1F50000B820002078
:103E54003DB8F396BC200020B0200020BEF5000041
:103E6400D8F50000DDF50000E5F50000F1F50000EF
:103E740051F30000F5F5000015F60000FBF5000015
:103E84000E9807F087FD032120460AF019FA00284E
:103E9400B3D0002EAAD002212F480AF00DFA002830
:103EA400ABD017F8353043B904212B480AF008FA8F
:103EB4000028A2D08DB9012551E70E2227492648B2
:103EC4000AF0E9F9002898D03B1D53F83510224830
:103ED4000AF0D4F90028E7D18FE702211E480AF03E
:103EE400EBF9002889D001211B480AF0E9F90028E0
:103EF40083D0FFF7D5FB1FB0BDE8F08FF6B9E379A7
:103F0400012B07D0052B07D008201FB0BDE8F04FC8
:103F1400FFF7BEBD3046F8E7304608F0C1FC012883
:103F24000AD03046FFF7B4FD4FF4005000210AF0E8
:103F340036FC012007F04DFB0A20E6E72A46394605
:103F44002046054BFCF73AFB0028D4D11FB0BDE84E
:103F5400F04FFFF7A5BB00BFA03701200BF6000010
:103F640001232DE9F34100250646DFF8C080304CDB
:103F740088F800302F4B304F0095186098F80030C7
:103F840013B902B0BDE8F0812C4BC5F58061C3F8CC
:103F94000046C3F80446C3F80846C3F80C46C3F801
:103FA4001046C3F81446C3F81846C3F81C4603F574
:103FB4008053C3F80046C3F80446C3F80846C3F860
:103FC4000C46C3F81046C3F81446C3F81846C3F8A1
:103FD4001C46336801AA0131781998470028019BCF
:103FE40001DC002BCAD005442BB940F201439D42A9
:103FF400C4D10025C2E73B78062B09D17B78092B75
:104004000BD1002300936946A81EFFF75DFD04E071
:10401400042B02D17B78142BF5D00128E9D1009927
:1040240007480239FFF796FDE3E700BF2C61012042
:104034003546526EEC3701202E6501200080015078
:104044002F61012030BFFFF7FDBF00BF054B5A6948
:104054009B689A421FBF044A536843F080535360DD
:10406400704700BFC844012000ED00E0154B9A6A78
:1040740012F0007F9A6A14BF1E201D2012F0807F68
:104084009A6A18BF1F2012F4801F9A6A18BF022070
:1040940012F4002F9A6A18BF212012F4802F9A6A12
:1040A40018BF222012F4003F9A6A18BF232012F48A
:1040B400803F9A6A18BF24206FEA02426FEA1242D4
:1040C4009A62704700ED00E010B5184B0246986AFA
:1040D4009C6A10F4805F14BF1720162014F4006F3C
:1040E4009C6A18BF1820A40508D5986A000404D552
:1040F4001AB19A6A22F400429A6219200B4B9A6A06
:1041040012F4806F9A6A18BF1A20D2050CD49B6AE5
:1041140013F4005F18BF1C20044A936A43F47F43DE
:10412400936200230B7010BD1B20F5E700ED00E047
:1041340010B51C4B0246986A9C6A10F0100F14BF0D
:104144001120102014F0080F9C6A18BF1220A40735
:1041540009D5586B986A000604D51AB19A6A22F0F8
:1041640080029A6213200F4B9A6A12F0010F9A6A26
:1041740018BF142012F0200F9A6A18BF1520D40615
:1041840058BF9B6A074B9A6A920642BF5A6A22F446
:1041940000525A629A6A42F0FF029A6200230B703C
:1041A40010BD00BF00ED00E070B5444B06465B68EF
:1041B40000258AB0C3F3080385F31188BFF36F8F1A
:1041C40002F07F40B0F17F4F11D102F00C000828BB
:1041D4000DD010074CBF0E4601250022033B8DF87D
:1041E4000720032B05D8DFE803F01E5C60592E4638
:1041F400F3E700249DF807309BB92022314602A83A
:1042040007F0DBFE099B002D53D0C3F3080222B94B
:104214006FEA53236FEA43230993204602A907F068
:1042240049FE0AB070BD254BDA6A9107E1D4DA6A17
:10423400002ADEDBDA6A5200DBD55A69B16942F43E
:1042440080725A61BFF34F8FBFF36F8F5A6931F891
:10425400021C22F480725A61BFF34F8FBFF36F8F39
:104264004DF60272914209D09A6AD2B242B101204B
:104274000DF10701FFF75CFF0446BBE73468B9E7BB
:104284009A6A12F47F4F05D001200DF10701FFF760
:104294001BFFF1E79B6AB3F5803FAAD3FFF7E6FE65
:1042A400EAE700200DF10701E4E700200DF1070122
:1042B400EDE723F4FF7323F00103ADE700ED00E025
:1042C400064B5A6942F010025A615A6942F48062FC
:1042D4005A615A6922F008025A61704700ED00E001
:1042E400EFF30880EFF3098101B57246FFF75CFF35
:1042F40001BD00BF002080F31488BFF36F8F00203E
:1043040080F30A8880F30B880F4880F3088803F051
:10431400AFFF00200D490860BFF34F8F00F01AF87B
:10432400202080F311880A484FF40061401880F37C
:104334000988EFF314800221084380F31488BFF343
:104344006F8F00F0D1F8000080A2052094ED00E00A
:104354004071052072B6002383F313884FF0FF30B9
:104364000C4A03F120010133102B42F82100F8D14B
:1043740000234FF0FF30074A03F160010133102B93
:1043840042F82100F8D162B6BFF34F8FBFF36F8FAD
:10439400704700BF00E100E0084B9B6883420BD1EB
:1043A400EFF3058343B1064B5A6842F080525A60DA
:1043B4005A6A22F400425A6205F0F8BFC844012048
:1043C40000ED00E013498A684FF030001044EFF329
:1043D400098C80E8F01F202080F31288BFF36F8FD0
:1043E4000D4F4FF000664A698A603E60106F0023EB
:1043F400136780F3118802F1300090E8F01F8CF30A
:10440400098802F1000004B507F069FDBDE8044025
:1044140070470000C844012004ED00E01EF0040FC2
:104424000CBFEFF30880EFF30980816911F8021CD7
:104434000229FFD001B5724607F042FD01BD00BF5D
:1044440040B2002807DB01234109034A00F01F00A2
:10445400834042F82130704700E100E040B2002878
:104464000CDB01220649430900F01F00824020337F
:1044740041F82320BFF34F8FBFF36F8F704700BF06
:1044840000E100E0054B420953F82220012300F02B
:104494001F0003FA00F01040704700BF00E100E085
:1044A40040B2002801F10101ACBF00F16040064BAD
:1044B4004FEA4111C9B2ABBF00F5614000F00F00F3
:1044C40080F800131954704714ED00E0044B054ABA
:1044D40023F07F039360BFF34F8FBFF36F8F704759
:1044E4000000000000ED00E008B5FFF7EFFF074A09
:1044F400D2F8883023F47003C2F8883005F00CF940
:1045040005F0F6FF00F040F805F046F900ED00E094
:1045140042F8203C009B0B4942F81C3C019B21F0D3
:10452400010142F8183C029B42F8081C42F8143C72
:104534004FF0807342F8043C0023203A026503677D
:10454400704700BFC3B5000000B5094B0E46986024
:104554001546036E83F30B882C4686F309880020E6
:10456400044B98472046002100220023024C204798
:10457400C8440120EBBE0000C3B500001022014B6B
:104584001A61704700ED00E0002320210348C2189F
:104594000133452B82F80013F9D1704700E100E0A4
:1045A40008B5EFF30583064A103B02EBC30152F84A
:1045B400330049688847BDE80840FFF747BD00BF9E
:1045C40008EB00000CB410B586B009B90DF10B006E
:1045D4000024CDE9040109AB089A009404A9054814
:1045E4000393FDF7A5F8049B1C7006B0BDE81040CA
:1045F40002B07047E7BF0000054B03EB8000D0F822
:10460400003223F0E04343F04053C0F800327047D7
:1046140000258450052370B5144D154E2C780134B3
:10462400B4FBF3F303EB8303E41A08F0EBF8114A49
:10463400137823B156F82430C01A072814D94FF040
:104644005023D3F8141141B10021C3F81411D3F845
:1046540014312C700CB9012313702C7808F0D2F8A3
:1046640046F82400012070BD0020FCE730690120D9
:10467400F03701202F690120012208B50B4B0C49AA
:10468400C3F8002502230020C1F8D036FFF7B4FF99
:104694001046FFF7B1FFC1F80427C1F80429C1F897
:1046A400002BBDE8084000F0A5B800BF0010005082
:1046B4000040005007B50DF1070003F0FDFE0F4B5D
:1046C400984218D14FF480620D4B0E49C3F8B825B7
:1046D4004FF40062C3F83C259DF8070009F0D0F9B7
:1046E4009DF80700084909F0C6F901209DF8073034
:1046F400984003F0DBFE03B05DF804FB0000AD0B53
:1047040000A002502CA0025028A1025048B1054B31
:10471400054A1B68B3FBF2F35843044B43F001030F
:10472400184770475C21002040420F0080EE0000D3
:10473400002170B5104C114D114E000714F8013BC7
:1047440003F01F025B090FD0012B0FD1334603EB9B
:104754008203D3F80022013122F0E042024304290B
:10476400C3F80022EAD170BD2B46F0E70023803263
:1047740053F82230FFDE00BF1EF6000000258450EF
:10478400002884502DE9F041064601200D46FFF72C
:10479400CFFF4FF47F03D3F83021D3F83431072A05
:1047A40020D1023B032B02D8114AD35CD3B14FF082
:1047B40050244FF0010800270520C4F81886C4F8D7
:1047C400147609F056F94046C4F8148609F051F9F4
:1047D400C4F81476C4F8187630462B46BDE8F04188
:1047E400002118474FF050230022C3F81426F3E7A2
:1047F4001AF600000149024806F066BFE8EF00001F
:1048040004380120BFF34F8F0549064BCA6802F4F0
:10481400E0621343CB60BFF34F8F00BFFDE700BFDF
:1048240000ED00E00400FA050146014809F083BEEA
:10483400F82200200149024809F0E0BE483801206E
:10484400A8240020020600F07F0312D5082B05D10E
:10485400010700F00F0306D50E48704710F0780FDB
:1048640012D100F00F034C2000EB43100A4B184404
:104874007047082B05D1020700F00F0306D507483F
:10488400704710F0780FF6D000207047044800EB12
:10489400431070476C390120203801208C3A0120E4
:1048A4008C39012000220023014805F0E3B800BF41
:1048B400F822002013B5002201213720FFF7F0FD74
:1048C400114800F025FE114B98421AD100241048DB
:1048D40004F0EAF90F4804F021FE4FF0FF334FF4DF
:1048E40080620D490D48009405F04EFA0C490B48BE
:1048F40009F0A6FE0B480C4909F064FE204602B0FC
:1049040010BD6FF00400FAE73D4B00000000AD0B52
:104914002DF60000F4EF0000406D0520A8240020CF
:1049240022F6000048380120594C0000002310B53D
:104934000B49D1E8EF2F012A03D1C1E8E03F002859
:10494400F7D10CD151F8044C1439204606F04AFF33
:10495400783004D12046BDE8104006F01FBF10BDDA
:104964004038012038B5002464F07F00C0B2FFF75E
:1049740069FF013407F053FB082CF5D100240E4DD8
:10498400E0B2FFF75FFF036903B90561013407F083
:1049940046FB082C05F14005F2D1084807F03FFB1F
:1049A400074BD3F87C2212B9064AC3F87C22064886
:1049B40007F035FB002038BDB03E01206C390120E2
:1049C40020380120B03A01208C3A012010B5054C62
:1049D400FFF768FF20B14168204609F0DBFCF7E7E8
:1049E40010BD00BF6822002007B5002300220E4836
:1049F40001A904F049FF90B1FFF7E8FF002200236A
:104A0400094801A904F040FF38B904230198406023
:104A14000374FFF709FFFFF70DFF002001E0019881
:104A2400406003B05DF804FB6822002010B5044622
:104A3400FFF7DAFF60B1002204720274FFF7F4FE9C
:104A4400044B93F824301BB1BDE81040FFF7F2BECD
:104A540010BD00BF20380120012807B50FD002285F
:104A64000ED048B9002200230848CDE9002345F6BA
:104A74009A12002305F0FCFE03B05DF804FB00204D
:104A840003B05DF804EBFFF7D1BF00BFF8210020AD
:104A9400F8B5877806463846FFF7D4FE3B06044649
:104AA400F57812D5002D43D1FFF79EFF0346002869
:104AB4003ED00122A5770274032202739C60FFF7A3
:104AC400B3FEBDE8F840FFF7B5BE4DB1012D2FD1BF
:104AD400FFF78AFF034658B3657705740573EDE75E
:104AE400FFF782FF20B3B278124B12F0800F02F06E
:104AF400080111D041B1D3F8A836E360012303744F
:104B0400022384600373DAE7142102F00F0201FB2D
:104B14000233D3F80836F0E711B1D3F8A837ECE73D
:104B2400142102F00F0201FB0233D3F80837E4E743
:104B3400F8BD00BF00600350F0B5064689B01422EA
:104B4400002103A807F044FA3378013B052B21D850
:104B5400DFE803F07A0314146A16032300248DF8A3
:104B64001430FFF741FF0346A0B100F108020474BA
:104B7400DDE9050182E8030018461DE00423EDE7A2
:104B8400B7783846FFF75EFE837A044623B1013BCB
:104B9400022B43D909B0F0BD3B06F57813D5002D9F
:104BA400F8D1FFF721FF03460028F3D00122A577AF
:104BB4000274032202739C60FFF736FE09B0BDE85D
:104BC400F040FFF737BE55B1012DE3D1FFF70CFFDD
:104BD40003460028DED0657705740573EBE7FFF71D
:104BE40003FF07460028D5D0012303740223846001
:104BF400037304F10C01B07807F075FA134AE16805
:104C0400B2F88C328B4206D95B1AA2F88C3200F0CF
:104C1400C7FF3846D0E7A2F88C52FAE7304609B00D
:104C2400BDE8F040FFF734BF01A800F093FF9DF802
:104C34000530052B04D19DF8043013F0600FA9D082
:104C4400034B012405938CE702248AE720380120D2
:104C54008C3901202DE9F0438046AD4CDFF8B49245
:104C640085B0FFF71FFE064610B905B0BDE8F08316
:104C740094F82530327C3BB9002A00F089807168B1
:104C8400A44809F087FBECE7042A45D8DFE812F0D2
:104C940080000500FF0015013001337BB568032B4C
:104CA4003AD8DFE803F002405D626F690822002110
:104CB400384607F08DF9984B9848D3F880243A7019
:104CC400D3F884247A70D3F88824D3F88C1442EA75
:104CD40001227A80D3F89024D3F8941442EA012272
:104CE400BA80D3F89824D3F89C34394642EA032393
:104CF4000822FB80EA6007F060F92B680021687ADB
:104D0400984797F90030002B09DBFB889AB232B13F
:104D1400A4F88C3200F044FF48467168B1E70023E0
:104D2400A4F88C32F8E76B7F002BF5D02B7F002B97
:104D3400F2D000274FF0FF326F774FF0FF337848FF
:104D44002F7707F07FF96B6901A901936B68CDE9AF
:104D54000237687A00F032FC714807F075F9DBE736
:104D640001212B68687A9847D6E7AB7A6BB9EB7F59
:104D74005BB96B484FF0FF324FF0FF3307F062F935
:104D840000F014FF664807F05FF902212B68E9E799
:104D9400327A042AC0D8DFE802F055031F636F009B
:104DA40000F076FB05460028B6D100F023FB012372
:104DB4005C49D1E8EF2F002A03D1C1E8E03F002885
:104DC400F7D1A9D141F8085C41F8105CE0691439C5
:104DD400636106F08CFC9FE7002565F07F00C0B29C
:104DE400FFF730FD037A13B1407A01F041F8013541
:104DF400082DF2D194F854311BB194F8550101F007
:104E040037F80025E8B2FFF71DFD037A13B1407AA5
:104E140001F02EF80135082DF4D194F874321BB149
:104E240094F8750201F024F8002000F015FB01232A
:104E340084F825302368002B3FF46EAF0021022054
:104E4400984769E7002584F8255000F079FFFFF7BB
:104E54006DFD2368002B3FF45FAF29460420EFE784
:104E6400002B3FF459AF00F01DFB2368002B3FF4E7
:104E740053AF00210520E3E72268002A3FF44CAF3A
:104E8400002B3FF449AF00210620904744E708F186
:104E940010054FF0FF334FF0FF32284607F0D2F8E9
:104EA400FFF760FD284607F0CFF858F8283C002BA0
:104EB4003FF432AF00210120C2E794F874327BB191
:104EC400012584F8895284F88852FFF78DFD38B1A2
:104ED400154A057405738260FFF7A6FCFFF7AAFC68
:104EE40058F8283C002B3FF417AF00210A20A7E70D
:104EF40004F0FCFA00F024FF00F072FAFFF766FDFC
:104F0400FFF730FD04F0EAFA084800F001FB03E77C
:104F1400203801206822002000600350243801203A
:104F240058380120403801208C3A01203D4B0000C4
:104F340038B5154D95F8244024BB05F1380009F027
:104F440073FA022001F0F8F822460121E8613620C4
:104F5400FFF7A6FA04F0C2FAFFF704FD044610B9FD
:104F6400012385F82430094B1B680BB1FFF762FC61
:104F7400074BD3F80034DB0702D50020FFF76CFDA4
:104F8400204638BD0024FBE720380120F822002009
:104F94000070035010B54FF0FF324FF0FF330B4851
:104FA40007F050F8FFF712FD00F072FA08B100F0B4
:104FB400C7FE0024FFF7BAFC04F098FA044880F80E
:104FC4002440383007F040F8204610BD58380120FE
:104FD40020380120074B93F824203AB193F8253068
:104FE400002B14BF00206FF0120070476FF0120006
:104FF400704700BF2038012038B5104B044693F8A1
:105004002430C3B105782846FFF71CFC10B96FF0B3
:10501400150038BD45722379837263884360207814
:10502400618810F0080F02D14B1E0B42EFD107F03C
:1050340055F80020EDE76FF01200EAE72038012070
:1050440038B5124B054693F82420CAB193F825309D
:10505400B3B1FFF7F7FB0446A8B1837A012B12D052
:1050640007D9023B012B07D900206369E060A361E3
:1050740038BD00F0A1FDF7E7284600F03FFDF3E757
:105084006FF01200F4E76FF01500F1E7203801200B
:1050940038B50E4B054693F8242082B193F8253099
:1050A4006BB1FFF7CFFB68B115F008040AD12846AD
:1050B40000F046FD284600F013FF204638BD6FF08F
:1050C4001200FBE76FF01500F8E700BF203801205D
:1050D40038B50C4B054693F824200C4662B193F87E
:1050E40025304BB1FFF7AEFB48B144B1284600F080
:1050F4000DFD2070002038BD6FF01200FBE76FF04B
:105104001500F8E72038012070B5134E044696F8D0
:105114002430C3B1FFF796FB0546B8B1230705D485
:10512400204600F00DFD204600F0DAFE2B7A83B90C
:1051340001232B7296F825300BB9002070BD204650
:1051440000F096FEF9E76FF01200F7E76FF0150034
:10515400F4E76FF07700F1E7203801202DE9F04300
:10516400DFF8E4801E4698F8243007468946154641
:1051740085B0002B61D098F82530002B5DD0030654
:105184005ED5FFF75FFB0446002859D0037A002B55
:1051940056D04FF0FF334FF0FF3208F1380006F0DD
:1051A40051FFA37F4BB108F1380006F04DFF6FF0BB
:1051B4000A04204605B0BDE8F083A37AC5B13BB329
:1051C40001234FF00008A377384601A9CDE90195E2
:1051D400CDF80C8000F0F2F91C4B984229D084F8E9
:1051E4001E801EBB6FF00404194806F02DFFE0E793
:1051F400E27F02B1E577002BE2D100F0E3FC8742C5
:10520400DED000F0D3FC124806F01EFF0024D0E7E5
:10521400B8F80A30AB42F0D96268B5FBF2F302FB8E
:105224001353002BE9D10123E377E6E7C6F80080A6
:10523400D8E706B135600024D6E76FF01204B8E76A
:105244006FF01504B5E700BF203801200000AD0B56
:10525400583801202DE9F0411D46204B174693F89C
:1052640024200E46002A33D093F8253083B3030656
:1052740031D401B97FBBFFF7E5FA044658B3037A8A
:105284004BB34FF0FF334FF0FF32154806F0DAFE10
:10529400E368BB42984628BFB84646B93FB905B152
:1052A4002B600F4806F0D0FE0020BDE8F081424696
:1052B4003046A16906F081FEA3694344A361E36813
:1052C400A3EB0803E360002DEBD0C5F80080E8E70A
:1052D4006FF01200E9E76FF01500E6E720380120CF
:1052E4005838012070B51E4D034695F8242082B32A
:1052F40095F825206AB31B062ED4FFF7A3FA0446BB
:1053040050B3037A43B34FF0FF334FF0FF3205F14C
:10531400380006F097FEE368B3B90126636926777F
:10532400A361637F83B1FFF75FFB30B905F13800F8
:1053340006F08AFE6FF00B0070BD0674846006737D
:10534400FFF772FAFFF776FA064806F07DFE0020B2
:10535400F2E76FF01200EFE76FF01500ECE700BF23
:10536400203801205838012010B5084B0C4693F81A
:1053740024302BB1FFF766FA28B10460002010BD79
:105384006FF01200FBE76FF01500F8E720380120FA
:10539400014B1860704700BF2038012008B5074B47
:1053A40093F8243023B1FFF74DFA20B1406808BDCB
:1053B4006FF01200FBE76FF01500F8E720380120CA
:1053C400064B10F0800FA3F1D80208BF1346182231
:1053D40000F00F0002FB0030704700BFC8410120FD
:1053E4000023024A1360024A13707047A842012046
:1053F400356901204FF40062114BC3F800240122E7
:10540400C3F80025D3F800241205FBD54FF400623D
:10541400C3F800248022C3F81C250122C3F83025D8
:1054240040F2FF12074B1A600023074A1360074A31
:105434001370074A13700222064B1A70704700BF9C
:1054440000600350A4420120A042012031690120E0
:1054540033690120356901200022094B10B51A7007
:10546400084A094B094C002808BF13463620C4F8E3
:105474000033FEF7E5FF0123C4F8043510BD00BF77
:1054840034690120FDFFDF01FDFFFF0100600350CF
:10549400034B1878012894BF00200120704700BFF7
:1054A4003569012010B54FF0FF324FF0FF33154836
:1054B40004F046FBEFF31181202383F31288BFF33A
:1054C4006F8F114B1B7803F0FF0483B10F4BD3F89C
:1054D400002412F400720AD10120C3F82C05D3F879
:1054E4002C05D3F80004800502D5C3F82C2500242C
:1054F40081F31188BFF36F8F024804F0EDFA204660
:1055040010BD00BFE8220020346901200060035070
:10551400F8B51C4B1C7894BB1B4A40F2FF17106073
:10552400012226461A7064F07F0514F0080FEDB2CC
:1055340014BF39464021284606F0D0FD2846FFF71F
:105544003FFF0134092C867506730661EBD10024F4
:1055540040F2FF17254614F0080FE6B214BF39468F
:105564004021304606F0BAFD3046FFF729FF0134EA
:10557400092C857505730561EDD10448F8BD04480F
:10558400FCE700BF35690120A84201200000AD0BF3
:105594000500AD0B084B10F0800F14BFD3F8102595
:1055A400D3F81425012300F00F018B40134214BFDC
:1055B40001200020704700BF0060035002462DE91F
:1055C400F843EFF31187202383F31288BFF36F8F1F
:1055D400030703D1194B1B7883422AD1184B104679
:1055E4001C684FF00109E44306F070FD154EA4B2A7
:1055F400356809FA00F82C4314EA08041BD1104654
:10560400FFF7DEFE034680F80C9007C983E8070025
:105614004FF480021C619C750B4B45EA08050B484E
:105624003560C3F8042187F31188BFF36F8FBDE899
:10563400F8830748F7E70748F5E700BF3369012017
:10564400A4420120A042012000E100E00000AD0BD3
:105654000A00AD0B0B00AD0B10F0080F074B06D082
:10566400D3F8C00410F4803F18BF0020704700F046
:105674000F0000F5947053F8200070470060035049
:105684002DE9F74FAA4BAB4ED3F85421DAB10022DF
:10569400C3F85421D3F80413890214D58DF80420D7
:1056A400D3F8202501A8ADF80620D3F8C034002B88
:1056B40014BF4FF001224FF48072336813433360F8
:1056C4009D4B1B6898479A4BD3F8604134B1002234
:1056D400C3F86021D3F86C44C3F86C44D3F8282190
:1056E4004AB10022C3F82821944B187806F0EEFC46
:1056F400012383401C43DFF84882924F98F80050FE
:1057040098F9009015F0080141D1B9F1000F05F0A6
:105714000F032CDA8C4A52F8230010B342F82310FA
:105724001422534303F1A04303F55833D3F8083646
:10573400864A03F0010311784B401370844804F047
:10574400CBF92846FFF73CFE837D032B37D128464F
:1057540006F0BCFC012303FA00F03B6823EA0003D3
:105764003B6001254FF00609DFF8CCA15DE0794AE2
:1057740052F823000028F4D042F823101422534393
:1057840003F1A04303F55833D3F80837D0E7B9F150
:10579400000F674B09DBD3F85021002AE1D0002227
:1057A400C3F85021D3F8A837C2E7D3F82C21002A34
:1057B400D7D00022C3F82C21D3F8A836B8E7037B4E
:1057C400DBB9284606F082FC012303FA00F03B68AB
:1057D400B9F1000F23EA00033B6001DA882DC0D140
:1057E40006238DF8043000238DF80730524B8DF8D2
:1057F40006501B6801A89847B3E7002DB1D10122D8
:105804004B4BDA64ADE794FAA4F0B0FA80F0326856
:1058140005FA00F31A430F28326024EA03043A68B5
:1058240040F39C80134200F0A980002CEBD1404B44
:10583400D3F800215AB1C3F80041474B01A81C70AA
:105844003E4B1C70012301933B4B1B689847384B1C
:10585400D3F85821002A2ED00022C3F85821D3F8B7
:105864000044C3F80044E30508D501223A4B01A8DB
:105874001A7002230193304B1B689847A50508D57D
:105884000022354B01A81A70032301932A4B1B688D
:10589400984760050FD5304B1A7862B100221A7010
:1058A4000122234B01A8C3F808259A650423019318
:1058B400214B1B6898471E4BD3F85C3103B3244B30
:1058C4009B681BB998F80030590619D00022184B70
:1058D40001A8C3F85C21D3F88034184A23F07F036D
:1058E40013703B6823F001133B60336823F4803367
:1058F40043F001033360052301930F4B1B68984762
:105904003A6833681A4200F0E1800022002310480C
:1059140004F016F9002840F0D980054BD3F82C3553
:10592400002B7BD00A4803B0BDE8F04F04F0D4B894
:1059340000600350A4420120A842012033690120E1
:1059440032690120A042012008610350316901201D
:10595400E8220020306103503469012013407FF4B1
:1059640064AF60F07F018DF804908DF806108DF817
:105974000730DAF8003001A8984756E7A0F1100183
:105984008DF804908DF806108DF80750F1E749F072
:1059940080052846FFF714FD4368B0F814A0016899
:1059A4009A4528BF9A4601F06043B3F1005F04466C
:1059B40004D052464E4806F000FB4D492268636805
:1059C40052442260A268A3EB0A03D20768B2636060
:1059D40053D5BAF1000F52D1002323734FE011467F
:1059E4004FF0000A604545D1003B18BF0123002A4F
:1059F40042D0504540D9012303FA09F32BEA0303AB
:105A04003B60062302228DF804303A4BA2751B68D2
:105A14008DF806508DF8072001A89847D7F800B0F4
:105A240033681BEA03093FF47DAF19F0012314BF67
:105A340093FAA3F999FAA9F9B9FA89F9B9F10F0F07
:105A4400A5D9A9F11005EDB22846FFF7B9FC044623
:105A54002846FFF701FE6368B4F814C09842226830
:105A6400BDD81B1A00EB020E114682466360C4F8CF
:105A740000E0B7E70023BAE768B2002BACD00122FC
:105A8400336802FA09F923EA09033360236915F03C
:105A9400080F5344236188F80050174B19D100288C
:105AA4004FF0140005F00F0500FB0530B5BF03EB04
:105AB40085030A35C0F80016C0F80017B5BFC0F852
:105AC40004A6C0F804A75A6043F8252003B0BDE833
:105AD400F08F0028B5BFC3F8A016C3F8A017C3F809
